{
  "contractName": "IdentityPerson",
  "abi": [
    {
      "anonymous": false,
      "inputs": [
        {
          "indexed": false,
          "internalType": "address",
          "name": "_ownerAddress",
          "type": "address"
        },
        {
          "indexed": false,
          "internalType": "enum IdentityPerson.TypeGeneration",
          "name": "",
          "type": "uint8"
        },
        {
          "indexed": false,
          "internalType": "string",
          "name": "name",
          "type": "string"
        },
        {
          "indexed": false,
          "internalType": "string",
          "name": "lastName",
          "type": "string"
        },
        {
          "indexed": false,
          "internalType": "string",
          "name": "country",
          "type": "string"
        },
        {
          "indexed": false,
          "internalType": "string",
          "name": "document",
          "type": "string"
        },
        {
          "indexed": false,
          "internalType": "uint256",
          "name": "numberDocument",
          "type": "uint256"
        },
        {
          "indexed": false,
          "internalType": "bool",
          "name": "alive",
          "type": "bool"
        },
        {
          "indexed": false,
          "internalType": "bytes20",
          "name": "idPerson",
          "type": "bytes20"
        }
      ],
      "name": "registerParentEvent",
      "type": "event"
    },
    {
      "anonymous": false,
      "inputs": [
        {
          "indexed": false,
          "internalType": "bytes20",
          "name": "identifiantUnique",
          "type": "bytes20"
        },
        {
          "indexed": false,
          "internalType": "address",
          "name": "validateBy",
          "type": "address"
        },
        {
          "indexed": false,
          "internalType": "enum IdentityPerson.TypeGeneration",
          "name": "categorieAge",
          "type": "uint8"
        },
        {
          "indexed": false,
          "internalType": "string",
          "name": "name",
          "type": "string"
        },
        {
          "indexed": false,
          "internalType": "string",
          "name": "lastName",
          "type": "string"
        },
        {
          "indexed": false,
          "internalType": "string",
          "name": "otherName",
          "type": "string"
        },
        {
          "indexed": false,
          "internalType": "uint256",
          "name": "birthDate",
          "type": "uint256"
        },
        {
          "indexed": false,
          "internalType": "string",
          "name": "birthCity",
          "type": "string"
        },
        {
          "indexed": false,
          "internalType": "string",
          "name": "birthGender",
          "type": "string"
        },
        {
          "indexed": false,
          "internalType": "string",
          "name": "birthCountry",
          "type": "string"
        },
        {
          "indexed": false,
          "internalType": "bool",
          "name": "alive",
          "type": "bool"
        },
        {
          "indexed": false,
          "internalType": "bool",
          "name": "validate",
          "type": "bool"
        }
      ],
      "name": "registerPeople",
      "type": "event"
    },
    {
      "inputs": [
        {
          "internalType": "address",
          "name": "_veriferAddress",
          "type": "address"
        },
        {
          "internalType": "string",
          "name": "_country",
          "type": "string"
        },
        {
          "internalType": "string",
          "name": "_city",
          "type": "string"
        },
        {
          "internalType": "string",
          "name": "_streetAddress",
          "type": "string"
        },
        {
          "internalType": "enum Verifier.TypeValidateur",
          "name": "_typeValidateur",
          "type": "uint8"
        }
      ],
      "name": "addVerifier",
      "outputs": [],
      "stateMutability": "nonpayable",
      "type": "function"
    },
    {
      "inputs": [
        {
          "internalType": "address",
          "name": "_ownerAddress",
          "type": "address"
        },
        {
          "internalType": "string",
          "name": "_name",
          "type": "string"
        },
        {
          "internalType": "string",
          "name": "_lastName",
          "type": "string"
        },
        {
          "internalType": "string",
          "name": "_country",
          "type": "string"
        },
        {
          "internalType": "string",
          "name": "_document",
          "type": "string"
        },
        {
          "internalType": "uint256",
          "name": "_numberDocument",
          "type": "uint256"
        }
      ],
      "name": "registerParent",
      "outputs": [],
      "stateMutability": "nonpayable",
      "type": "function"
    },
    {
      "inputs": [
        {
          "internalType": "address",
          "name": "_ownerAddress",
          "type": "address"
        },
        {
          "internalType": "string",
          "name": "_name",
          "type": "string"
        },
        {
          "internalType": "string",
          "name": "_lastName",
          "type": "string"
        },
        {
          "internalType": "string",
          "name": "_otherName",
          "type": "string"
        },
        {
          "internalType": "uint256",
          "name": "_birthDate",
          "type": "uint256"
        },
        {
          "internalType": "string",
          "name": "_birthCountry",
          "type": "string"
        },
        {
          "internalType": "string",
          "name": "_birthCity",
          "type": "string"
        },
        {
          "internalType": "string",
          "name": "_birthGender",
          "type": "string"
        }
      ],
      "name": "registerPerson",
      "outputs": [],
      "stateMutability": "nonpayable",
      "type": "function"
    },
    {
      "inputs": [
        {
          "internalType": "address",
          "name": "peopleWallet",
          "type": "address"
        }
      ],
      "name": "validatePerson",
      "outputs": [],
      "stateMutability": "nonpayable",
      "type": "function"
    }
  ],
  "bytecode": "0x608060405234801561001057600080fd5b5060018060003373ffffffffffffffffffffffffffffffffffffffff1673ffffffffffffffffffffffffffffffffffffffff16815260200190815260200160002060006101000a81548160ff0219169083151502179055506117f3806100776000396000f3fe608060405234801561001057600080fd5b5060043610610069576000357c01000000000000000000000000000000000000000000000000000000009004806317b7e0aa1461006e578063205c84931461008a5780638c026e5e146100a6578063cdd0b264146100c2575b600080fd5b61008860048036038101906100839190610ec1565b6100de565b005b6100a4600480360381019061009f9190610fc6565b6103f3565b005b6100c060048036038101906100bb9190611124565b6107c0565b005b6100dc60048036038101906100d79190611221565b610acd565b005b60018060003373ffffffffffffffffffffffffffffffffffffffff1673ffffffffffffffffffffffffffffffffffffffff16815260200190815260200160002060006101000a81548160ff0219169083151502179055610173576040517f08c379a000000000000000000000000000000000000000000000000000000000815260040161016a906112ab565b60405180910390fd5b60006002811115610187576101866112cb565b5b81600281111561019a576101996112cb565b5b14806101ca5750600160028111156101b5576101b46112cb565b5b8160028111156101c8576101c76112cb565b5b145b806101f857506002808111156101e3576101e26112cb565b5b8160028111156101f6576101f56112cb565b5b145b610237576040517f08c379a000000000000000000000000000000000000000000000000000000000815260040161022e90611346565b60405180910390fd5b6040518060a001604052808673ffffffffffffffffffffffffffffffffffffffff168152602001858152602001848152602001838152602001826002811115610283576102826112cb565b5b8152506000808773ffffffffffffffffffffffffffffffffffffffff1673ffffffffffffffffffffffffffffffffffffffff16815260200190815260200160002060008201518160000160006101000a81548173ffffffffffffffffffffffffffffffffffffffff021916908373ffffffffffffffffffffffffffffffffffffffff1602179055506020820151816001019080519060200190610327929190610c41565b506040820151816002019080519060200190610344929190610c41565b506060820151816003019080519060200190610361929190610c41565b5060808201518160040160006101000a81548160ff0219169083600281111561038d5761038c6112cb565b5b021790555090505060018060008773ffffffffffffffffffffffffffffffffffffffff1673ffffffffffffffffffffffffffffffffffffffff16815260200190815260200160002060006101000a81548160ff0219169083151502179055505050505050565b3373ffffffffffffffffffffffffffffffffffffffff168873ffffffffffffffffffffffffffffffffffffffff1614610461576040517f08c379a0000000000000000000000000000000000000000000000000000000008152600401610458906113d8565b60405180910390fd5b6000336001436104719190611427565b40604051602001610483929190611483565b604051602081830303815290604052805190602001209050604051806101800160405280826bffffffffffffffffffffffff19168152602001600260009054906101000a900473ffffffffffffffffffffffffffffffffffffffff1673ffffffffffffffffffffffffffffffffffffffff1681526020016000600181111561050e5761050d6112cb565b5b815260200189815260200188815260200187815260200186815260200184815260200183815260200185815260200160011515815260200160001515815250600360003373ffffffffffffffffffffffffffffffffffffffff1673ffffffffffffffffffffffffffffffffffffffff16815260200190815260200160002060008201518160000160006101000a81548173ffffffffffffffffffffffffffffffffffffffff02191690836c010000000000000000000000009004021790555060208201518160010160006101000a81548173ffffffffffffffffffffffffffffffffffffffff021916908373ffffffffffffffffffffffffffffffffffffffff16021790555060408201518160010160146101000a81548160ff0219169083600181111561063f5761063e6112cb565b5b02179055506060820151816002019080519060200190610660929190610c41565b50608082015181600301908051906020019061067d929190610c41565b5060a082015181600401908051906020019061069a929190610c41565b5060c0820151816005015560e08201518160060190805190602001906106c1929190610c41565b506101008201518160070190805190602001906106df929190610c41565b506101208201518160080190805190602001906106fd929190610c41565b506101408201518160090160006101000a81548160ff0219169083151502179055506101608201518160090160016101000a81548160ff0219169083151502179055509050507f554abf8145a91592823ef63d69121e1d4090cf243c829e9dfd5b2b4273ba9c3081600260009054906101000a900473ffffffffffffffffffffffffffffffffffffffff1660008b8b8b8b8a8a8d600160006040516107ad9c9b9a999897969594939291906115d0565b60405180910390a1505050505050505050565b3373ffffffffffffffffffffffffffffffffffffffff168673ffffffffffffffffffffffffffffffffffffffff161461082e576040517f08c379a0000000000000000000000000000000000000000000000000000000008152600401610825906113d8565b60405180910390fd5b60003360014361083e9190611427565b40604051602001610850929190611483565b6040516020818303038152906040528051906020012090506040518061012001604052808873ffffffffffffffffffffffffffffffffffffffff1681526020016001808111156108a3576108a26112cb565b5b8152602001878152602001868152602001858152602001848152602001838152602001600115158152602001826bffffffffffffffffffffffff1916815250600460003373ffffffffffffffffffffffffffffffffffffffff1673ffffffffffffffffffffffffffffffffffffffff16815260200190815260200160002060008201518160000160006101000a81548173ffffffffffffffffffffffffffffffffffffffff021916908373ffffffffffffffffffffffffffffffffffffffff16021790555060208201518160000160146101000a81548160ff02191690836001811115610993576109926112cb565b5b021790555060408201518160010190805190602001906109b4929190610c41565b5060608201518160020190805190602001906109d1929190610c41565b5060808201518160030190805190602001906109ee929190610c41565b5060a0820151816004019080519060200190610a0b929190610c41565b5060c0820151816005015560e08201518160060160006101000a81548160ff0219169083151502179055506101008201518160060160016101000a81548173ffffffffffffffffffffffffffffffffffffffff02191690836c01000000000000000000000000900402179055509050507f77bfe6bc96f037cdcd697dcd88e55913dffd9050503ce84b7708a40ba7c6c0a28760018888888888600189604051610abc999897969594939291906116b4565b60405180910390a150505050505050565b60018060003373ffffffffffffffffffffffffffffffffffffffff1673ffffffffffffffffffffffffffffffffffffffff16815260200190815260200160002060006101000a81548160ff0219169083151502179055610b62576040517f08c379a0000000000000000000000000000000000000000000000000000000008152600401610b59906112ab565b60405180910390fd5b6001600360008373ffffffffffffffffffffffffffffffffffffffff1673ffffffffffffffffffffffffffffffffffffffff16815260200190815260200160002060090160016101000a81548160ff02191690831515021790555033600360008373ffffffffffffffffffffffffffffffffffffffff1673ffffffffffffffffffffffffffffffffffffffff16815260200190815260200160002060010160006101000a81548173ffffffffffffffffffffffffffffffffffffffff021916908373ffffffffffffffffffffffffffffffffffffffff16021790555050565b828054610c4d9061178c565b90600052602060002090601f016020900481019282610c6f5760008555610cb6565b82601f10610c8857805160ff1916838001178555610cb6565b82800160010185558215610cb6579182015b82811115610cb5578251825591602001919060010190610c9a565b5b509050610cc39190610cc7565b5090565b5b80821115610ce0576000816000905550600101610cc8565b5090565b6000604051905090565b600080fd5b600080fd5b600073ffffffffffffffffffffffffffffffffffffffff82169050919050565b6000610d2382610cf8565b9050919050565b610d3381610d18565b8114610d3e57600080fd5b50565b600081359050610d5081610d2a565b92915050565b600080fd5b600080fd5b6000601f19601f8301169050919050565b7f4e487b7100000000000000000000000000000000000000000000000000000000600052604160045260246000fd5b610da982610d60565b810181811067ffffffffffffffff82111715610dc857610dc7610d71565b5b80604052505050565b6000610ddb610ce4565b9050610de78282610da0565b919050565b600067ffffffffffffffff821115610e0757610e06610d71565b5b610e1082610d60565b9050602081019050919050565b82818337600083830152505050565b6000610e3f610e3a84610dec565b610dd1565b905082815260208101848484011115610e5b57610e5a610d5b565b5b610e66848285610e1d565b509392505050565b600082601f830112610e8357610e82610d56565b5b8135610e93848260208601610e2c565b91505092915050565b60038110610ea957600080fd5b50565b600081359050610ebb81610e9c565b92915050565b600080600080600060a08688031215610edd57610edc610cee565b5b6000610eeb88828901610d41565b955050602086013567ffffffffffffffff811115610f0c57610f0b610cf3565b5b610f1888828901610e6e565b945050604086013567ffffffffffffffff811115610f3957610f38610cf3565b5b610f4588828901610e6e565b935050606086013567ffffffffffffffff811115610f6657610f65610cf3565b5b610f7288828901610e6e565b9250506080610f8388828901610eac565b9150509295509295909350565b6000819050919050565b610fa381610f90565b8114610fae57600080fd5b50565b600081359050610fc081610f9a565b92915050565b600080600080600080600080610100898b031215610fe757610fe6610cee565b5b6000610ff58b828c01610d41565b985050602089013567ffffffffffffffff81111561101657611015610cf3565b5b6110228b828c01610e6e565b975050604089013567ffffffffffffffff81111561104357611042610cf3565b5b61104f8b828c01610e6e565b965050606089013567ffffffffffffffff8111156110705761106f610cf3565b5b61107c8b828c01610e6e565b955050608061108d8b828c01610fb1565b94505060a089013567ffffffffffffffff8111156110ae576110ad610cf3565b5b6110ba8b828c01610e6e565b93505060c089013567ffffffffffffffff8111156110db576110da610cf3565b5b6110e78b828c01610e6e565b92505060e089013567ffffffffffffffff81111561110857611107610cf3565b5b6111148b828c01610e6e565b9150509295985092959890939650565b60008060008060008060c0878903121561114157611140610cee565b5b600061114f89828a01610d41565b965050602087013567ffffffffffffffff8111156111705761116f610cf3565b5b61117c89828a01610e6e565b955050604087013567ffffffffffffffff81111561119d5761119c610cf3565b5b6111a989828a01610e6e565b945050606087013567ffffffffffffffff8111156111ca576111c9610cf3565b5b6111d689828a01610e6e565b935050608087013567ffffffffffffffff8111156111f7576111f6610cf3565b5b61120389828a01610e6e565b92505060a061121489828a01610fb1565b9150509295509295509295565b60006020828403121561123757611236610cee565b5b600061124584828501610d41565b91505092915050565b600082825260208201905092915050565b7f4e6f742061207665726966696572000000000000000000000000000000000000600082015250565b6000611295600e8361124e565b91506112a08261125f565b602082019050919050565b600060208201905081810360008301526112c481611288565b9050919050565b7f4e487b7100000000000000000000000000000000000000000000000000000000600052602160045260246000fd5b7f4d61757661697320747970652076616c69646174657572000000000000000000600082015250565b600061133060178361124e565b915061133b826112fa565b602082019050919050565b6000602082019050818103600083015261135f81611323565b9050919050565b7f4c2061647265737365207370656369666965206e6520636f72726573706f6e6460008201527f73207061732e0000000000000000000000000000000000000000000000000000602082015250565b60006113c260268361124e565b91506113cd82611366565b604082019050919050565b600060208201905081810360008301526113f1816113b5565b9050919050565b7f4e487b7100000000000000000000000000000000000000000000000000000000600052601160045260246000fd5b600061143282610f90565b915061143d83610f90565b9250828210156114505761144f6113f8565b5b828203905092915050565b61146481610d18565b82525050565b6000819050919050565b61147d8161146a565b82525050565b6000604082019050611498600083018561145b565b6114a56020830184611474565b9392505050565b60007fffffffffffffffffffffffffffffffffffffffff00000000000000000000000082169050919050565b6114e1816114ac565b82525050565b600281106114f8576114f76112cb565b5b50565b6000819050611509826114e7565b919050565b6000611519826114fb565b9050919050565b6115298161150e565b82525050565b600081519050919050565b60005b8381101561155857808201518184015260208101905061153d565b83811115611567576000848401525b50505050565b60006115788261152f565b611582818561124e565b935061159281856020860161153a565b61159b81610d60565b840191505092915050565b6115af81610f90565b82525050565b60008115159050919050565b6115ca816115b5565b82525050565b6000610180820190506115e6600083018f6114d8565b6115f3602083018e61145b565b611600604083018d611520565b8181036060830152611612818c61156d565b90508181036080830152611626818b61156d565b905081810360a083015261163a818a61156d565b905061164960c08301896115a6565b81810360e083015261165b818861156d565b9050818103610100830152611670818761156d565b9050818103610120830152611685818661156d565b90506116956101408301856115c1565b6116a36101608301846115c1565b9d9c50505050505050505050505050565b6000610120820190506116ca600083018c61145b565b6116d7602083018b611520565b81810360408301526116e9818a61156d565b905081810360608301526116fd818961156d565b90508181036080830152611711818861156d565b905081810360a0830152611725818761156d565b905061173460c08301866115a6565b61174160e08301856115c1565b61174f6101008301846114d8565b9a9950505050505050505050565b7f4e487b7100000000000000000000000000000000000000000000000000000000600052602260045260246000fd5b600060028204905060018216806117a457607f821691505b6020821081036117b7576117b661175d565b5b5091905056fea26469706673582212205f0088f3ff96a5b967a4aef198d2f6b40adc4acedb60dd44a3c181f1686eb2e264736f6c634300080e0033",
  "immutableReferences": {},
  "source": "// SPDX-License-Identifier: MIT\r\npragma solidity 0.8.14;\r\n\r\nimport \"./Verifier.sol\";\r\n// @title Contract for the identity of an human\r\n// @author Pierrick Hellequin\r\n// @notice This contract \r\n// @custom:certication This is an contrat create for the certification alyra\r\ncontract IdentityPerson is Verifier{\r\n\r\n    address defaultAdress;\r\n    enum DocumentLegal {\r\n        Passport,\r\n        Securitesocial,\r\n        permisConduire\r\n    }\r\n\r\n    enum TypeGeneration {\r\n        Child,\r\n        Adult\r\n    }\r\n\r\n    struct Parent {\r\n        address ownerAddress;\r\n        TypeGeneration categorieAge;\r\n        string name;\r\n        string lastName;\r\n        string country;\r\n        string document;\r\n        uint256 numberDocument;\r\n        bool alive;\r\n        bytes20 identifiantUnique;\r\n    }\r\n\r\n    struct Person {\r\n        bytes20 identifiantUnique;\r\n        address validateBy;\r\n        TypeGeneration categorieAge;\r\n        string name;\r\n        string lastName;\r\n        string otherName;\r\n        uint256 birthDate;\r\n        string birthCity;\r\n        string birthGender;\r\n        string birthCountry;\r\n        bool alive;\r\n        bool validate;\r\n    }\r\n\r\n    /// @notice Information of a person linked to a wallet\r\n    mapping(address => Person) private peopleWithWallet;\r\n    /// @notice Information of a parent linked to a wallet\r\n    mapping(address => Parent) private parentWithWallet;\r\n    /// @notice Event, register a person\r\n    event registerPeople(\r\n        bytes20 identifiantUnique,\r\n        address validateBy,\r\n        TypeGeneration categorieAge,\r\n        string name,\r\n        string lastName,\r\n        string otherName,\r\n        uint256 birthDate,\r\n        string birthCity,\r\n        string birthGender,\r\n        string birthCountry,\r\n        bool alive,\r\n        bool validate\r\n    );\r\n\r\n    event registerParentEvent(\r\n        address _ownerAddress,\r\n        TypeGeneration,\r\n        string name,\r\n        string lastName,\r\n        string country,\r\n        string document,\r\n        uint256 numberDocument,\r\n        bool alive,\r\n        bytes20 idPerson\r\n    );\r\n\r\n    /// @notice Function to save the identity of the owner of the wallet (the parent)\r\n    /// @param  _ownerAddress : The address of the owner of this identity\r\n    /// @param _name : Name of this identity\r\n    /// @param _lastName : lastname of this identity\r\n    /// @param _country : country of this identity \r\n    /// @param _document: type of document (Passport, Secrurity social, drive license)\r\n    /// @param  _numberDocument: number associated with the type of document\r\n    function registerParent(\r\n        address _ownerAddress,\r\n        string memory _name,\r\n        string memory _lastName,\r\n        string memory _country,\r\n        string memory _document,\r\n        uint256 _numberDocument\r\n    ) public {\r\n        require(\r\n            _ownerAddress == msg.sender,\r\n            \"L adresse specifie ne corresponds pas.\"\r\n        );\r\n        bytes20 idPerson = bytes20(\r\n            keccak256(abi.encode(msg.sender, blockhash(block.number - 1)))\r\n        );\r\n\r\n        parentWithWallet[msg.sender] = Parent(\r\n            _ownerAddress,\r\n            TypeGeneration.Adult,\r\n            _name,\r\n            _lastName,\r\n            _country,\r\n            _document,\r\n            _numberDocument,\r\n            true,\r\n            idPerson\r\n        );\r\n\r\n        emit registerParentEvent(\r\n            _ownerAddress,\r\n            TypeGeneration.Adult,\r\n            _name,\r\n            _lastName,\r\n            _country,\r\n            _document,\r\n            _numberDocument,\r\n            true,\r\n            idPerson\r\n        );\r\n    }\r\n\r\n    /// @notice Function to save the children of the owner address\r\n    /// @param _ownerAddress Address of the parent of the child\r\n    /// @param _name Name of the child \r\n    /// @param _lastName Last name of the child\r\n    /// @param _otherName other name of the child\r\n    /// @param _birthDate Birth date at the birth child\r\n    /// @param _birthCountry Country at the birth child\r\n    /// @param _birthCity City at the birth child\r\n    /// @param _birthGender Gender at birth of child \r\n    function registerPerson(\r\n        address _ownerAddress,\r\n        string memory _name,\r\n        string memory _lastName,\r\n        string memory _otherName,\r\n        uint256 _birthDate,\r\n        string memory _birthCountry,\r\n        string memory _birthCity,\r\n        string memory _birthGender\r\n    ) public {\r\n        require(\r\n            _ownerAddress == msg.sender,\r\n            \"L adresse specifie ne corresponds pas.\"\r\n        );\r\n\r\n        bytes20 idPerson = bytes20(\r\n            keccak256(abi.encode(msg.sender, blockhash(block.number - 1)))\r\n        );\r\n\r\n        peopleWithWallet[msg.sender] = Person(\r\n            idPerson,\r\n            defaultAdress,\r\n            TypeGeneration.Child,\r\n            _name,\r\n            _lastName,\r\n            _otherName,\r\n            _birthDate,\r\n            _birthCity,\r\n            _birthGender,\r\n            _birthCountry,\r\n            true,\r\n            false\r\n        );\r\n\r\n        emit registerPeople(\r\n            idPerson,\r\n            defaultAdress,\r\n            TypeGeneration.Child,\r\n            _name,\r\n            _lastName,\r\n            _otherName,\r\n            _birthDate,\r\n            _birthCity,\r\n            _birthGender,\r\n            _birthCountry,\r\n            true,\r\n            false\r\n        );\r\n\r\n    }\r\n\r\n    /// @notice Validate child by the validator (State, hospital, town hall)\r\n    /// @param peopleWallet address wallet of the person to validate\r\n    function validatePerson(address peopleWallet) onlyVerifier public {\r\n        peopleWithWallet[peopleWallet].validate = true;\r\n        peopleWithWallet[peopleWallet].validateBy = msg.sender;\r\n    }\r\n\r\n    /// @notice Get a person data by his wallet\r\n    /// @param peopleWallet address wallet of the person to get the data\r\n    function getPersonbyWallet(address peopleWallet)\r\n        private\r\n        view\r\n        returns (Person memory)\r\n    {\r\n        require(msg.sender == peopleWallet, \"Le wallet n'est pas le bon\");\r\n        return peopleWithWallet[msg.sender];\r\n    }\r\n\r\n    /// @notice Get a parent data by his wallet\r\n    /// @param parentWallet address wallet of the parent to get the data\r\n    function getParentbyWallet(address parentWallet)\r\n        private\r\n        view\r\n        returns (Parent memory)\r\n    {\r\n        require(msg.sender == parentWallet, \"Le wallet n'est pas le bon\");\r\n        return parentWithWallet[msg.sender];\r\n    }\r\n}\r\n",
  "sourcePath": "E:\\dev\\soliditytuts\\alyra\\protoProjCertif\\gitRep\\contracts\\IdentityPerson.sol",
  "compiler": {
    "name": "solc",
    "version": "0.8.14+commit.80d49f37.Emscripten.clang"
  },
  "schemaVersion": "3.4.3",
  "updatedAt": "2022-05-19T10:17:11.666Z",
  "devdoc": {
    "kind": "dev",
    "methods": {
      "addVerifier(address,string,string,string,uint8)": {
        "params": {
          "_city": ": city of this identity",
          "_country": ": country of this identity",
          "_streetAddress": ": country of this identity",
          "_typeValidateur": "type of validateur",
          "_veriferAddress": ": The address of the owner of this identity"
        }
      },
      "registerParent(address,string,string,string,string,uint256)": {
        "params": {
          "_country": ": country of this identity ",
          "_document": ": type of document (Passport, Secrurity social, drive license)",
          "_lastName": ": lastname of this identity",
          "_name": ": Name of this identity",
          "_numberDocument": ": number associated with the type of document",
          "_ownerAddress": ": The address of the owner of this identity"
        }
      },
      "registerPerson(address,string,string,string,uint256,string,string,string)": {
        "params": {
          "_birthCity": "City at the birth child",
          "_birthCountry": "Country at the birth child",
          "_birthDate": "Birth date at the birth child",
          "_birthGender": "Gender at birth of child ",
          "_lastName": "Last name of the child",
          "_name": "Name of the child ",
          "_otherName": "other name of the child",
          "_ownerAddress": "Address of the parent of the child"
        }
      },
      "validatePerson(address)": {
        "params": {
          "peopleWallet": "address wallet of the person to validate"
        }
      }
    },
    "version": 1
  },
  "userdoc": {
    "events": {
      "registerPeople(bytes20,address,uint8,string,string,string,uint256,string,string,string,bool,bool)": {
        "notice": "Event, register a person"
      }
    },
    "kind": "user",
    "methods": {
      "addVerifier(address,string,string,string,uint8)": {
        "notice": "Function to save the identity of the owner of the wallet (the parent)"
      },
      "registerParent(address,string,string,string,string,uint256)": {
        "notice": "Function to save the identity of the owner of the wallet (the parent)"
      },
      "registerPerson(address,string,string,string,uint256,string,string,string)": {
        "notice": "Function to save the children of the owner address"
      },
      "validatePerson(address)": {
        "notice": "Validate child by the validator (State, hospital, town hall)"
      }
    },
    "version": 1
  }
}