{
  "contractName": "IdentityPerson",
  "abi": [
    {
      "anonymous": false,
      "inputs": [
        {
          "indexed": false,
          "internalType": "address",
          "name": "_veriferAddress",
          "type": "address"
        },
        {
          "indexed": false,
          "internalType": "string",
          "name": "_country",
          "type": "string"
        },
        {
          "indexed": false,
          "internalType": "string",
          "name": "_city",
          "type": "string"
        },
        {
          "indexed": false,
          "internalType": "string",
          "name": "_streetAddress",
          "type": "string"
        },
        {
          "indexed": false,
          "internalType": "enum Verifier.TypeValidateur",
          "name": "_typeValidateur",
          "type": "uint8"
        }
      ],
      "name": "addVerifierEvent",
      "type": "event"
    },
    {
      "anonymous": false,
      "inputs": [
        {
          "indexed": false,
          "internalType": "address",
          "name": "_ownerAddress",
          "type": "address"
        },
        {
          "indexed": false,
          "internalType": "enum IdentityPerson.TypeGeneration",
          "name": "",
          "type": "uint8"
        },
        {
          "indexed": false,
          "internalType": "string",
          "name": "name",
          "type": "string"
        },
        {
          "indexed": false,
          "internalType": "string",
          "name": "lastName",
          "type": "string"
        },
        {
          "indexed": false,
          "internalType": "string",
          "name": "country",
          "type": "string"
        },
        {
          "indexed": false,
          "internalType": "string",
          "name": "document",
          "type": "string"
        },
        {
          "indexed": false,
          "internalType": "uint256",
          "name": "numberDocument",
          "type": "uint256"
        },
        {
          "indexed": false,
          "internalType": "uint16",
          "name": "nbChildren",
          "type": "uint16"
        },
        {
          "indexed": false,
          "internalType": "bool",
          "name": "alive",
          "type": "bool"
        },
        {
          "indexed": false,
          "internalType": "bytes20",
          "name": "idPerson",
          "type": "bytes20"
        }
      ],
      "name": "registerParentEvent",
      "type": "event"
    },
    {
      "anonymous": false,
      "inputs": [
        {
          "indexed": false,
          "internalType": "bytes20",
          "name": "idPerson",
          "type": "bytes20"
        },
        {
          "indexed": false,
          "internalType": "address",
          "name": "parentWallet",
          "type": "address"
        },
        {
          "indexed": false,
          "internalType": "enum IdentityPerson.TypeGeneration",
          "name": "categorieAge",
          "type": "uint8"
        },
        {
          "indexed": false,
          "internalType": "string",
          "name": "name",
          "type": "string"
        },
        {
          "indexed": false,
          "internalType": "string",
          "name": "lastName",
          "type": "string"
        },
        {
          "indexed": false,
          "internalType": "string",
          "name": "otherName",
          "type": "string"
        },
        {
          "indexed": false,
          "internalType": "uint256",
          "name": "birthDate",
          "type": "uint256"
        },
        {
          "indexed": false,
          "internalType": "string",
          "name": "birthCity",
          "type": "string"
        },
        {
          "indexed": false,
          "internalType": "string",
          "name": "birthGender",
          "type": "string"
        },
        {
          "indexed": false,
          "internalType": "string",
          "name": "birthCountry",
          "type": "string"
        },
        {
          "indexed": false,
          "internalType": "bool",
          "name": "alive",
          "type": "bool"
        },
        {
          "indexed": false,
          "internalType": "bool",
          "name": "validate",
          "type": "bool"
        }
      ],
      "name": "registerPeople",
      "type": "event"
    },
    {
      "inputs": [
        {
          "internalType": "address",
          "name": "_veriferAddress",
          "type": "address"
        },
        {
          "internalType": "string",
          "name": "_country",
          "type": "string"
        },
        {
          "internalType": "string",
          "name": "_city",
          "type": "string"
        },
        {
          "internalType": "string",
          "name": "_streetAddress",
          "type": "string"
        },
        {
          "internalType": "enum Verifier.TypeValidateur",
          "name": "_typeValidateur",
          "type": "uint8"
        }
      ],
      "name": "addVerifier",
      "outputs": [],
      "stateMutability": "nonpayable",
      "type": "function"
    },
    {
      "inputs": [],
      "name": "getMapVerifier",
      "outputs": [
        {
          "components": [
            {
              "internalType": "address",
              "name": "veriferAddress",
              "type": "address"
            },
            {
              "internalType": "string",
              "name": "country",
              "type": "string"
            },
            {
              "internalType": "string",
              "name": "city",
              "type": "string"
            },
            {
              "internalType": "string",
              "name": "streetAddress",
              "type": "string"
            },
            {
              "internalType": "enum Verifier.TypeValidateur",
              "name": "typeValidateur",
              "type": "uint8"
            },
            {
              "internalType": "bool",
              "name": "active",
              "type": "bool"
            }
          ],
          "internalType": "struct Verifier.verifier",
          "name": "",
          "type": "tuple"
        }
      ],
      "stateMutability": "view",
      "type": "function",
      "constant": true
    },
    {
      "inputs": [
        {
          "internalType": "address",
          "name": "_ownerAddress",
          "type": "address"
        },
        {
          "internalType": "string",
          "name": "_name",
          "type": "string"
        },
        {
          "internalType": "string",
          "name": "_lastName",
          "type": "string"
        },
        {
          "internalType": "string",
          "name": "_country",
          "type": "string"
        },
        {
          "internalType": "string",
          "name": "_document",
          "type": "string"
        },
        {
          "internalType": "uint256",
          "name": "_numberDocument",
          "type": "uint256"
        }
      ],
      "name": "registerParent",
      "outputs": [],
      "stateMutability": "nonpayable",
      "type": "function"
    },
    {
      "inputs": [
        {
          "internalType": "address",
          "name": "_ownerAddress",
          "type": "address"
        },
        {
          "internalType": "string",
          "name": "_name",
          "type": "string"
        },
        {
          "internalType": "string",
          "name": "_lastName",
          "type": "string"
        },
        {
          "internalType": "string",
          "name": "_otherName",
          "type": "string"
        },
        {
          "internalType": "uint256",
          "name": "_birthDate",
          "type": "uint256"
        },
        {
          "internalType": "string",
          "name": "_birthCountry",
          "type": "string"
        },
        {
          "internalType": "string",
          "name": "_birthCity",
          "type": "string"
        },
        {
          "internalType": "string",
          "name": "_birthGender",
          "type": "string"
        }
      ],
      "name": "registerPerson",
      "outputs": [
        {
          "internalType": "bytes20",
          "name": "ID",
          "type": "bytes20"
        }
      ],
      "stateMutability": "nonpayable",
      "type": "function"
    },
    {
      "inputs": [
        {
          "internalType": "bytes20",
          "name": "identifiantUnique",
          "type": "bytes20"
        },
        {
          "internalType": "string",
          "name": "_name",
          "type": "string"
        },
        {
          "internalType": "string",
          "name": "_lastName",
          "type": "string"
        },
        {
          "internalType": "string",
          "name": "_otherName",
          "type": "string"
        },
        {
          "internalType": "string",
          "name": "_birthGender",
          "type": "string"
        },
        {
          "internalType": "uint256",
          "name": "_birthDate",
          "type": "uint256"
        }
      ],
      "name": "updatePerson",
      "outputs": [],
      "stateMutability": "nonpayable",
      "type": "function"
    },
    {
      "inputs": [
        {
          "internalType": "bytes20",
          "name": "identifiantUnique",
          "type": "bytes20"
        }
      ],
      "name": "validatePerson",
      "outputs": [],
      "stateMutability": "nonpayable",
      "type": "function"
    },
    {
      "inputs": [
        {
          "internalType": "bytes20",
          "name": "identifiantUnique",
          "type": "bytes20"
        }
      ],
      "name": "getPersonByID",
      "outputs": [
        {
          "components": [
            {
              "internalType": "address",
              "name": "validateBy",
              "type": "address"
            },
            {
              "internalType": "address",
              "name": "parentWallet",
              "type": "address"
            },
            {
              "internalType": "enum IdentityPerson.TypeGeneration",
              "name": "categorieAge",
              "type": "uint8"
            },
            {
              "internalType": "string",
              "name": "name",
              "type": "string"
            },
            {
              "internalType": "string",
              "name": "lastName",
              "type": "string"
            },
            {
              "internalType": "string",
              "name": "otherName",
              "type": "string"
            },
            {
              "internalType": "uint256",
              "name": "birthDate",
              "type": "uint256"
            },
            {
              "internalType": "string",
              "name": "birthCity",
              "type": "string"
            },
            {
              "internalType": "string",
              "name": "birthGender",
              "type": "string"
            },
            {
              "internalType": "string",
              "name": "birthCountry",
              "type": "string"
            },
            {
              "internalType": "bool",
              "name": "alive",
              "type": "bool"
            },
            {
              "internalType": "bool",
              "name": "validate",
              "type": "bool"
            }
          ],
          "internalType": "struct IdentityPerson.Person",
          "name": "",
          "type": "tuple"
        }
      ],
      "stateMutability": "view",
      "type": "function",
      "constant": true
    },
    {
      "inputs": [],
      "name": "getParentbyWallet",
      "outputs": [
        {
          "components": [
            {
              "internalType": "address",
              "name": "ownerAddress",
              "type": "address"
            },
            {
              "internalType": "enum IdentityPerson.TypeGeneration",
              "name": "categorieAge",
              "type": "uint8"
            },
            {
              "internalType": "string",
              "name": "name",
              "type": "string"
            },
            {
              "internalType": "string",
              "name": "lastName",
              "type": "string"
            },
            {
              "internalType": "string",
              "name": "country",
              "type": "string"
            },
            {
              "internalType": "string",
              "name": "document",
              "type": "string"
            },
            {
              "internalType": "uint256",
              "name": "numberDocument",
              "type": "uint256"
            },
            {
              "internalType": "uint16",
              "name": "nbChildren",
              "type": "uint16"
            },
            {
              "internalType": "bool",
              "name": "alive",
              "type": "bool"
            },
            {
              "internalType": "bytes20",
              "name": "identifiantUnique",
              "type": "bytes20"
            }
          ],
          "internalType": "struct IdentityPerson.Parent",
          "name": "",
          "type": "tuple"
        }
      ],
      "stateMutability": "view",
      "type": "function",
      "constant": true
    }
  ],
  "bytecode": "0x60806040523480156200001157600080fd5b506040518060c001604052803373ffffffffffffffffffffffffffffffffffffffff1681526020016040518060400160405280600b81526020017f40736f6c6964794c616e6400000000000000000000000000000000000000000081525081526020016040518060400160405280600881526020017f4074727566666c6500000000000000000000000000000000000000000000000081525081526020016040518060400160405280600f81526020017f40727565206465206c61206a6f69650000000000000000000000000000000000815250815260200160016002811115620001015762000100620002fb565b5b8152602001600115158152506000803373ffffffffffffffffffffffffffffffffffffffff1673ffffffffffffffffffffffffffffffffffffffff16815260200190815260200160002060008201518160000160006101000a81548173ffffffffffffffffffffffffffffffffffffffff021916908373ffffffffffffffffffffffffffffffffffffffff1602179055506020820151816001019080519060200190620001b09291906200024b565b506040820151816002019080519060200190620001cf9291906200024b565b506060820151816003019080519060200190620001ee9291906200024b565b5060808201518160040160006101000a81548160ff021916908360028111156200021d576200021c620002fb565b5b021790555060a08201518160040160016101000a81548160ff0219169083151502179055509050506200038e565b828054620002599062000359565b90600052602060002090601f0160209004810192826200027d5760008555620002c9565b82601f106200029857805160ff1916838001178555620002c9565b82800160010185558215620002c9579182015b82811115620002c8578251825591602001919060010190620002ab565b5b509050620002d89190620002dc565b5090565b5b80821115620002f7576000816000905550600101620002dd565b5090565b7f4e487b7100000000000000000000000000000000000000000000000000000000600052602160045260246000fd5b7f4e487b7100000000000000000000000000000000000000000000000000000000600052602260045260246000fd5b600060028204905060018216806200037257607f821691505b6020821081036200038857620003876200032a565b5b50919050565b61363a806200039e6000396000f3fe608060405234801561001057600080fd5b50600436106100a5576000357c01000000000000000000000000000000000000000000000000000000009004806365b79a111161007857806365b79a11146101425780637521911d146101605780638bba48471461017e5780638c026e5e1461019a576100a5565b806317b7e0aa146100aa5780631be84cb8146100c6578063205c8493146100e257806345430c1e14610112575b600080fd5b6100c460048036038101906100bf91906123ba565b6101b6565b005b6100e060048036038101906100db9190612517565b610571565b005b6100fc60048036038101906100f79190612614565b6107e5565b6040516101099190612781565b60405180910390f35b61012c6004803603810190610127919061279c565b610e54565b6040516101399190612a28565b60405180910390f35b61014a611333565b6040516101579190612b65565b60405180910390f35b6101686116ea565b6040516101759190612c66565b60405180910390f35b6101986004803603810190610193919061279c565b6119a2565b005b6101b460048036038101906101af9190612c88565b611b71565b005b600115156000803373ffffffffffffffffffffffffffffffffffffffff1673ffffffffffffffffffffffffffffffffffffffff16815260200190815260200160002060040160019054906101000a900460ff1615151461024b576040517f08c379a000000000000000000000000000000000000000000000000000000000815260040161024290612e08565b60405180910390fd5b6000600281111561025f5761025e6127d8565b5b816002811115610272576102716127d8565b5b14806102a257506001600281111561028d5761028c6127d8565b5b8160028111156102a05761029f6127d8565b5b145b806102d057506002808111156102bb576102ba6127d8565b5b8160028111156102ce576102cd6127d8565b5b145b61030f576040517f08c379a000000000000000000000000000000000000000000000000000000000815260040161030690612e74565b60405180910390fd5b600015156000808773ffffffffffffffffffffffffffffffffffffffff1673ffffffffffffffffffffffffffffffffffffffff16815260200190815260200160002060040160019054906101000a900460ff161515146103a4576040517f08c379a000000000000000000000000000000000000000000000000000000000815260040161039b90612ee0565b60405180910390fd5b6040518060c001604052808673ffffffffffffffffffffffffffffffffffffffff1681526020018581526020018481526020018381526020018260028111156103f0576103ef6127d8565b5b8152602001600115158152506000808773ffffffffffffffffffffffffffffffffffffffff1673ffffffffffffffffffffffffffffffffffffffff16815260200190815260200160002060008201518160000160006101000a81548173ffffffffffffffffffffffffffffffffffffffff021916908373ffffffffffffffffffffffffffffffffffffffff160217905550602082015181600101908051906020019061049d929190611fa7565b5060408201518160020190805190602001906104ba929190611fa7565b5060608201518160030190805190602001906104d7929190611fa7565b5060808201518160040160006101000a81548160ff02191690836002811115610503576105026127d8565b5b021790555060a08201518160040160016101000a81548160ff0219169083151502179055509050507f82328b7a065afe580913d6ae3625eba484c11a9a8c90ebe90b98cc18d676b5178585858585604051610562959493929190612f57565b60405180910390a15050505050565b3373ffffffffffffffffffffffffffffffffffffffff1660046000886bffffffffffffffffffffffff19166bffffffffffffffffffffffff1916815260200190815260200160002060010160009054906101000a900473ffffffffffffffffffffffffffffffffffffffff1673ffffffffffffffffffffffffffffffffffffffff1614610633576040517f08c379a000000000000000000000000000000000000000000000000000000000815260040161062a90613031565b60405180910390fd5b8460046000886bffffffffffffffffffffffff19166bffffffffffffffffffffffff19168152602001908152602001600020600201908051906020019061067b929190611fa7565b508360046000886bffffffffffffffffffffffff19166bffffffffffffffffffffffff1916815260200190815260200160002060030190805190602001906106c4929190611fa7565b508260046000886bffffffffffffffffffffffff19166bffffffffffffffffffffffff19168152602001908152602001600020600401908051906020019061070d929190611fa7565b508160046000886bffffffffffffffffffffffff19166bffffffffffffffffffffffff191681526020019081526020016000206007019080519060200190610756929190611fa7565b508060046000886bffffffffffffffffffffffff19166bffffffffffffffffffffffff1916815260200190815260200160002060050181905550600060046000886bffffffffffffffffffffffff19166bffffffffffffffffffffffff1916815260200190815260200160002060090160016101000a81548160ff021916908315150217905550505050505050565b60008015156000803373ffffffffffffffffffffffffffffffffffffffff1673ffffffffffffffffffffffffffffffffffffffff16815260200190815260200160002060040160019054906101000a900460ff1615151461087b576040517f08c379a0000000000000000000000000000000000000000000000000000000008152600401610872906130c3565b60405180910390fd5b8873ffffffffffffffffffffffffffffffffffffffff16600260008b73ffffffffffffffffffffffffffffffffffffffff1673ffffffffffffffffffffffffffffffffffffffff16815260200190815260200160002060000160009054906101000a900473ffffffffffffffffffffffffffffffffffffffff1673ffffffffffffffffffffffffffffffffffffffff161461094b576040517f08c379a00000000000000000000000000000000000000000000000000000000081526004016109429061312f565b60405180910390fd5b600a600260008b73ffffffffffffffffffffffffffffffffffffffff1673ffffffffffffffffffffffffffffffffffffffff16815260200190815260200160002060060160009054906101000a900461ffff1661ffff16106109e2576040517f08c379a00000000000000000000000000000000000000000000000000000000081526004016109d9906131c1565b60405180910390fd5b6000336001436109f29190613210565b40604051602001610a0492919061325d565b604051602081830303815290604052805190602001209050604051806101800160405280600160009054906101000a900473ffffffffffffffffffffffffffffffffffffffff1673ffffffffffffffffffffffffffffffffffffffff1681526020013373ffffffffffffffffffffffffffffffffffffffff16815260200160006001811115610a9657610a956127d8565b5b81526020018a81526020018981526020018881526020018781526020018581526020018481526020018681526020016001151581526020016000151581525060046000836bffffffffffffffffffffffff19166bffffffffffffffffffffffff1916815260200190815260200160002060008201518160000160006101000a81548173ffffffffffffffffffffffffffffffffffffffff021916908373ffffffffffffffffffffffffffffffffffffffff16021790555060208201518160010160006101000a81548173ffffffffffffffffffffffffffffffffffffffff021916908373ffffffffffffffffffffffffffffffffffffffff16021790555060408201518160010160146101000a81548160ff02191690836001811115610bbf57610bbe6127d8565b5b02179055506060820151816002019080519060200190610be0929190611fa7565b506080820151816003019080519060200190610bfd929190611fa7565b5060a0820151816004019080519060200190610c1a929190611fa7565b5060c0820151816005015560e0820151816006019080519060200190610c41929190611fa7565b50610100820151816007019080519060200190610c5f929190611fa7565b50610120820151816008019080519060200190610c7d929190611fa7565b506101408201518160090160006101000a81548160ff0219169083151502179055506101608201518160090160016101000a81548160ff02191690831515021790555090505080600360003373ffffffffffffffffffffffffffffffffffffffff1673ffffffffffffffffffffffffffffffffffffffff16815260200190815260200160002060006101000a81548173ffffffffffffffffffffffffffffffffffffffff02191690836c01000000000000000000000000900402179055506001600260008c73ffffffffffffffffffffffffffffffffffffffff1673ffffffffffffffffffffffffffffffffffffffff16815260200190815260200160002060060160009054906101000a900461ffff16610d989190613286565b600260008c73ffffffffffffffffffffffffffffffffffffffff1673ffffffffffffffffffffffffffffffffffffffff16815260200190815260200160002060060160006101000a81548161ffff021916908361ffff1602179055507f554abf8145a91592823ef63d69121e1d4090cf243c829e9dfd5b2b4273ba9c30813360008c8c8c8c8b8b8e60016000604051610e3c9c9b9a999897969594939291906132eb565b60405180910390a18091505098975050505050505050565b610e5c61202d565b60046000836bffffffffffffffffffffffff19166bffffffffffffffffffffffff19168152602001908152602001600020604051806101800160405290816000820160009054906101000a900473ffffffffffffffffffffffffffffffffffffffff1673ffffffffffffffffffffffffffffffffffffffff1673ffffffffffffffffffffffffffffffffffffffff1681526020016001820160009054906101000a900473ffffffffffffffffffffffffffffffffffffffff1673ffffffffffffffffffffffffffffffffffffffff1673ffffffffffffffffffffffffffffffffffffffff1681526020016001820160149054906101000a900460ff166001811115610f6a57610f696127d8565b5b6001811115610f7c57610f7b6127d8565b5b8152602001600282018054610f90906133fe565b80601f0160208091040260200160405190810160405280929190818152602001828054610fbc906133fe565b80156110095780601f10610fde57610100808354040283529160200191611009565b820191906000526020600020905b815481529060010190602001808311610fec57829003601f168201915b50505050508152602001600382018054611022906133fe565b80601f016020809104026020016040519081016040528092919081815260200182805461104e906133fe565b801561109b5780601f106110705761010080835404028352916020019161109b565b820191906000526020600020905b81548152906001019060200180831161107e57829003601f168201915b505050505081526020016004820180546110b4906133fe565b80601f01602080910402602001604051908101604052809291908181526020018280546110e0906133fe565b801561112d5780601f106111025761010080835404028352916020019161112d565b820191906000526020600020905b81548152906001019060200180831161111057829003601f168201915b5050505050815260200160058201548152602001600682018054611150906133fe565b80601f016020809104026020016040519081016040528092919081815260200182805461117c906133fe565b80156111c95780601f1061119e576101008083540402835291602001916111c9565b820191906000526020600020905b8154815290600101906020018083116111ac57829003601f168201915b505050505081526020016007820180546111e2906133fe565b80601f016020809104026020016040519081016040528092919081815260200182805461120e906133fe565b801561125b5780601f106112305761010080835404028352916020019161125b565b820191906000526020600020905b81548152906001019060200180831161123e57829003601f168201915b50505050508152602001600882018054611274906133fe565b80601f01602080910402602001604051908101604052809291908181526020018280546112a0906133fe565b80156112ed5780601f106112c2576101008083540402835291602001916112ed565b820191906000526020600020905b8154815290600101906020018083116112d057829003601f168201915b505050505081526020016009820160009054906101000a900460ff161515151581526020016009820160019054906101000a900460ff1615151515815250509050919050565b61133b6120d0565b600260003373ffffffffffffffffffffffffffffffffffffffff1673ffffffffffffffffffffffffffffffffffffffff168152602001908152602001600020604051806101400160405290816000820160009054906101000a900473ffffffffffffffffffffffffffffffffffffffff1673ffffffffffffffffffffffffffffffffffffffff1673ffffffffffffffffffffffffffffffffffffffff1681526020016000820160149054906101000a900460ff166001811115611401576114006127d8565b5b6001811115611413576114126127d8565b5b8152602001600182018054611427906133fe565b80601f0160208091040260200160405190810160405280929190818152602001828054611453906133fe565b80156114a05780601f10611475576101008083540402835291602001916114a0565b820191906000526020600020905b81548152906001019060200180831161148357829003601f168201915b505050505081526020016002820180546114b9906133fe565b80601f01602080910402602001604051908101604052809291908181526020018280546114e5906133fe565b80156115325780601f1061150757610100808354040283529160200191611532565b820191906000526020600020905b81548152906001019060200180831161151557829003601f168201915b5050505050815260200160038201805461154b906133fe565b80601f0160208091040260200160405190810160405280929190818152602001828054611577906133fe565b80156115c45780601f10611599576101008083540402835291602001916115c4565b820191906000526020600020905b8154815290600101906020018083116115a757829003601f168201915b505050505081526020016004820180546115dd906133fe565b80601f0160208091040260200160405190810160405280929190818152602001828054611609906133fe565b80156116565780601f1061162b57610100808354040283529160200191611656565b820191906000526020600020905b81548152906001019060200180831161163957829003601f168201915b50505050508152602001600582015481526020016006820160009054906101000a900461ffff1661ffff1661ffff1681526020016006820160029054906101000a900460ff161515151581526020016006820160039054906101000a90046c01000000000000000000000000026bffffffffffffffffffffffff19166bffffffffffffffffffffffff191681525050905090565b6116f2612160565b6000803373ffffffffffffffffffffffffffffffffffffffff1673ffffffffffffffffffffffffffffffffffffffff1681526020019081526020016000206040518060c00160405290816000820160009054906101000a900473ffffffffffffffffffffffffffffffffffffffff1673ffffffffffffffffffffffffffffffffffffffff1673ffffffffffffffffffffffffffffffffffffffff1681526020016001820180546117a1906133fe565b80601f01602080910402602001604051908101604052809291908181526020018280546117cd906133fe565b801561181a5780601f106117ef5761010080835404028352916020019161181a565b820191906000526020600020905b8154815290600101906020018083116117fd57829003601f168201915b50505050508152602001600282018054611833906133fe565b80601f016020809104026020016040519081016040528092919081815260200182805461185f906133fe565b80156118ac5780601f10611881576101008083540402835291602001916118ac565b820191906000526020600020905b81548152906001019060200180831161188f57829003601f168201915b505050505081526020016003820180546118c5906133fe565b80601f01602080910402602001604051908101604052809291908181526020018280546118f1906133fe565b801561193e5780601f106119135761010080835404028352916020019161193e565b820191906000526020600020905b81548152906001019060200180831161192157829003601f168201915b505050505081526020016004820160009054906101000a900460ff16600281111561196c5761196b6127d8565b5b600281111561197e5761197d6127d8565b5b81526020016004820160019054906101000a900460ff161515151581525050905090565b600115156000803373ffffffffffffffffffffffffffffffffffffffff1673ffffffffffffffffffffffffffffffffffffffff16815260200190815260200160002060040160019054906101000a900460ff16151514611a37576040517f08c379a0000000000000000000000000000000000000000000000000000000008152600401611a2e90612e08565b60405180910390fd5b600060046000836bffffffffffffffffffffffff19166bffffffffffffffffffffffff191681526020019081526020016000206005015403611aae576040517f08c379a0000000000000000000000000000000000000000000000000000000008152600401611aa59061347b565b60405180910390fd5b600160046000836bffffffffffffffffffffffff19166bffffffffffffffffffffffff1916815260200190815260200160002060090160016101000a81548160ff0219169083151502179055503360046000836bffffffffffffffffffffffff19166bffffffffffffffffffffffff1916815260200190815260200160002060000160006101000a81548173ffffffffffffffffffffffffffffffffffffffff021916908373ffffffffffffffffffffffffffffffffffffffff16021790555050565b600015156000803373ffffffffffffffffffffffffffffffffffffffff1673ffffffffffffffffffffffffffffffffffffffff16815260200190815260200160002060040160019054906101000a900460ff16151514611c06576040517f08c379a0000000000000000000000000000000000000000000000000000000008152600401611bfd906130c3565b60405180910390fd5b8573ffffffffffffffffffffffffffffffffffffffff16600260008873ffffffffffffffffffffffffffffffffffffffff1673ffffffffffffffffffffffffffffffffffffffff16815260200190815260200160002060000160009054906101000a900473ffffffffffffffffffffffffffffffffffffffff1673ffffffffffffffffffffffffffffffffffffffff1603611cd6576040517f08c379a0000000000000000000000000000000000000000000000000000000008152600401611ccd906134e7565b60405180910390fd5b600033600143611ce69190613210565b40604051602001611cf892919061325d565b6040516020818303038152906040528051906020012090506040518061014001604052808873ffffffffffffffffffffffffffffffffffffffff168152602001600180811115611d4b57611d4a6127d8565b5b8152602001878152602001868152602001858152602001848152602001838152602001600061ffff168152602001600115158152602001826bffffffffffffffffffffffff1916815250600260003373ffffffffffffffffffffffffffffffffffffffff1673ffffffffffffffffffffffffffffffffffffffff16815260200190815260200160002060008201518160000160006101000a81548173ffffffffffffffffffffffffffffffffffffffff021916908373ffffffffffffffffffffffffffffffffffffffff16021790555060208201518160000160146101000a81548160ff02191690836001811115611e4657611e456127d8565b5b02179055506040820151816001019080519060200190611e67929190611fa7565b506060820151816002019080519060200190611e84929190611fa7565b506080820151816003019080519060200190611ea1929190611fa7565b5060a0820151816004019080519060200190611ebe929190611fa7565b5060c0820151816005015560e08201518160060160006101000a81548161ffff021916908361ffff1602179055506101008201518160060160026101000a81548160ff0219169083151502179055506101208201518160060160036101000a81548173ffffffffffffffffffffffffffffffffffffffff02191690836c01000000000000000000000000900402179055509050507f45a0f0ea575c6dcc53c158b7ab522d22062a7623a080fed0de7b44d46ce30aae8760018888888888600060018a604051611f969a9998979695949392919061354c565b60405180910390a150505050505050565b828054611fb3906133fe565b90600052602060002090601f016020900481019282611fd5576000855561201c565b82601f10611fee57805160ff191683800117855561201c565b8280016001018555821561201c579182015b8281111561201b578251825591602001919060010190612000565b5b50905061202991906121c0565b5090565b604051806101800160405280600073ffffffffffffffffffffffffffffffffffffffff168152602001600073ffffffffffffffffffffffffffffffffffffffff16815260200160006001811115612087576120866127d8565b5b8152602001606081526020016060815260200160608152602001600081526020016060815260200160608152602001606081526020016000151581526020016000151581525090565b604051806101400160405280600073ffffffffffffffffffffffffffffffffffffffff1681526020016000600181111561210d5761210c6127d8565b5b81526020016060815260200160608152602001606081526020016060815260200160008152602001600061ffff16815260200160001515815260200160006bffffffffffffffffffffffff191681525090565b6040518060c00160405280600073ffffffffffffffffffffffffffffffffffffffff168152602001606081526020016060815260200160608152602001600060028111156121b1576121b06127d8565b5b81526020016000151581525090565b5b808211156121d95760008160009055506001016121c1565b5090565b6000604051905090565b600080fd5b600080fd5b600073ffffffffffffffffffffffffffffffffffffffff82169050919050565b600061221c826121f1565b9050919050565b61222c81612211565b811461223757600080fd5b50565b60008135905061224981612223565b92915050565b600080fd5b600080fd5b6000601f19601f8301169050919050565b7f4e487b7100000000000000000000000000000000000000000000000000000000600052604160045260246000fd5b6122a282612259565b810181811067ffffffffffffffff821117156122c1576122c061226a565b5b80604052505050565b60006122d46121dd565b90506122e08282612299565b919050565b600067ffffffffffffffff821115612300576122ff61226a565b5b61230982612259565b9050602081019050919050565b82818337600083830152505050565b6000612338612333846122e5565b6122ca565b90508281526020810184848401111561235457612353612254565b5b61235f848285612316565b509392505050565b600082601f83011261237c5761237b61224f565b5b813561238c848260208601612325565b91505092915050565b600381106123a257600080fd5b50565b6000813590506123b481612395565b92915050565b600080600080600060a086880312156123d6576123d56121e7565b5b60006123e48882890161223a565b955050602086013567ffffffffffffffff811115612405576124046121ec565b5b61241188828901612367565b945050604086013567ffffffffffffffff811115612432576124316121ec565b5b61243e88828901612367565b935050606086013567ffffffffffffffff81111561245f5761245e6121ec565b5b61246b88828901612367565b925050608061247c888289016123a5565b9150509295509295909350565b60007fffffffffffffffffffffffffffffffffffffffff00000000000000000000000082169050919050565b6124be81612489565b81146124c957600080fd5b50565b6000813590506124db816124b5565b92915050565b6000819050919050565b6124f4816124e1565b81146124ff57600080fd5b50565b600081359050612511816124eb565b92915050565b60008060008060008060c08789031215612534576125336121e7565b5b600061254289828a016124cc565b965050602087013567ffffffffffffffff811115612563576125626121ec565b5b61256f89828a01612367565b955050604087013567ffffffffffffffff8111156125905761258f6121ec565b5b61259c89828a01612367565b945050606087013567ffffffffffffffff8111156125bd576125bc6121ec565b5b6125c989828a01612367565b935050608087013567ffffffffffffffff8111156125ea576125e96121ec565b5b6125f689828a01612367565b92505060a061260789828a01612502565b9150509295509295509295565b600080600080600080600080610100898b031215612635576126346121e7565b5b60006126438b828c0161223a565b985050602089013567ffffffffffffffff811115612664576126636121ec565b5b6126708b828c01612367565b975050604089013567ffffffffffffffff811115612691576126906121ec565b5b61269d8b828c01612367565b965050606089013567ffffffffffffffff8111156126be576126bd6121ec565b5b6126ca8b828c01612367565b95505060806126db8b828c01612502565b94505060a089013567ffffffffffffffff8111156126fc576126fb6121ec565b5b6127088b828c01612367565b93505060c089013567ffffffffffffffff811115612729576127286121ec565b5b6127358b828c01612367565b92505060e089013567ffffffffffffffff811115612756576127556121ec565b5b6127628b828c01612367565b9150509295985092959890939650565b61277b81612489565b82525050565b60006020820190506127966000830184612772565b92915050565b6000602082840312156127b2576127b16121e7565b5b60006127c0848285016124cc565b91505092915050565b6127d281612211565b82525050565b7f4e487b7100000000000000000000000000000000000000000000000000000000600052602160045260246000fd5b60028110612818576128176127d8565b5b50565b600081905061282982612807565b919050565b60006128398261281b565b9050919050565b6128498161282e565b82525050565b600081519050919050565b600082825260208201905092915050565b60005b8381101561288957808201518184015260208101905061286e565b83811115612898576000848401525b50505050565b60006128a98261284f565b6128b3818561285a565b93506128c381856020860161286b565b6128cc81612259565b840191505092915050565b6128e0816124e1565b82525050565b60008115159050919050565b6128fb816128e6565b82525050565b60006101808301600083015161291a60008601826127c9565b50602083015161292d60208601826127c9565b5060408301516129406040860182612840565b5060608301518482036060860152612958828261289e565b91505060808301518482036080860152612972828261289e565b91505060a083015184820360a086015261298c828261289e565b91505060c08301516129a160c08601826128d7565b5060e083015184820360e08601526129b9828261289e565b9150506101008301518482036101008601526129d5828261289e565b9150506101208301518482036101208601526129f1828261289e565b915050610140830151612a086101408601826128f2565b50610160830151612a1d6101608601826128f2565b508091505092915050565b60006020820190508181036000830152612a428184612901565b905092915050565b600061ffff82169050919050565b612a6181612a4a565b82525050565b612a7081612489565b82525050565b600061014083016000830151612a8f60008601826127c9565b506020830151612aa26020860182612840565b5060408301518482036040860152612aba828261289e565b91505060608301518482036060860152612ad4828261289e565b91505060808301518482036080860152612aee828261289e565b91505060a083015184820360a0860152612b08828261289e565b91505060c0830151612b1d60c08601826128d7565b5060e0830151612b3060e0860182612a58565b50610100830151612b456101008601826128f2565b50610120830151612b5a610120860182612a67565b508091505092915050565b60006020820190508181036000830152612b7f8184612a76565b905092915050565b60038110612b9857612b976127d8565b5b50565b6000819050612ba982612b87565b919050565b6000612bb982612b9b565b9050919050565b612bc981612bae565b82525050565b600060c083016000830151612be760008601826127c9565b5060208301518482036020860152612bff828261289e565b91505060408301518482036040860152612c19828261289e565b91505060608301518482036060860152612c33828261289e565b9150506080830151612c486080860182612bc0565b5060a0830151612c5b60a08601826128f2565b508091505092915050565b60006020820190508181036000830152612c808184612bcf565b905092915050565b60008060008060008060c08789031215612ca557612ca46121e7565b5b6000612cb389828a0161223a565b965050602087013567ffffffffffffffff811115612cd457612cd36121ec565b5b612ce089828a01612367565b955050604087013567ffffffffffffffff811115612d0157612d006121ec565b5b612d0d89828a01612367565b945050606087013567ffffffffffffffff811115612d2e57612d2d6121ec565b5b612d3a89828a01612367565b935050608087013567ffffffffffffffff811115612d5b57612d5a6121ec565b5b612d6789828a01612367565b92505060a0612d7889828a01612502565b9150509295509295509295565b600082825260208201905092915050565b7f4f6e6c792076657269666965722063616e20657865637574652074686973206660008201527f756e6374696f6e00000000000000000000000000000000000000000000000000602082015250565b6000612df2602783612d85565b9150612dfd82612d96565b604082019050919050565b60006020820190508181036000830152612e2181612de5565b9050919050565b7f57726f6e672074797065206f662076616c696461746f72000000000000000000600082015250565b6000612e5e601783612d85565b9150612e6982612e28565b602082019050919050565b60006020820190508181036000830152612e8d81612e51565b9050919050565b7f416c726561647920657869737400000000000000000000000000000000000000600082015250565b6000612eca600d83612d85565b9150612ed582612e94565b602082019050919050565b60006020820190508181036000830152612ef981612ebd565b9050919050565b612f0981612211565b82525050565b6000612f1a8261284f565b612f248185612d85565b9350612f3481856020860161286b565b612f3d81612259565b840191505092915050565b612f5181612bae565b82525050565b600060a082019050612f6c6000830188612f00565b8181036020830152612f7e8187612f0f565b90508181036040830152612f928186612f0f565b90508181036060830152612fa68185612f0f565b9050612fb56080830184612f48565b9695505050505050565b7f596f752063616e206f6e6c792075706461746520796f7572206368696c64206960008201527f6e666f726d6174696f6e2e000000000000000000000000000000000000000000602082015250565b600061301b602b83612d85565b915061302682612fbf565b604082019050919050565b6000602082019050818103600083015261304a8161300e565b9050919050565b7f4f6e6c79206e6f742076657269666965722063616e207265676973746572206960008201527f6e666f726d6174696f6e732e0000000000000000000000000000000000000000602082015250565b60006130ad602c83612d85565b91506130b882613051565b604082019050919050565b600060208201905081810360008301526130dc816130a0565b9050919050565b7f4d697373696e6720696e666f726d6174696f6e206f6e20706172656e742e0000600082015250565b6000613119601e83612d85565b9150613124826130e3565b602082019050919050565b600060208201905081810360008301526131488161310c565b9050919050565b7f546865206c696d6974206f6620726567697374726174696f6e2069732031302060008201527f6368696c64000000000000000000000000000000000000000000000000000000602082015250565b60006131ab602583612d85565b91506131b68261314f565b604082019050919050565b600060208201905081810360008301526131da8161319e565b9050919050565b7f4e487b7100000000000000000000000000000000000000000000000000000000600052601160045260246000fd5b600061321b826124e1565b9150613226836124e1565b925082821015613239576132386131e1565b5b828203905092915050565b6000819050919050565b61325781613244565b82525050565b60006040820190506132726000830185612f00565b61327f602083018461324e565b9392505050565b600061329182612a4a565b915061329c83612a4a565b92508261ffff038211156132b3576132b26131e1565b5b828201905092915050565b6132c78161282e565b82525050565b6132d6816124e1565b82525050565b6132e5816128e6565b82525050565b600061018082019050613301600083018f612772565b61330e602083018e612f00565b61331b604083018d6132be565b818103606083015261332d818c612f0f565b90508181036080830152613341818b612f0f565b905081810360a0830152613355818a612f0f565b905061336460c08301896132cd565b81810360e08301526133768188612f0f565b905081810361010083015261338b8187612f0f565b90508181036101208301526133a08186612f0f565b90506133b06101408301856132dc565b6133be6101608301846132dc565b9d9c50505050505050505050505050565b7f4e487b7100000000000000000000000000000000000000000000000000000000600052602260045260246000fd5b6000600282049050600182168061341657607f821691505b602082108103613429576134286133cf565b5b50919050565b7f5468697320706572736f6e20646f65736e277420657869737400000000000000600082015250565b6000613465601983612d85565b91506134708261342f565b602082019050919050565b6000602082019050818103600083015261349481613458565b9050919050565b7f54686520706172656e7420616c72656164792065786973740000000000000000600082015250565b60006134d1601883612d85565b91506134dc8261349b565b602082019050919050565b60006020820190508181036000830152613500816134c4565b9050919050565b6000819050919050565b6000819050919050565b600061353661353161352c84613507565b613511565b612a4a565b9050919050565b6135468161351b565b82525050565b600061014082019050613562600083018d612f00565b61356f602083018c6132be565b8181036040830152613581818b612f0f565b90508181036060830152613595818a612f0f565b905081810360808301526135a98189612f0f565b905081810360a08301526135bd8188612f0f565b90506135cc60c08301876132cd565b6135d960e083018661353d565b6135e76101008301856132dc565b6135f5610120830184612772565b9b9a505050505050505050505056fea264697066735822122019ed4917ab1de372367c1193ef60b47032eccc293f6ceaf1fd4519cee1dc54db64736f6c634300080e0033",
  "immutableReferences": {},
  "source": "// SPDX-License-Identifier: MIT\r\npragma solidity 0.8.14;\r\n\r\nimport \"./Verifier.sol\";\r\n\r\n// @title Contract for the identity of an human\r\n// @author Pierrick Hellequin\r\n// @notice This contract\r\n// @custom:certication This is an contrat create for the certification alyra\r\ncontract IdentityPerson is Verifier {\r\n    address defaultAdress;\r\n    enum DocumentLegal {\r\n        Passport,\r\n        Securitesocial,\r\n        permisConduire\r\n    }\r\n\r\n    enum TypeGeneration {\r\n        Child,\r\n        Adult\r\n    }\r\n\r\n    struct Parent {\r\n        address ownerAddress;\r\n        TypeGeneration categorieAge;\r\n        string name;\r\n        string lastName;\r\n        string country;\r\n        string document;\r\n        uint256 numberDocument;\r\n        uint16 nbChildren;\r\n        bool alive;\r\n        bytes20 identifiantUnique;\r\n    }\r\n\r\n    struct Person {\r\n        address validateBy;\r\n        address parentWallet;\r\n        TypeGeneration categorieAge;\r\n        string name;\r\n        string lastName;\r\n        string otherName;\r\n        uint256 birthDate;\r\n        string birthCity;\r\n        string birthGender;\r\n        string birthCountry;\r\n        bool alive;\r\n        bool validate;\r\n    }\r\n\r\n    /// @notice Information of a parent linked to a wallet\r\n    mapping(address => Parent) private parentWithWallet;\r\n    /// @notice Information of a parent linked to a unique ID\r\n    mapping(address => bytes20) private parentWithChild;\r\n    /// @notice Information of a person linked to a wallet\r\n    mapping(bytes20 => Person) private peopleByIdentifiant;\r\n\r\n    /// @notice Event, register a person\r\n    event registerPeople(\r\n        bytes20 idPerson,\r\n        address parentWallet,\r\n        TypeGeneration categorieAge,\r\n        string name,\r\n        string lastName,\r\n        string otherName,\r\n        uint256 birthDate,\r\n        string birthCity,\r\n        string birthGender,\r\n        string birthCountry,\r\n        bool alive,\r\n        bool validate\r\n    );\r\n\r\n    event registerParentEvent(\r\n        address _ownerAddress,\r\n        TypeGeneration,\r\n        string name,\r\n        string lastName,\r\n        string country,\r\n        string document,\r\n        uint256 numberDocument,\r\n        uint16 nbChildren,\r\n        bool alive,\r\n        bytes20 idPerson\r\n    );\r\n\r\n    /// @notice Function to save the identity of the owner of the wallet (the parent)\r\n    /// @param  _ownerAddress : The address of the owner of this identity\r\n    /// @param _name : Name of this identity\r\n    /// @param _lastName : lastname of this identity\r\n    /// @param _country : country of this identity\r\n    /// @param _document: type of document (Passport, Secrurity social, drive license)\r\n    /// @param  _numberDocument: number associated with the type of document\r\n    function registerParent (\r\n        address _ownerAddress,\r\n        string memory _name,\r\n        string memory _lastName,\r\n        string memory _country,\r\n        string memory _document,\r\n        uint256 _numberDocument\r\n    )  notVerifier public {\r\n        require(\r\n            parentWithWallet[_ownerAddress].ownerAddress != _ownerAddress,\r\n            \"The parent already exist\"\r\n        );\r\n        bytes20 idPerson = bytes20(\r\n            keccak256(abi.encode(msg.sender, blockhash(block.number - 1)))\r\n        );\r\n\r\n        parentWithWallet[msg.sender] = Parent(\r\n            _ownerAddress,\r\n            TypeGeneration.Adult,\r\n            _name,\r\n            _lastName,\r\n            _country,\r\n            _document,\r\n            _numberDocument,\r\n            0,\r\n            true,\r\n            idPerson\r\n        );\r\n\r\n        emit registerParentEvent(\r\n            _ownerAddress,\r\n            TypeGeneration.Adult,\r\n            _name,\r\n            _lastName,\r\n            _country,\r\n            _document,\r\n            _numberDocument,\r\n            0,\r\n            true,\r\n            idPerson\r\n        );\r\n    }\r\n\r\n    /// @notice Function to save the children of the owner address\r\n    /// @param _ownerAddress Address of the parent of the child\r\n    /// @param _name Name of the child\r\n    /// @param _lastName Last name of the child\r\n    /// @param _otherName other name of the child\r\n    /// @param _birthDate Birth date at the birth child\r\n    /// @param _birthCountry Country at the birth child\r\n    /// @param _birthCity City at the birth child\r\n    /// @param _birthGender Gender at birth of child\r\n    function registerPerson(\r\n        address _ownerAddress,\r\n        string memory _name,\r\n        string memory _lastName,\r\n        string memory _otherName,\r\n        uint256 _birthDate,\r\n        string memory _birthCountry,\r\n        string memory _birthCity,\r\n        string memory _birthGender\r\n    )  public notVerifier returns(bytes20 ID){\r\n        require(parentWithWallet[_ownerAddress].ownerAddress == _ownerAddress, \"Missing information on parent.\");\r\n        require(parentWithWallet[_ownerAddress].nbChildren < 10, \"The limit of registration is 10 child\");\r\n        bytes20 idPerson = bytes20(\r\n            keccak256(abi.encode(msg.sender, blockhash(block.number - 1)))\r\n        );\r\n\r\n        peopleByIdentifiant[idPerson] = Person(\r\n            defaultAdress,\r\n            msg.sender,\r\n            TypeGeneration.Child,\r\n            _name,\r\n            _lastName,\r\n            _otherName,\r\n            _birthDate,\r\n            _birthCity,\r\n            _birthGender,\r\n            _birthCountry,\r\n            true,\r\n            false\r\n        );\r\n\r\n        parentWithChild[msg.sender] = idPerson;\r\n        parentWithWallet[_ownerAddress].nbChildren = parentWithWallet[_ownerAddress].nbChildren +1;\r\n\r\n        emit registerPeople(\r\n            idPerson,\r\n            msg.sender,\r\n            TypeGeneration.Child,\r\n            _name,\r\n            _lastName,\r\n            _otherName,\r\n            _birthDate,\r\n            _birthCity,\r\n            _birthGender,\r\n            _birthCountry,\r\n            true,\r\n            false\r\n        );\r\n\r\n        return idPerson;\r\n    }\r\n\r\n    /// @notice Update child informations \r\n    /// @param identifiantUnique identifiant unique of a person to update\r\n    /// @param _name Name of the child\r\n    /// @param _lastName Last name of the child\r\n    /// @param _otherName other name of the child\r\n    /// @param _birthDate Birth date at the birth child\r\n    /// @param _birthGender Gender at birth of child\r\n    function updatePerson(\r\n        bytes20 identifiantUnique, string memory _name, string memory _lastName, string memory _otherName,\r\n        string memory _birthGender, uint256 _birthDate\r\n    ) public {\r\n        require(peopleByIdentifiant[identifiantUnique].parentWallet == msg.sender, \"You can only update your child information.\");\r\n        peopleByIdentifiant[identifiantUnique].name = _name;\r\n        peopleByIdentifiant[identifiantUnique].lastName = _lastName;\r\n        peopleByIdentifiant[identifiantUnique].otherName = _otherName;\r\n        peopleByIdentifiant[identifiantUnique].birthGender = _birthGender;\r\n        peopleByIdentifiant[identifiantUnique].birthDate = _birthDate;\r\n        peopleByIdentifiant[identifiantUnique].validate = false;\r\n    }\r\n\r\n    /// @notice Validate child by the validator (State, hospital, town hall)\r\n    /// @param identifiantUnique identifiant unique of a person to validate\r\n    function validatePerson(bytes20 identifiantUnique) public onlyVerifier {\r\n        require( peopleByIdentifiant[identifiantUnique].birthDate != 0, \"This person doesn't exist\");\r\n        peopleByIdentifiant[identifiantUnique].validate = true;\r\n        peopleByIdentifiant[identifiantUnique].validateBy = msg.sender;\r\n    }\r\n\r\n    /// @notice Get a person data by his wallet\r\n    /// @param identifiantUnique identifiant unique\r\n    function getPersonByID(bytes20 identifiantUnique) public view returns (Person memory){\r\n        return peopleByIdentifiant[identifiantUnique];\r\n    }\r\n\r\n    /// @notice Get a parent data by his wallet\r\n    function getParentbyWallet() public view returns (Parent memory){\r\n        return parentWithWallet[msg.sender];\r\n    }\r\n}\r\n",
  "sourcePath": "C:\\wamp64\\www\\numeric_identity\\contracts\\IdentityPerson.sol",
  "compiler": {
    "name": "solc",
    "version": "0.8.14+commit.80d49f37.Emscripten.clang"
  },
  "schemaVersion": "3.4.3",
  "updatedAt": "2022-05-20T19:48:51.769Z",
  "networkType": "ethereum",
  "devdoc": {
    "kind": "dev",
    "methods": {
      "addVerifier(address,string,string,string,uint8)": {
        "params": {
          "_city": ": city of this identity",
          "_country": ": country of this identity",
          "_streetAddress": ": country of this identity",
          "_typeValidateur": "type of validateur",
          "_veriferAddress": ": The address of the owner of this identity"
        }
      },
      "getPersonByID(bytes20)": {
        "params": {
          "identifiantUnique": "identifiant unique"
        }
      },
      "registerParent(address,string,string,string,string,uint256)": {
        "params": {
          "_country": ": country of this identity",
          "_document": ": type of document (Passport, Secrurity social, drive license)",
          "_lastName": ": lastname of this identity",
          "_name": ": Name of this identity",
          "_numberDocument": ": number associated with the type of document",
          "_ownerAddress": ": The address of the owner of this identity"
        }
      },
      "registerPerson(address,string,string,string,uint256,string,string,string)": {
        "params": {
          "_birthCity": "City at the birth child",
          "_birthCountry": "Country at the birth child",
          "_birthDate": "Birth date at the birth child",
          "_birthGender": "Gender at birth of child",
          "_lastName": "Last name of the child",
          "_name": "Name of the child",
          "_otherName": "other name of the child",
          "_ownerAddress": "Address of the parent of the child"
        }
      },
      "updatePerson(bytes20,string,string,string,string,uint256)": {
        "params": {
          "_birthDate": "Birth date at the birth child",
          "_birthGender": "Gender at birth of child",
          "_lastName": "Last name of the child",
          "_name": "Name of the child",
          "_otherName": "other name of the child",
          "identifiantUnique": "identifiant unique of a person to update"
        }
      },
      "validatePerson(bytes20)": {
        "params": {
          "identifiantUnique": "identifiant unique of a person to validate"
        }
      }
    },
    "version": 1
  },
  "userdoc": {
    "events": {
      "registerPeople(bytes20,address,uint8,string,string,string,uint256,string,string,string,bool,bool)": {
        "notice": "Event, register a person"
      }
    },
    "kind": "user",
    "methods": {
      "addVerifier(address,string,string,string,uint8)": {
        "notice": "Function to save the identity of the owner of the wallet (the parent)"
      },
      "getMapVerifier()": {
        "notice": "Get my information of verifier"
      },
      "getParentbyWallet()": {
        "notice": "Get a parent data by his wallet"
      },
      "getPersonByID(bytes20)": {
        "notice": "Get a person data by his wallet"
      },
      "registerParent(address,string,string,string,string,uint256)": {
        "notice": "Function to save the identity of the owner of the wallet (the parent)"
      },
      "registerPerson(address,string,string,string,uint256,string,string,string)": {
        "notice": "Function to save the children of the owner address"
      },
      "updatePerson(bytes20,string,string,string,string,uint256)": {
        "notice": "Update child informations "
      },
      "validatePerson(bytes20)": {
        "notice": "Validate child by the validator (State, hospital, town hall)"
      }
    },
    "version": 1
  }
}