{
  "contractName": "IdentityPerson",
  "abi": [
    {
      "anonymous": false,
      "inputs": [
        {
          "indexed": false,
          "internalType": "bytes20",
          "name": "identifiantUnique",
          "type": "bytes20"
        },
        {
          "indexed": false,
          "internalType": "address",
          "name": "validateBy",
          "type": "address"
        },
        {
          "indexed": false,
          "internalType": "enum IdentityPerson.TypeGeneration",
          "name": "categorieAge",
          "type": "uint8"
        },
        {
          "indexed": false,
          "internalType": "string",
          "name": "name",
          "type": "string"
        },
        {
          "indexed": false,
          "internalType": "string",
          "name": "lastName",
          "type": "string"
        },
        {
          "indexed": false,
          "internalType": "string",
          "name": "otherName",
          "type": "string"
        },
        {
          "indexed": false,
          "internalType": "string",
          "name": "birthDate",
          "type": "string"
        },
        {
          "indexed": false,
          "internalType": "string",
          "name": "bithHour",
          "type": "string"
        },
        {
          "indexed": false,
          "internalType": "string",
          "name": "birthCity",
          "type": "string"
        },
        {
          "indexed": false,
          "internalType": "string",
          "name": "birthGender",
          "type": "string"
        },
        {
          "indexed": false,
          "internalType": "string",
          "name": "birthCountry",
          "type": "string"
        },
        {
          "indexed": false,
          "internalType": "bool",
          "name": "validate",
          "type": "bool"
        }
      ],
      "name": "registerPeople",
      "type": "event"
    },
    {
      "inputs": [
        {
          "internalType": "address",
          "name": "_ownerAddress",
          "type": "address"
        },
        {
          "internalType": "string",
          "name": "_name",
          "type": "string"
        },
        {
          "internalType": "string",
          "name": "_lastName",
          "type": "string"
        },
        {
          "internalType": "string",
          "name": "_otherName",
          "type": "string"
        },
        {
          "internalType": "string",
          "name": "_birthDate",
          "type": "string"
        },
        {
          "internalType": "string",
          "name": "_birthHour",
          "type": "string"
        },
        {
          "internalType": "string",
          "name": "_birthCountry",
          "type": "string"
        },
        {
          "internalType": "string",
          "name": "_birthCity",
          "type": "string"
        },
        {
          "internalType": "string",
          "name": "_birthGender",
          "type": "string"
        }
      ],
      "name": "registerPerson",
      "outputs": [],
      "stateMutability": "nonpayable",
      "type": "function"
    },
    {
      "inputs": [
        {
          "internalType": "address",
          "name": "personWallet",
          "type": "address"
        }
      ],
      "name": "validatePerson",
      "outputs": [],
      "stateMutability": "nonpayable",
      "type": "function"
    },
    {
      "inputs": [
        {
          "internalType": "address",
          "name": "personWallet",
          "type": "address"
        }
      ],
      "name": "getPersonbyWallet",
      "outputs": [
        {
          "components": [
            {
              "internalType": "bytes20",
              "name": "identifiantUnique",
              "type": "bytes20"
            },
            {
              "internalType": "address",
              "name": "validateBy",
              "type": "address"
            },
            {
              "internalType": "enum IdentityPerson.TypeGeneration",
              "name": "categorieAge",
              "type": "uint8"
            },
            {
              "internalType": "string",
              "name": "name",
              "type": "string"
            },
            {
              "internalType": "string",
              "name": "lastName",
              "type": "string"
            },
            {
              "internalType": "string",
              "name": "otherName",
              "type": "string"
            },
            {
              "internalType": "string",
              "name": "birthDate",
              "type": "string"
            },
            {
              "internalType": "string",
              "name": "bithHour",
              "type": "string"
            },
            {
              "internalType": "string",
              "name": "birthCity",
              "type": "string"
            },
            {
              "internalType": "string",
              "name": "birthGender",
              "type": "string"
            },
            {
              "internalType": "string",
              "name": "birthCountry",
              "type": "string"
            },
            {
              "internalType": "bool",
              "name": "validate",
              "type": "bool"
            }
          ],
          "internalType": "struct IdentityPerson.Person",
          "name": "",
          "type": "tuple"
        }
      ],
      "stateMutability": "view",
      "type": "function",
      "constant": true
    }
  ],
  "bytecode": "0x608060405234801561001057600080fd5b5061174f806100206000396000f3fe608060405234801561001057600080fd5b506004361061005e576000357c010000000000000000000000000000000000000000000000000000000090048063095132ab14610063578063cdd0b2641461007f578063f5a885601461009b575b600080fd5b61007d60048036038101906100789190610eb8565b6100cb565b005b61009960048036038101906100949190611062565b61049f565b005b6100b560048036038101906100b09190611062565b61057e565b6040516100c29190611328565b60405180910390f35b3373ffffffffffffffffffffffffffffffffffffffff168973ffffffffffffffffffffffffffffffffffffffff1614610139576040517f08c379a0000000000000000000000000000000000000000000000000000000008152600401610130906113cd565b60405180910390fd5b6000336001436101499190611426565b4060405160200161015b929190611482565b604051602081830303815290604052805190602001209050604051806101800160405280826bffffffffffffffffffffffff1916815260200160008054906101000a900473ffffffffffffffffffffffffffffffffffffffff1673ffffffffffffffffffffffffffffffffffffffff168152602001600060028111156101e4576101e36110d9565b5b81526020018a815260200189815260200188815260200187815260200186815260200184815260200183815260200185815260200160001515815250600260003373ffffffffffffffffffffffffffffffffffffffff1673ffffffffffffffffffffffffffffffffffffffff16815260200190815260200160002060008201518160000160006101000a81548173ffffffffffffffffffffffffffffffffffffffff02191690836c010000000000000000000000009004021790555060208201518160010160006101000a81548173ffffffffffffffffffffffffffffffffffffffff021916908373ffffffffffffffffffffffffffffffffffffffff16021790555060408201518160010160146101000a81548160ff02191690836002811115610312576103116110d9565b5b02179055506060820151816002019080519060200190610333929190610bc3565b506080820151816003019080519060200190610350929190610bc3565b5060a082015181600401908051906020019061036d929190610bc3565b5060c082015181600501908051906020019061038a929190610bc3565b5060e08201518160060190805190602001906103a7929190610bc3565b506101008201518160070190805190602001906103c5929190610bc3565b506101208201518160080190805190602001906103e3929190610bc3565b50610140820151816009019080519060200190610401929190610bc3565b5061016082015181600a0160006101000a81548160ff0219169083151502179055509050507fc2d687daff7510d6af09c9d3bd11aecaafd4da8f31c050a8ac4874ee2461d3528160008054906101000a900473ffffffffffffffffffffffffffffffffffffffff1660008b8b8b8b8a8a8d600060405161048b9b9a9998979695949392919061155d565b60405180910390a150505050505050505050565b6001600260008373ffffffffffffffffffffffffffffffffffffffff1673ffffffffffffffffffffffffffffffffffffffff168152602001908152602001600020600a0160006101000a81548160ff02191690831515021790555033600260008373ffffffffffffffffffffffffffffffffffffffff1673ffffffffffffffffffffffffffffffffffffffff16815260200190815260200160002060010160006101000a81548173ffffffffffffffffffffffffffffffffffffffff021916908373ffffffffffffffffffffffffffffffffffffffff16021790555050565b610586610c49565b8173ffffffffffffffffffffffffffffffffffffffff163373ffffffffffffffffffffffffffffffffffffffff16146105f4576040517f08c379a00000000000000000000000000000000000000000000000000000000081526004016105eb90611699565b60405180910390fd5b600260003373ffffffffffffffffffffffffffffffffffffffff1673ffffffffffffffffffffffffffffffffffffffff168152602001908152602001600020604051806101800160405290816000820160009054906101000a90046c01000000000000000000000000026bffffffffffffffffffffffff19166bffffffffffffffffffffffff191681526020016001820160009054906101000a900473ffffffffffffffffffffffffffffffffffffffff1673ffffffffffffffffffffffffffffffffffffffff1673ffffffffffffffffffffffffffffffffffffffff1681526020016001820160149054906101000a900460ff1660028111156106fb576106fa6110d9565b5b600281111561070d5761070c6110d9565b5b8152602001600282018054610721906116e8565b80601f016020809104026020016040519081016040528092919081815260200182805461074d906116e8565b801561079a5780601f1061076f5761010080835404028352916020019161079a565b820191906000526020600020905b81548152906001019060200180831161077d57829003601f168201915b505050505081526020016003820180546107b3906116e8565b80601f01602080910402602001604051908101604052809291908181526020018280546107df906116e8565b801561082c5780601f106108015761010080835404028352916020019161082c565b820191906000526020600020905b81548152906001019060200180831161080f57829003601f168201915b50505050508152602001600482018054610845906116e8565b80601f0160208091040260200160405190810160405280929190818152602001828054610871906116e8565b80156108be5780601f10610893576101008083540402835291602001916108be565b820191906000526020600020905b8154815290600101906020018083116108a157829003601f168201915b505050505081526020016005820180546108d7906116e8565b80601f0160208091040260200160405190810160405280929190818152602001828054610903906116e8565b80156109505780601f1061092557610100808354040283529160200191610950565b820191906000526020600020905b81548152906001019060200180831161093357829003601f168201915b50505050508152602001600682018054610969906116e8565b80601f0160208091040260200160405190810160405280929190818152602001828054610995906116e8565b80156109e25780601f106109b7576101008083540402835291602001916109e2565b820191906000526020600020905b8154815290600101906020018083116109c557829003601f168201915b505050505081526020016007820180546109fb906116e8565b80601f0160208091040260200160405190810160405280929190818152602001828054610a27906116e8565b8015610a745780601f10610a4957610100808354040283529160200191610a74565b820191906000526020600020905b815481529060010190602001808311610a5757829003601f168201915b50505050508152602001600882018054610a8d906116e8565b80601f0160208091040260200160405190810160405280929190818152602001828054610ab9906116e8565b8015610b065780601f10610adb57610100808354040283529160200191610b06565b820191906000526020600020905b815481529060010190602001808311610ae957829003601f168201915b50505050508152602001600982018054610b1f906116e8565b80601f0160208091040260200160405190810160405280929190818152602001828054610b4b906116e8565b8015610b985780601f10610b6d57610100808354040283529160200191610b98565b820191906000526020600020905b815481529060010190602001808311610b7b57829003601f168201915b50505050508152602001600a820160009054906101000a900460ff1615151515815250509050919050565b828054610bcf906116e8565b90600052602060002090601f016020900481019282610bf15760008555610c38565b82601f10610c0a57805160ff1916838001178555610c38565b82800160010185558215610c38579182015b82811115610c37578251825591602001919060010190610c1c565b5b509050610c459190610ce3565b5090565b60405180610180016040528060006bffffffffffffffffffffffff19168152602001600073ffffffffffffffffffffffffffffffffffffffff16815260200160006002811115610c9c57610c9b6110d9565b5b815260200160608152602001606081526020016060815260200160608152602001606081526020016060815260200160608152602001606081526020016000151581525090565b5b80821115610cfc576000816000905550600101610ce4565b5090565b6000604051905090565b600080fd5b600080fd5b600073ffffffffffffffffffffffffffffffffffffffff82169050919050565b6000610d3f82610d14565b9050919050565b610d4f81610d34565b8114610d5a57600080fd5b50565b600081359050610d6c81610d46565b92915050565b600080fd5b600080fd5b6000601f19601f8301169050919050565b7f4e487b7100000000000000000000000000000000000000000000000000000000600052604160045260246000fd5b610dc582610d7c565b810181811067ffffffffffffffff82111715610de457610de3610d8d565b5b80604052505050565b6000610df7610d00565b9050610e038282610dbc565b919050565b600067ffffffffffffffff821115610e2357610e22610d8d565b5b610e2c82610d7c565b9050602081019050919050565b82818337600083830152505050565b6000610e5b610e5684610e08565b610ded565b905082815260208101848484011115610e7757610e76610d77565b5b610e82848285610e39565b509392505050565b600082601f830112610e9f57610e9e610d72565b5b8135610eaf848260208601610e48565b91505092915050565b60008060008060008060008060006101208a8c031215610edb57610eda610d0a565b5b6000610ee98c828d01610d5d565b99505060208a013567ffffffffffffffff811115610f0a57610f09610d0f565b5b610f168c828d01610e8a565b98505060408a013567ffffffffffffffff811115610f3757610f36610d0f565b5b610f438c828d01610e8a565b97505060608a013567ffffffffffffffff811115610f6457610f63610d0f565b5b610f708c828d01610e8a565b96505060808a013567ffffffffffffffff811115610f9157610f90610d0f565b5b610f9d8c828d01610e8a565b95505060a08a013567ffffffffffffffff811115610fbe57610fbd610d0f565b5b610fca8c828d01610e8a565b94505060c08a013567ffffffffffffffff811115610feb57610fea610d0f565b5b610ff78c828d01610e8a565b93505060e08a013567ffffffffffffffff81111561101857611017610d0f565b5b6110248c828d01610e8a565b9250506101008a013567ffffffffffffffff81111561104657611045610d0f565b5b6110528c828d01610e8a565b9150509295985092959850929598565b60006020828403121561107857611077610d0a565b5b600061108684828501610d5d565b91505092915050565b60007fffffffffffffffffffffffffffffffffffffffff00000000000000000000000082169050919050565b6110c48161108f565b82525050565b6110d381610d34565b82525050565b7f4e487b7100000000000000000000000000000000000000000000000000000000600052602160045260246000fd5b60038110611119576111186110d9565b5b50565b600081905061112a82611108565b919050565b600061113a8261111c565b9050919050565b61114a8161112f565b82525050565b600081519050919050565b600082825260208201905092915050565b60005b8381101561118a57808201518184015260208101905061116f565b83811115611199576000848401525b50505050565b60006111aa82611150565b6111b4818561115b565b93506111c481856020860161116c565b6111cd81610d7c565b840191505092915050565b60008115159050919050565b6111ed816111d8565b82525050565b60006101808301600083015161120c60008601826110bb565b50602083015161121f60208601826110ca565b5060408301516112326040860182611141565b506060830151848203606086015261124a828261119f565b91505060808301518482036080860152611264828261119f565b91505060a083015184820360a086015261127e828261119f565b91505060c083015184820360c0860152611298828261119f565b91505060e083015184820360e08601526112b2828261119f565b9150506101008301518482036101008601526112ce828261119f565b9150506101208301518482036101208601526112ea828261119f565b915050610140830151848203610140860152611306828261119f565b91505061016083015161131d6101608601826111e4565b508091505092915050565b6000602082019050818103600083015261134281846111f3565b905092915050565b600082825260208201905092915050565b7f4c2061647265737365207370656369666965206e6520636f72726573706f6e6460008201527f73207061732e0000000000000000000000000000000000000000000000000000602082015250565b60006113b760268361134a565b91506113c28261135b565b604082019050919050565b600060208201905081810360008301526113e6816113aa565b9050919050565b6000819050919050565b7f4e487b7100000000000000000000000000000000000000000000000000000000600052601160045260246000fd5b6000611431826113ed565b915061143c836113ed565b92508282101561144f5761144e6113f7565b5b828203905092915050565b61146381610d34565b82525050565b6000819050919050565b61147c81611469565b82525050565b6000604082019050611497600083018561145a565b6114a46020830184611473565b9392505050565b6114b48161108f565b82525050565b6114c38161112f565b82525050565b7f506965727269636b000000000000000000000000000000000000000000000000600082015250565b60006114ff60088361134a565b915061150a826114c9565b602082019050919050565b600061152082611150565b61152a818561134a565b935061153a81856020860161116c565b61154381610d7c565b840191505092915050565b611557816111d8565b82525050565b600061018082019050611573600083018e6114ab565b611580602083018d61145a565b61158d604083018c6114ba565b818103606083015261159e816114f2565b905081810360808301526115b2818b611515565b905081810360a08301526115c6818a611515565b905081810360c08301526115da8189611515565b905081810360e08301526115ee8188611515565b90508181036101008301526116038187611515565b90508181036101208301526116188186611515565b905081810361014083015261162d8185611515565b905061163d61016083018461154e565b9c9b505050505050505050505050565b7f4c652077616c6c6574206e2765737420706173206c6520426f6e000000000000600082015250565b6000611683601a8361134a565b915061168e8261164d565b602082019050919050565b600060208201905081810360008301526116b281611676565b9050919050565b7f4e487b7100000000000000000000000000000000000000000000000000000000600052602260045260246000fd5b6000600282049050600182168061170057607f821691505b602082108103611713576117126116b9565b5b5091905056fea2646970667358221220c581bbf535b1b3ce6c44b8571beeebc9dc5382b2a58ab9220c83e9cb2b112c8364736f6c634300080d0033",
  "immutableReferences": {},
  "source": "// SPDX-License-Identifier: MIT\r\npragma solidity 0.8.13;\r\n\r\ncontract IdentityPerson {\r\n    address defaultAdress;\r\n    enum DocumentLegal {\r\n        Passport,\r\n        Securitesocial,\r\n        permisConduire\r\n    }\r\n    enum TypeGeneration {\r\n        Child,\r\n        Adult,\r\n        older\r\n    }\r\n\r\n    struct Parent {\r\n        address ownerAddress;\r\n        string name;\r\n        string lastName;\r\n        string gender;\r\n        string country;\r\n        DocumentLegal document;\r\n        uint256 numberDocument;\r\n        bytes20 identifiantUnique;\r\n        bool validate;\r\n    }\r\n\r\n    struct Person {\r\n        bytes20 identifiantUnique;\r\n        address validateBy;\r\n        TypeGeneration categorieAge;\r\n        string name;\r\n        string lastName;\r\n        string otherName;\r\n        string birthDate;\r\n        string bithHour;\r\n        string birthCity;\r\n        string birthGender;\r\n        string birthCountry;\r\n        bool validate;\r\n    }\r\n\r\n    // Information d'une personne lie  un identifiant unique\r\n    mapping(bytes20 => Person) private people;\r\n    // Information d'une personne lie  un wallet\r\n    mapping(address => Person) private peopleWithWallet;\r\n    // Parent lie  une addresse\r\n    mapping(bytes20 => Parent) private parent;\r\n    //Event, register a person\r\n    event registerPeople(\r\n        bytes20 identifiantUnique,\r\n        address validateBy,\r\n        TypeGeneration categorieAge,\r\n        string name,\r\n        string lastName,\r\n        string otherName,\r\n        string birthDate,\r\n        string bithHour,\r\n        string birthCity,\r\n        string birthGender,\r\n        string birthCountry,\r\n        bool validate\r\n    );\r\n\r\n    //Enregistrer des personnes\r\n    function registerPerson(\r\n        address _ownerAddress,\r\n        string memory _name,\r\n        string memory _lastName,\r\n        string memory _otherName,\r\n        string memory _birthDate,\r\n        string memory _birthHour,\r\n        string memory _birthCountry,\r\n        string memory _birthCity,\r\n        string memory _birthGender\r\n    ) public {\r\n        require(\r\n            _ownerAddress == msg.sender,\r\n            \"L adresse specifie ne corresponds pas.\"\r\n        );\r\n\r\n        bytes20 idPerson = bytes20(\r\n            keccak256(abi.encode(msg.sender, blockhash(block.number - 1)))\r\n        );\r\n\r\n        peopleWithWallet[msg.sender] = Person(\r\n            idPerson,\r\n            defaultAdress,\r\n            TypeGeneration.Child,\r\n            _name,\r\n            _lastName,\r\n            _otherName,\r\n            _birthDate,\r\n            _birthHour,\r\n            _birthCity,\r\n            _birthGender,\r\n            _birthCountry,\r\n            false\r\n        );\r\n\r\n        emit registerPeople(\r\n            idPerson,\r\n            defaultAdress,\r\n            TypeGeneration.Child,\r\n            \"Pierrick\",\r\n            _lastName,\r\n            _otherName,\r\n            _birthDate,\r\n            _birthHour,\r\n            _birthCity,\r\n            _birthGender,\r\n            _birthCountry,\r\n            false\r\n        );\r\n\r\n        // people[idPerson].push(ownPerson);\r\n    }\r\n\r\n    //Valider des personnes par l'tat\r\n    function validatePerson(address personWallet) public {\r\n        peopleWithWallet[personWallet].validate = true;\r\n        peopleWithWallet[personWallet].validateBy = msg.sender;\r\n    }\r\n\r\n    //Modifier des donnes\r\n    function getPersonbyWallet(address personWallet)\r\n        public\r\n        view\r\n        returns (Person memory)\r\n    {\r\n        require(msg.sender == personWallet, \"Le wallet n'est pas le Bon\");\r\n        return peopleWithWallet[msg.sender];\r\n    }\r\n}\r\n",
  "sourcePath": "C:\\wamp64\\www\\numeric_identity\\contracts\\IdentityPerson.sol",
  "compiler": {
    "name": "solc",
    "version": "0.8.13+commit.abaa5c0e.Emscripten.clang"
  },
  "schemaVersion": "3.4.3",
  "updatedAt": "2022-05-15T13:23:21.499Z",
  "networkType": "ethereum",
  "devdoc": {
    "kind": "dev",
    "methods": {},
    "version": 1
  },
  "userdoc": {
    "kind": "user",
    "methods": {},
    "version": 1
  }
}