{
  "contractName": "IdFundedRewarder",
  "abi": [
    {
      "anonymous": false,
      "inputs": [
        {
          "indexed": true,
          "internalType": "address",
          "name": "previousOwner",
          "type": "address"
        },
        {
          "indexed": true,
          "internalType": "address",
          "name": "newOwner",
          "type": "address"
        }
      ],
      "name": "OwnershipTransferred",
      "type": "event"
    },
    {
      "anonymous": false,
      "inputs": [
        {
          "indexed": false,
          "internalType": "address",
          "name": "ethereumAddress",
          "type": "address"
        }
      ],
      "name": "addressClaimed",
      "type": "event"
    },
    {
      "anonymous": false,
      "inputs": [
        {
          "indexed": false,
          "internalType": "bytes20",
          "name": "ID",
          "type": "bytes20"
        },
        {
          "indexed": false,
          "internalType": "address",
          "name": "ethereumAddress",
          "type": "address"
        }
      ],
      "name": "addressUpdated",
      "type": "event"
    },
    {
      "anonymous": false,
      "inputs": [
        {
          "indexed": false,
          "internalType": "bytes20",
          "name": "ID",
          "type": "bytes20"
        },
        {
          "indexed": false,
          "internalType": "address",
          "name": "ethereumAddress",
          "type": "address"
        }
      ],
      "name": "idRegistered",
      "type": "event"
    },
    {
      "anonymous": false,
      "inputs": [
        {
          "indexed": false,
          "internalType": "bytes20",
          "name": "ID",
          "type": "bytes20"
        }
      ],
      "name": "idRemoved",
      "type": "event"
    },
    {
      "anonymous": false,
      "inputs": [
        {
          "indexed": false,
          "internalType": "uint256",
          "name": "NewRate",
          "type": "uint256"
        }
      ],
      "name": "rewardRateChanged",
      "type": "event"
    },
    {
      "anonymous": false,
      "inputs": [
        {
          "indexed": false,
          "internalType": "address",
          "name": "RewTokenAddress",
          "type": "address"
        }
      ],
      "name": "rewardTokenChanged",
      "type": "event"
    },
    {
      "inputs": [],
      "name": "owner",
      "outputs": [
        {
          "internalType": "address",
          "name": "",
          "type": "address"
        }
      ],
      "stateMutability": "view",
      "type": "function"
    },
    {
      "inputs": [],
      "name": "renounceOwnership",
      "outputs": [],
      "stateMutability": "nonpayable",
      "type": "function"
    },
    {
      "inputs": [
        {
          "internalType": "address",
          "name": "newOwner",
          "type": "address"
        }
      ],
      "name": "transferOwnership",
      "outputs": [],
      "stateMutability": "nonpayable",
      "type": "function"
    },
    {
      "inputs": [
        {
          "internalType": "address",
          "name": "RewTokenAddress",
          "type": "address"
        }
      ],
      "name": "setRewardToken",
      "outputs": [],
      "stateMutability": "nonpayable",
      "type": "function"
    },
    {
      "inputs": [
        {
          "internalType": "uint256",
          "name": "TokensPerSec",
          "type": "uint256"
        }
      ],
      "name": "setRewardRate",
      "outputs": [],
      "stateMutability": "nonpayable",
      "type": "function"
    },
    {
      "inputs": [
        {
          "internalType": "bytes20",
          "name": "key",
          "type": "bytes20"
        },
        {
          "internalType": "address",
          "name": "newAddress",
          "type": "address"
        }
      ],
      "name": "RegisterAddress",
      "outputs": [],
      "stateMutability": "nonpayable",
      "type": "function"
    },
    {
      "inputs": [
        {
          "internalType": "bytes20",
          "name": "key",
          "type": "bytes20"
        }
      ],
      "name": "RemoveAddress",
      "outputs": [],
      "stateMutability": "nonpayable",
      "type": "function"
    },
    {
      "inputs": [
        {
          "internalType": "bytes20",
          "name": "key",
          "type": "bytes20"
        },
        {
          "internalType": "address",
          "name": "newAddress",
          "type": "address"
        }
      ],
      "name": "UpdateAddress",
      "outputs": [],
      "stateMutability": "nonpayable",
      "type": "function"
    },
    {
      "inputs": [],
      "name": "GetNbRegisteredAdresses",
      "outputs": [
        {
          "internalType": "uint256",
          "name": "",
          "type": "uint256"
        }
      ],
      "stateMutability": "view",
      "type": "function"
    },
    {
      "inputs": [
        {
          "internalType": "bytes20",
          "name": "key",
          "type": "bytes20"
        }
      ],
      "name": "GetAddressFromKey",
      "outputs": [
        {
          "internalType": "address",
          "name": "",
          "type": "address"
        }
      ],
      "stateMutability": "view",
      "type": "function"
    },
    {
      "inputs": [
        {
          "internalType": "address",
          "name": "ethAddress",
          "type": "address"
        }
      ],
      "name": "EstimateRewardForAddress",
      "outputs": [
        {
          "internalType": "uint256",
          "name": "",
          "type": "uint256"
        }
      ],
      "stateMutability": "view",
      "type": "function"
    },
    {
      "inputs": [],
      "name": "Claim",
      "outputs": [],
      "stateMutability": "nonpayable",
      "type": "function"
    }
  ],
  "bytecode": "0x60806040526001600355600060045534801561001a57600080fd5b5061004961003561004e640100000000026401000000009004565b610056640100000000026401000000009004565b61011a565b600033905090565b60008060009054906101000a900473ffffffffffffffffffffffffffffffffffffffff169050816000806101000a81548173ffffffffffffffffffffffffffffffffffffffff021916908373ffffffffffffffffffffffffffffffffffffffff1602179055508173ffffffffffffffffffffffffffffffffffffffff168173ffffffffffffffffffffffffffffffffffffffff167f8be0079c531659141344cd1fd0a4f28419497f9722a3daafe3b4186f6b6457e060405160405180910390a35050565b61203d806200012a6000396000f3fe608060405234801561001057600080fd5b50600436106100d1576000357c0100000000000000000000000000000000000000000000000000000000900480638aee81271161008e5780638aee8127146101845780638da5cb5b146101a05780639e447fc6146101be578063a6b31c84146101da578063da0dc1b9146101f6578063f2fde38b14610212576100d1565b8063090616f0146100d65780630a0e254b146101065780632c75c37a146101365780633158952e146101525780635dbedf9e1461015c578063715018a61461017a575b600080fd5b6100f060048036038101906100eb9190611887565b61022e565b6040516100fd91906118cd565b60405180910390f35b610120600480360381019061011b9190611940565b6103e2565b60405161012d919061197c565b60405180910390f35b610150600480360381019061014b9190611997565b6104c1565b005b61015a6109d2565b005b610164610d0a565b60405161017191906118cd565b60405180910390f35b610182610d14565b005b61019e60048036038101906101999190611887565b610d9c565b005b6101a8610e93565b6040516101b5919061197c565b60405180910390f35b6101d860048036038101906101d39190611a03565b610ebc565b005b6101f460048036038101906101ef9190611997565b610f79565b005b610210600480360381019061020b9190611940565b611328565b005b61022c60048036038101906102279190611887565b611635565b005b600080600260008473ffffffffffffffffffffffffffffffffffffffff1673ffffffffffffffffffffffffffffffffffffffff1681526020019081526020016000208054806020026020016040519081016040528092919081815260200182805480156102e257602002820191906000526020600020905b8160009054906101000a90046c01000000000000000000000000026bffffffffffffffffffffffff1916815260200190600101908083116102a6575b505050505090506000805b82518110156103d75760006c010000000000000000000000000283828151811061031a57610319611a30565b5b60200260200101516bffffffffffffffffffffffff191611156103c457600042905060006001600086858151811061035557610354611a30565b5b60200260200101516bffffffffffffffffffffffff19166bffffffffffffffffffffffff19168152602001908152602001600020600101549050600060035482846103a09190611a8e565b6103aa9190611ac2565b90506103bf818661172c90919063ffffffff16565b505050505b80806103cf90611b1c565b9150506102ed565b508092505050919050565b600060016000836bffffffffffffffffffffffff19166bffffffffffffffffffffffff1916815260200190815260200160002060000160009054906101000a900460ff16610465576040517f08c379a000000000000000000000000000000000000000000000000000000000815260040161045c90611bc1565b60405180910390fd5b60016000836bffffffffffffffffffffffff19166bffffffffffffffffffffffff1916815260200190815260200160002060020160009054906101000a900473ffffffffffffffffffffffffffffffffffffffff169050919050565b6104c9611758565b73ffffffffffffffffffffffffffffffffffffffff166104e7610e93565b73ffffffffffffffffffffffffffffffffffffffff161461053d576040517f08c379a000000000000000000000000000000000000000000000000000000000815260040161053490611c2d565b60405180910390fd5b60016000836bffffffffffffffffffffffff19166bffffffffffffffffffffffff1916815260200190815260200160002060000160009054906101000a900460ff166105be576040517f08c379a00000000000000000000000000000000000000000000000000000000081526004016105b590611bc1565b60405180910390fd5b600060016000846bffffffffffffffffffffffff19166bffffffffffffffffffffffff1916815260200190815260200160002060030154905060006002600060016000876bffffffffffffffffffffffff19166bffffffffffffffffffffffff1916815260200190815260200160002060020160009054906101000a900473ffffffffffffffffffffffffffffffffffffffff1673ffffffffffffffffffffffffffffffffffffffff1673ffffffffffffffffffffffffffffffffffffffff168152602001908152602001600020905060008211156107345780600182805490506106a99190611a8e565b815481106106ba576106b9611a30565b5b9060005260206000200160009054906101000a90046c01000000000000000000000000028183815481106106f1576106f0611a30565b5b9060005260206000200160006101000a81548173ffffffffffffffffffffffffffffffffffffffff02191690836c01000000000000000000000000900402179055505b8080548061074557610744611c4d565b5b6001900381819060005260206000200160006101000a81549073ffffffffffffffffffffffffffffffffffffffff02191690559055600260008473ffffffffffffffffffffffffffffffffffffffff1673ffffffffffffffffffffffffffffffffffffffff168152602001908152602001600020849080600181540180825580915050600190039060005260206000200160009091909190916101000a81548173ffffffffffffffffffffffffffffffffffffffff02191690836c0100000000000000000000000090040217905550600a600260008573ffffffffffffffffffffffffffffffffffffffff1673ffffffffffffffffffffffffffffffffffffffff1681526020019081526020016000208054905010610899576040517f08c379a000000000000000000000000000000000000000000000000000000000815260040161089090611cee565b60405180910390fd5b8260016000866bffffffffffffffffffffffff19166bffffffffffffffffffffffff1916815260200190815260200160002060020160006101000a81548173ffffffffffffffffffffffffffffffffffffffff021916908373ffffffffffffffffffffffffffffffffffffffff1602179055506001600260008573ffffffffffffffffffffffffffffffffffffffff1673ffffffffffffffffffffffffffffffffffffffff1681526020019081526020016000208054905061095b9190611a8e565b60016000866bffffffffffffffffffffffff19166bffffffffffffffffffffffff19168152602001908152602001600020600301819055507f71d16f7ba31ce6cfa8c222e2866481dc2febef566b0f57f48e2b8682066b327284846040516109c4929190611d1d565b60405180910390a150505050565b6000600260003373ffffffffffffffffffffffffffffffffffffffff1673ffffffffffffffffffffffffffffffffffffffff168152602001908152602001600020805480602002602001604051908101604052809291908181526020018280548015610a8557602002820191906000526020600020905b8160009054906101000a90046c01000000000000000000000000026bffffffffffffffffffffffff191681526020019060010190808311610a49575b505050505090506000805b8251811015610bcd5760006c0100000000000000000000000002838281518110610abd57610abc611a30565b5b60200260200101516bffffffffffffffffffffffff19161115610bba576000429050600060016000868581518110610af857610af7611a30565b5b60200260200101516bffffffffffffffffffffffff19166bffffffffffffffffffffffff1916815260200190815260200160002060010154905060006003548284610b439190611a8e565b610b4d9190611ac2565b9050610b62818661172c90919063ffffffff16565b504260016000888781518110610b7b57610b7a611a30565b5b60200260200101516bffffffffffffffffffffffff19166bffffffffffffffffffffffff19168152602001908152602001600020600101819055505050505b8080610bc590611b1c565b915050610a90565b506000600560009054906101000a900473ffffffffffffffffffffffffffffffffffffffff1673ffffffffffffffffffffffffffffffffffffffff1663a9059cbb33846040518363ffffffff167c0100000000000000000000000000000000000000000000000000000000028152600401610c49929190611d46565b6020604051808303816000875af1158015610c68573d6000803e3d6000fd5b505050506040513d601f19601f82011682018060405250810190610c8c9190611da7565b905080610cce576040517f08c379a0000000000000000000000000000000000000000000000000000000008152600401610cc590611e20565b60405180910390fd5b7f772dc32fd4634e04156fbc2ca2a50501b296e61485b59f63e473b52cbae86b5d33604051610cfd919061197c565b60405180910390a1505050565b6000600454905090565b610d1c611758565b73ffffffffffffffffffffffffffffffffffffffff16610d3a610e93565b73ffffffffffffffffffffffffffffffffffffffff1614610d90576040517f08c379a0000000000000000000000000000000000000000000000000000000008152600401610d8790611c2d565b60405180910390fd5b610d9a6000611760565b565b610da4611758565b73ffffffffffffffffffffffffffffffffffffffff16610dc2610e93565b73ffffffffffffffffffffffffffffffffffffffff1614610e18576040517f08c379a0000000000000000000000000000000000000000000000000000000008152600401610e0f90611c2d565b60405180910390fd5b80600560006101000a81548173ffffffffffffffffffffffffffffffffffffffff021916908373ffffffffffffffffffffffffffffffffffffffff1602179055507fe8e4ad0e9f08f579138b79a3fb5610b7692b583670bd2f6a4c9e0850ea363eff81604051610e88919061197c565b60405180910390a150565b60008060009054906101000a900473ffffffffffffffffffffffffffffffffffffffff16905090565b610ec4611758565b73ffffffffffffffffffffffffffffffffffffffff16610ee2610e93565b73ffffffffffffffffffffffffffffffffffffffff1614610f38576040517f08c379a0000000000000000000000000000000000000000000000000000000008152600401610f2f90611c2d565b60405180910390fd5b806003819055507fff5fcdf4478baae05e1d5657353963f8ff1507d9c63f91488e9b8532d02ab18681604051610f6e91906118cd565b60405180910390a150565b610f81611758565b73ffffffffffffffffffffffffffffffffffffffff16610f9f610e93565b73ffffffffffffffffffffffffffffffffffffffff1614610ff5576040517f08c379a0000000000000000000000000000000000000000000000000000000008152600401610fec90611c2d565b60405180910390fd5b60016000836bffffffffffffffffffffffff19166bffffffffffffffffffffffff1916815260200190815260200160002060000160009054906101000a900460ff1615611077576040517f08c379a000000000000000000000000000000000000000000000000000000000815260040161106e90611e8c565b60405180910390fd5b6000429050600260008373ffffffffffffffffffffffffffffffffffffffff1673ffffffffffffffffffffffffffffffffffffffff168152602001908152602001600020839080600181540180825580915050600190039060005260206000200160009091909190916101000a81548173ffffffffffffffffffffffffffffffffffffffff02191690836c0100000000000000000000000090040217905550600a600260008473ffffffffffffffffffffffffffffffffffffffff1673ffffffffffffffffffffffffffffffffffffffff168152602001908152602001600020805490501061119b576040517f08c379a000000000000000000000000000000000000000000000000000000000815260040161119290611cee565b60405180910390fd5b60405180608001604052806001151581526020018281526020018373ffffffffffffffffffffffffffffffffffffffff1681526020016001600260008673ffffffffffffffffffffffffffffffffffffffff1673ffffffffffffffffffffffffffffffffffffffff168152602001908152602001600020805490506112209190611a8e565b81525060016000856bffffffffffffffffffffffff19166bffffffffffffffffffffffff1916815260200190815260200160002060008201518160000160006101000a81548160ff0219169083151502179055506020820151816001015560408201518160020160006101000a81548173ffffffffffffffffffffffffffffffffffffffff021916908373ffffffffffffffffffffffffffffffffffffffff16021790555060608201518160030155905050600460008154809291906112e590611b1c565b91905055507f71069449479f1404d8f741920102be94e753b09e8c6b5fd2d2412c66ea0fa15c838360405161131b929190611d1d565b60405180910390a1505050565b611330611758565b73ffffffffffffffffffffffffffffffffffffffff1661134e610e93565b73ffffffffffffffffffffffffffffffffffffffff16146113a4576040517f08c379a000000000000000000000000000000000000000000000000000000000815260040161139b90611c2d565b60405180910390fd5b60016000826bffffffffffffffffffffffff19166bffffffffffffffffffffffff1916815260200190815260200160002060000160009054906101000a900460ff16611425576040517f08c379a000000000000000000000000000000000000000000000000000000000815260040161141c90611bc1565b60405180910390fd5b600060016000836bffffffffffffffffffffffff19166bffffffffffffffffffffffff1916815260200190815260200160002060030154905060006002600060016000866bffffffffffffffffffffffff19166bffffffffffffffffffffffff1916815260200190815260200160002060020160009054906101000a900473ffffffffffffffffffffffffffffffffffffffff1673ffffffffffffffffffffffffffffffffffffffff1673ffffffffffffffffffffffffffffffffffffffff1681526020019081526020016000209050600082111561159b5780600182805490506115109190611a8e565b8154811061152157611520611a30565b5b9060005260206000200160009054906101000a90046c010000000000000000000000000281838154811061155857611557611a30565b5b9060005260206000200160006101000a81548173ffffffffffffffffffffffffffffffffffffffff02191690836c01000000000000000000000000900402179055505b808054806115ac576115ab611c4d565b5b6001900381819060005260206000200160006101000a81549073ffffffffffffffffffffffffffffffffffffffff02191690559055600460008154809291906115f490611eac565b91905055507f95bebc47f6b4a2ddd1a0731a6e2f8fa1165f1d4906892bc4b4f6833e1996c5e6836040516116289190611ed5565b60405180910390a1505050565b61163d611758565b73ffffffffffffffffffffffffffffffffffffffff1661165b610e93565b73ffffffffffffffffffffffffffffffffffffffff16146116b1576040517f08c379a00000000000000000000000000000000000000000000000000000000081526004016116a890611c2d565b60405180910390fd5b600073ffffffffffffffffffffffffffffffffffffffff168173ffffffffffffffffffffffffffffffffffffffff1603611720576040517f08c379a000000000000000000000000000000000000000000000000000000000815260040161171790611f62565b60405180910390fd5b61172981611760565b50565b600080828461173b9190611f82565b90508381101561174e5761174d611fd8565b5b8091505092915050565b600033905090565b60008060009054906101000a900473ffffffffffffffffffffffffffffffffffffffff169050816000806101000a81548173ffffffffffffffffffffffffffffffffffffffff021916908373ffffffffffffffffffffffffffffffffffffffff1602179055508173ffffffffffffffffffffffffffffffffffffffff168173ffffffffffffffffffffffffffffffffffffffff167f8be0079c531659141344cd1fd0a4f28419497f9722a3daafe3b4186f6b6457e060405160405180910390a35050565b600080fd5b600073ffffffffffffffffffffffffffffffffffffffff82169050919050565b600061185482611829565b9050919050565b61186481611849565b811461186f57600080fd5b50565b6000813590506118818161185b565b92915050565b60006020828403121561189d5761189c611824565b5b60006118ab84828501611872565b91505092915050565b6000819050919050565b6118c7816118b4565b82525050565b60006020820190506118e260008301846118be565b92915050565b60007fffffffffffffffffffffffffffffffffffffffff00000000000000000000000082169050919050565b61191d816118e8565b811461192857600080fd5b50565b60008135905061193a81611914565b92915050565b60006020828403121561195657611955611824565b5b60006119648482850161192b565b91505092915050565b61197681611849565b82525050565b6000602082019050611991600083018461196d565b92915050565b600080604083850312156119ae576119ad611824565b5b60006119bc8582860161192b565b92505060206119cd85828601611872565b9150509250929050565b6119e0816118b4565b81146119eb57600080fd5b50565b6000813590506119fd816119d7565b92915050565b600060208284031215611a1957611a18611824565b5b6000611a27848285016119ee565b91505092915050565b7f4e487b7100000000000000000000000000000000000000000000000000000000600052603260045260246000fd5b7f4e487b7100000000000000000000000000000000000000000000000000000000600052601160045260246000fd5b6000611a99826118b4565b9150611aa4836118b4565b925082821015611ab757611ab6611a5f565b5b828203905092915050565b6000611acd826118b4565b9150611ad8836118b4565b9250817fffffffffffffffffffffffffffffffffffffffffffffffffffffffffffffffff0483118215151615611b1157611b10611a5f565b5b828202905092915050565b6000611b27826118b4565b91507fffffffffffffffffffffffffffffffffffffffffffffffffffffffffffffffff8203611b5957611b58611a5f565b5b600182019050919050565b600082825260208201905092915050565b7f4944206e6f7420696e206c697374000000000000000000000000000000000000600082015250565b6000611bab600e83611b64565b9150611bb682611b75565b602082019050919050565b60006020820190508181036000830152611bda81611b9e565b9050919050565b7f4f776e61626c653a2063616c6c6572206973206e6f7420746865206f776e6572600082015250565b6000611c17602083611b64565b9150611c2282611be1565b602082019050919050565b60006020820190508181036000830152611c4681611c0a565b9050919050565b7f4e487b7100000000000000000000000000000000000000000000000000000000600052603160045260246000fd5b7f457468657265756d206164647265737320616c7265616479206d616e6167657360008201527f2031302049447300000000000000000000000000000000000000000000000000602082015250565b6000611cd8602783611b64565b9150611ce382611c7c565b604082019050919050565b60006020820190508181036000830152611d0781611ccb565b9050919050565b611d17816118e8565b82525050565b6000604082019050611d326000830185611d0e565b611d3f602083018461196d565b9392505050565b6000604082019050611d5b600083018561196d565b611d6860208301846118be565b9392505050565b60008115159050919050565b611d8481611d6f565b8114611d8f57600080fd5b50565b600081519050611da181611d7b565b92915050565b600060208284031215611dbd57611dbc611824565b5b6000611dcb84828501611d92565b91505092915050565b7f52657761726420746f6b656e207472616e73666572206661696c656400000000600082015250565b6000611e0a601c83611b64565b9150611e1582611dd4565b602082019050919050565b60006020820190508181036000830152611e3981611dfd565b9050919050565b7f556e6971756520494420616c7265616479207468657265000000000000000000600082015250565b6000611e76601783611b64565b9150611e8182611e40565b602082019050919050565b60006020820190508181036000830152611ea581611e69565b9050919050565b6000611eb7826118b4565b915060008203611eca57611ec9611a5f565b5b600182039050919050565b6000602082019050611eea6000830184611d0e565b92915050565b7f4f776e61626c653a206e6577206f776e657220697320746865207a65726f206160008201527f6464726573730000000000000000000000000000000000000000000000000000602082015250565b6000611f4c602683611b64565b9150611f5782611ef0565b604082019050919050565b60006020820190508181036000830152611f7b81611f3f565b9050919050565b6000611f8d826118b4565b9150611f98836118b4565b9250827fffffffffffffffffffffffffffffffffffffffffffffffffffffffffffffffff03821115611fcd57611fcc611a5f565b5b828201905092915050565b7f4e487b7100000000000000000000000000000000000000000000000000000000600052600160045260246000fdfea2646970667358221220aa18885ffce52721dc9227ee611d47e5a9078b94c57b401c862d8d042e9ea9c264736f6c634300080e0033",
  "immutableReferences": {},
  "source": "// SPDX-License-Identifier: MIT\r\npragma solidity ^0.8.4;\r\nimport \"@openzeppelin/contracts/token/ERC20/IERC20.sol\";\r\nimport \"./IdModificationListener.sol\";\r\n\r\n\r\n\r\nlibrary SafeMath {\r\n\r\n  function mul(uint256 a, uint256 b) internal pure returns (uint256) {\r\n    if (a == 0) {\r\n      return 0;\r\n    }\r\n    uint256 c = a * b;\r\n    assert(c / a == b);\r\n    return c;\r\n  }\r\n\r\n  function div(uint256 a, uint256 b) internal pure returns (uint256) {\r\n    // assert(b > 0); // Solidity automatically throws when dividing by 0\r\n    uint256 c = a / b;\r\n    // assert(a == b * c + a % b); // There is no case in which this doesn't hold\r\n    return c;\r\n  }\r\n\r\n  function sub(uint256 a, uint256 b) internal pure returns (uint256) {\r\n    assert(b <= a);\r\n    return a - b;\r\n  }\r\n\r\n  function add(uint256 a, uint256 b) internal pure returns (uint256) {\r\n    uint256 c = a + b;\r\n    assert(c >= a);\r\n    return c;\r\n  }\r\n}\r\n\r\n\r\n\r\n\r\n/// @title IdFundedRewarder Contract\r\n/// @author Tibo\r\n/// @notice This rewards registered couples (id,EthereumAddress) regularly\r\ncontract IdFundedRewarder is IdModificationListener\r\n{\r\n    using SafeMath for uint256;\r\n\r\n    struct RewardInfo\r\n    {\r\n        bool isInList;\r\n        uint timestamp;\r\n        address ethereumAddress;\r\n        uint indexInArray;\r\n    }\r\n\r\n    \r\n     mapping (bytes20 => RewardInfo) private rewardInfos;\r\n     mapping (address => bytes20[]) private addressToKeys;\r\n     \r\n     uint private nbTokenPerSec = 1;// in wei per sec\r\n     uint nbRegisteredAddresses = 0;\r\n    \r\n    // Reward Token\r\n    IERC20 private rewToken;\r\n\r\n\r\n    // Events\r\n    event rewardTokenChanged(\r\n        address RewTokenAddress\r\n    );\r\n\r\n    event rewardRateChanged(\r\n        uint NewRate\r\n    );\r\n\r\n    event idRegistered(\r\n        bytes20 ID,\r\n        address ethereumAddress\r\n    );\r\n\r\n    event idRemoved(\r\n        bytes20 ID\r\n    );\r\n\r\n    event addressUpdated(\r\n        bytes20 ID,\r\n        address ethereumAddress\r\n    );\r\n\r\n    event addressClaimed(\r\n        address ethereumAddress\r\n    );\r\n\r\n    /**\r\n     *   @notice Set the Reward ERC20 token\r\n     *   \r\n     *   @param RewTokenAddress Address of the reward ERC20\r\n     *\r\n     */\r\n    function setRewardToken(address RewTokenAddress) public onlyOwner\r\n    {\r\n        rewToken = IERC20(RewTokenAddress);\r\n        emit rewardTokenChanged(RewTokenAddress);\r\n    }\r\n\r\n    /**\r\n     *   @notice Set the Reward rate (nb wei per second)\r\n     *   \r\n     *   @param TokensPerSec Nb of wei per second\r\n     *\r\n     */\r\n    function setRewardRate(uint TokensPerSec) public onlyOwner\r\n    {\r\n        nbTokenPerSec = TokensPerSec;\r\n        emit rewardRateChanged(TokensPerSec);\r\n    }\r\n  \r\n    /**\r\n     *   @notice Register an ID with the associated ethereum address\r\n     *   \r\n     *   @param key Unique Id \r\n     *   @param newAddress Ethereum address that will be allowed to claim rewards\r\n     *\r\n     */\r\n    function RegisterAddress(bytes20 key,address newAddress) public onlyOwner\r\n    {\r\n        require (!rewardInfos[key].isInList,\"Unique ID already there\");\r\n        uint current = block.timestamp;\r\n         \r\n        addressToKeys[newAddress].push(key);\r\n        // an address can manage no more than 10 ids\r\n        require(addressToKeys[newAddress].length < 10,\"Ethereum address already manages 10 IDs\");\r\n        rewardInfos[key] = RewardInfo(true,current,newAddress,addressToKeys[newAddress].length-1);\r\n        nbRegisteredAddresses++;\r\n        emit idRegistered(key,newAddress);\r\n    }\r\n\r\n    /**\r\n     *   @notice Removes an ID\r\n     *   \r\n     *   @param key Unique Id \r\n     *\r\n     */\r\n    function RemoveAddress(bytes20 key) public onlyOwner\r\n    {\r\n        require (rewardInfos[key].isInList,\"ID not in list\");\r\n        uint indexInArray = rewardInfos[key].indexInArray;\r\n        // remove in array\r\n        bytes20[] storage arrayOfKeys = addressToKeys[rewardInfos[key].ethereumAddress];\r\n        if (indexInArray > 0)\r\n            arrayOfKeys[indexInArray] = arrayOfKeys[arrayOfKeys.length - 1];\r\n\r\n        arrayOfKeys.pop();\r\n        nbRegisteredAddresses--;\r\n        emit idRemoved(key);\r\n    }\r\n\r\n    /**\r\n     *   @notice Updates the ethereum address that can claim rewards for an ID\r\n     *   \r\n     *   @param key Unique Id \r\n     *   @param newAddress Ethereum address that will be allowed to claim rewards\r\n     *\r\n     */\r\n    function UpdateAddress(bytes20 key,address newAddress) public onlyOwner\r\n    {\r\n        require (rewardInfos[key].isInList,\"ID not in list\");   \r\n        uint indexInArray = rewardInfos[key].indexInArray;\r\n        // remove this key from the keys associated to this adress\r\n       bytes20[] storage arrayOfKeys = addressToKeys[rewardInfos[key].ethereumAddress];\r\n       if (indexInArray > 0)\r\n           arrayOfKeys[indexInArray] = arrayOfKeys[arrayOfKeys.length - 1];\r\n\r\n       arrayOfKeys.pop();\r\n\r\n        // add the key to the new adress\r\n        addressToKeys[newAddress].push(key);\r\n        require(addressToKeys[newAddress].length < 10,\"Ethereum address already manages 10 IDs\");\r\n       \r\n        rewardInfos[key].ethereumAddress = newAddress;\r\n        rewardInfos[key].indexInArray = addressToKeys[newAddress].length - 1;\r\n\r\n        emit addressUpdated(key,newAddress);\r\n    }\r\n\r\n    /**\r\n     *   @notice Returns the number of registered ID\r\n     *   \r\n     *   @return number of IDS that generates rewards\r\n     *   \r\n     *\r\n     */\r\n    function GetNbRegisteredAdresses() public view returns (uint)\r\n    {\r\n        return nbRegisteredAddresses;\r\n    }\r\n\r\n    /**\r\n     *   @notice Returns the ethereum address that can claim rewards for a given key\r\n     *   \r\n     *   @return The ethereum address\r\n     *   \r\n     *\r\n     */\r\n    function GetAddressFromKey(bytes20 key) public view returns (address)\r\n    {\r\n        require (rewardInfos[key].isInList,\"ID not in list\");   \r\n        return rewardInfos[key].ethereumAddress;\r\n    }\r\n\r\n\r\n\r\n\r\n    /**\r\n     *   @notice Returns the nb of tokens claimable for a given ethereum address\r\n     *  \r\n     *   @param ethAddress Ethereum address\r\n     *\r\n     *   @return Number of wei claimable\r\n     *   \r\n     *\r\n     */\r\n    function EstimateRewardForAddress(address ethAddress) public view returns (uint)\r\n    {\r\n        bytes20[] memory keys = addressToKeys[ethAddress];\r\n        uint nbTokens = 0;\r\n        for (uint i =0; i < keys.length;i++)\r\n        {\r\n           if (keys[i] > 0)\r\n           {\r\n               uint current = block.timestamp;\r\n               uint prev = rewardInfos[keys[i]].timestamp;\r\n               uint nbTokensKey = (current - prev) * nbTokenPerSec;\r\n               nbTokens.add(nbTokensKey);\r\n               //nbTokens += nbTokensKey;\r\n           }\r\n        }\r\n        return nbTokens;\r\n    }\r\n\r\n\r\n\r\n    /**\r\n     *   @notice Claim rewards\r\n     *  \r\n     *   \r\n     *\r\n     */\r\n    function Claim() public\r\n    {\r\n        bytes20[] memory keys = addressToKeys[msg.sender];\r\n        uint nbTokens = 0;\r\n        for (uint i =0; i < keys.length;i++)\r\n        {\r\n           if (keys[i] > 0)\r\n           {\r\n               uint current = block.timestamp;\r\n               uint prev = rewardInfos[keys[i]].timestamp;\r\n               uint nbTokensKey = (current - prev) * nbTokenPerSec;\r\n               nbTokens.add(nbTokensKey);\r\n               //nbTokens += nbTokensKey;\r\n               rewardInfos[keys[i]].timestamp = block.timestamp;\r\n           }\r\n        }\r\n        bool res = rewToken.transfer(msg.sender, nbTokens);\r\n        require(res,\"Reward token transfer failed\");\r\n        emit addressClaimed(msg.sender);\r\n       \r\n    }\r\n\r\n}\r\n",
  "sourcePath": "E:\\dev\\soliditytuts\\alyra\\protoProjCertif\\gitRep\\contracts\\IdFundedRewarder.sol",
  "compiler": {
    "name": "solc",
    "version": "0.8.14+commit.80d49f37.Emscripten.clang"
  },
  "schemaVersion": "3.4.3",
  "updatedAt": "2022-05-19T10:17:11.623Z",
  "devdoc": {
    "author": "Tibo",
    "kind": "dev",
    "methods": {
      "EstimateRewardForAddress(address)": {
        "params": {
          "ethAddress": "Ethereum address"
        },
        "returns": {
          "_0": "Number of wei claimable   "
        }
      },
      "GetAddressFromKey(bytes20)": {
        "returns": {
          "_0": "The ethereum address   "
        }
      },
      "GetNbRegisteredAdresses()": {
        "returns": {
          "_0": "number of IDS that generates rewards   "
        }
      },
      "RegisterAddress(bytes20,address)": {
        "params": {
          "key": "Unique Id ",
          "newAddress": "Ethereum address that will be allowed to claim rewards"
        }
      },
      "RemoveAddress(bytes20)": {
        "params": {
          "key": "Unique Id "
        }
      },
      "UpdateAddress(bytes20,address)": {
        "params": {
          "key": "Unique Id ",
          "newAddress": "Ethereum address that will be allowed to claim rewards"
        }
      },
      "owner()": {
        "details": "Returns the address of the current owner."
      },
      "renounceOwnership()": {
        "details": "Leaves the contract without owner. It will not be possible to call `onlyOwner` functions anymore. Can only be called by the current owner. NOTE: Renouncing ownership will leave the contract without an owner, thereby removing any functionality that is only available to the owner."
      },
      "setRewardRate(uint256)": {
        "params": {
          "TokensPerSec": "Nb of wei per second"
        }
      },
      "setRewardToken(address)": {
        "params": {
          "RewTokenAddress": "Address of the reward ERC20"
        }
      },
      "transferOwnership(address)": {
        "details": "Transfers ownership of the contract to a new account (`newOwner`). Can only be called by the current owner."
      }
    },
    "title": "IdFundedRewarder Contract",
    "version": 1
  },
  "userdoc": {
    "kind": "user",
    "methods": {
      "Claim()": {
        "notice": "Claim rewards     "
      },
      "EstimateRewardForAddress(address)": {
        "notice": "Returns the nb of tokens claimable for a given ethereum address  "
      },
      "GetAddressFromKey(bytes20)": {
        "notice": "Returns the ethereum address that can claim rewards for a given key   "
      },
      "GetNbRegisteredAdresses()": {
        "notice": "Returns the number of registered ID   "
      },
      "RegisterAddress(bytes20,address)": {
        "notice": "Register an ID with the associated ethereum address   "
      },
      "RemoveAddress(bytes20)": {
        "notice": "Removes an ID   "
      },
      "UpdateAddress(bytes20,address)": {
        "notice": "Updates the ethereum address that can claim rewards for an ID   "
      },
      "setRewardRate(uint256)": {
        "notice": "Set the Reward rate (nb wei per second)   "
      },
      "setRewardToken(address)": {
        "notice": "Set the Reward ERC20 token   "
      }
    },
    "notice": "This rewards registered couples (id,EthereumAddress) regularly",
    "version": 1
  }
}