{
  "contractName": "IdFundedRewarder",
  "abi": [
    {
      "anonymous": false,
      "inputs": [
        {
          "indexed": true,
          "internalType": "address",
          "name": "previousOwner",
          "type": "address"
        },
        {
          "indexed": true,
          "internalType": "address",
          "name": "newOwner",
          "type": "address"
        }
      ],
      "name": "OwnershipTransferred",
      "type": "event"
    },
    {
      "anonymous": false,
      "inputs": [
        {
          "indexed": false,
          "internalType": "address",
          "name": "ethereumAddress",
          "type": "address"
        }
      ],
      "name": "addressClaimed",
      "type": "event"
    },
    {
      "anonymous": false,
      "inputs": [
        {
          "indexed": false,
          "internalType": "bytes20",
          "name": "ID",
          "type": "bytes20"
        },
        {
          "indexed": false,
          "internalType": "address",
          "name": "ethereumAddress",
          "type": "address"
        }
      ],
      "name": "addressUpdated",
      "type": "event"
    },
    {
      "anonymous": false,
      "inputs": [
        {
          "indexed": false,
          "internalType": "bytes20",
          "name": "ID",
          "type": "bytes20"
        },
        {
          "indexed": false,
          "internalType": "address",
          "name": "ethereumAddress",
          "type": "address"
        }
      ],
      "name": "idRegistered",
      "type": "event"
    },
    {
      "anonymous": false,
      "inputs": [
        {
          "indexed": false,
          "internalType": "bytes20",
          "name": "ID",
          "type": "bytes20"
        }
      ],
      "name": "idRemoved",
      "type": "event"
    },
    {
      "anonymous": false,
      "inputs": [
        {
          "indexed": false,
          "internalType": "uint256",
          "name": "NewRate",
          "type": "uint256"
        }
      ],
      "name": "rewardRateChanged",
      "type": "event"
    },
    {
      "anonymous": false,
      "inputs": [
        {
          "indexed": false,
          "internalType": "address",
          "name": "RewTokenAddress",
          "type": "address"
        }
      ],
      "name": "rewardTokenChanged",
      "type": "event"
    },
    {
      "inputs": [],
      "name": "owner",
      "outputs": [
        {
          "internalType": "address",
          "name": "",
          "type": "address"
        }
      ],
      "stateMutability": "view",
      "type": "function",
      "constant": true
    },
    {
      "inputs": [],
      "name": "renounceOwnership",
      "outputs": [],
      "stateMutability": "nonpayable",
      "type": "function"
    },
    {
      "inputs": [
        {
          "internalType": "address",
          "name": "newOwner",
          "type": "address"
        }
      ],
      "name": "transferOwnership",
      "outputs": [],
      "stateMutability": "nonpayable",
      "type": "function"
    },
    {
      "inputs": [
        {
          "internalType": "address",
          "name": "RewTokenAddress",
          "type": "address"
        }
      ],
      "name": "setRewardToken",
      "outputs": [],
      "stateMutability": "nonpayable",
      "type": "function"
    },
    {
      "inputs": [
        {
          "internalType": "uint256",
          "name": "TokensPerSec",
          "type": "uint256"
        }
      ],
      "name": "setRewardRate",
      "outputs": [],
      "stateMutability": "nonpayable",
      "type": "function"
    },
    {
      "inputs": [
        {
          "internalType": "bytes20",
          "name": "key",
          "type": "bytes20"
        },
        {
          "internalType": "address",
          "name": "newAddress",
          "type": "address"
        }
      ],
      "name": "RegisterAddress",
      "outputs": [],
      "stateMutability": "nonpayable",
      "type": "function"
    },
    {
      "inputs": [
        {
          "internalType": "bytes20",
          "name": "key",
          "type": "bytes20"
        }
      ],
      "name": "RemoveAddress",
      "outputs": [],
      "stateMutability": "nonpayable",
      "type": "function"
    },
    {
      "inputs": [
        {
          "internalType": "bytes20",
          "name": "key",
          "type": "bytes20"
        },
        {
          "internalType": "address",
          "name": "newAddress",
          "type": "address"
        }
      ],
      "name": "UpdateAddress",
      "outputs": [],
      "stateMutability": "nonpayable",
      "type": "function"
    },
    {
      "inputs": [],
      "name": "GetNbRegisteredAdresses",
      "outputs": [
        {
          "internalType": "uint256",
          "name": "",
          "type": "uint256"
        }
      ],
      "stateMutability": "view",
      "type": "function",
      "constant": true
    },
    {
      "inputs": [
        {
          "internalType": "bytes20",
          "name": "key",
          "type": "bytes20"
        }
      ],
      "name": "GetAddressFromKey",
      "outputs": [
        {
          "internalType": "address",
          "name": "",
          "type": "address"
        }
      ],
      "stateMutability": "view",
      "type": "function",
      "constant": true
    },
    {
      "inputs": [
        {
          "internalType": "address",
          "name": "ethAddress",
          "type": "address"
        }
      ],
      "name": "EstimateRewardForAddress",
      "outputs": [
        {
          "internalType": "uint256",
          "name": "",
          "type": "uint256"
        }
      ],
      "stateMutability": "view",
      "type": "function",
      "constant": true
    },
    {
      "inputs": [],
      "name": "Claim",
      "outputs": [],
      "stateMutability": "nonpayable",
      "type": "function"
    }
  ],
  "bytecode": "0x60806040526001600355600060045534801561001a57600080fd5b5061004961003561004e640100000000026401000000009004565b610056640100000000026401000000009004565b61011a565b600033905090565b60008060009054906101000a900473ffffffffffffffffffffffffffffffffffffffff169050816000806101000a81548173ffffffffffffffffffffffffffffffffffffffff021916908373ffffffffffffffffffffffffffffffffffffffff1602179055508173ffffffffffffffffffffffffffffffffffffffff168173ffffffffffffffffffffffffffffffffffffffff167f8be0079c531659141344cd1fd0a4f28419497f9722a3daafe3b4186f6b6457e060405160405180910390a35050565b611fd6806101296000396000f3fe608060405234801561001057600080fd5b50600436106100d1576000357c0100000000000000000000000000000000000000000000000000000000900480638aee81271161008e5780638aee8127146101845780638da5cb5b146101a05780639e447fc6146101be578063a6b31c84146101da578063da0dc1b9146101f6578063f2fde38b14610212576100d1565b8063090616f0146100d65780630a0e254b146101065780632c75c37a146101365780633158952e146101525780635dbedf9e1461015c578063715018a61461017a575b600080fd5b6100f060048036038101906100eb919061184f565b61022e565b6040516100fd9190611895565b60405180910390f35b610120600480360381019061011b9190611908565b6103dc565b60405161012d9190611944565b60405180910390f35b610150600480360381019061014b919061195f565b6104bb565b005b61015a6109cc565b005b610164610cfe565b6040516101719190611895565b60405180910390f35b610182610d08565b005b61019e6004803603810190610199919061184f565b610d90565b005b6101a8610e87565b6040516101b59190611944565b60405180910390f35b6101d860048036038101906101d391906119cb565b610eb0565b005b6101f460048036038101906101ef919061195f565b610f6d565b005b610210600480360381019061020b9190611908565b61131c565b005b61022c6004803603810190610227919061184f565b611629565b005b600080600260008473ffffffffffffffffffffffffffffffffffffffff1673ffffffffffffffffffffffffffffffffffffffff1681526020019081526020016000208054806020026020016040519081016040528092919081815260200182805480156102e257602002820191906000526020600020905b8160009054906101000a90046c01000000000000000000000000026bffffffffffffffffffffffff1916815260200190600101908083116102a6575b505050505090506000805b82518110156103d15760006c010000000000000000000000000283828151811061031a576103196119f8565b5b60200260200101516bffffffffffffffffffffffff191611156103be576000429050600060016000868581518110610355576103546119f8565b5b60200260200101516bffffffffffffffffffffffff19166bffffffffffffffffffffffff19168152602001908152602001600020600101549050600060035482846103a09190611a56565b6103aa9190611a8a565b905080856103b89190611ae4565b94505050505b80806103c990611b3a565b9150506102ed565b508092505050919050565b600060016000836bffffffffffffffffffffffff19166bffffffffffffffffffffffff1916815260200190815260200160002060000160009054906101000a900460ff1661045f576040517f08c379a000000000000000000000000000000000000000000000000000000000815260040161045690611bdf565b60405180910390fd5b60016000836bffffffffffffffffffffffff19166bffffffffffffffffffffffff1916815260200190815260200160002060020160009054906101000a900473ffffffffffffffffffffffffffffffffffffffff169050919050565b6104c3611720565b73ffffffffffffffffffffffffffffffffffffffff166104e1610e87565b73ffffffffffffffffffffffffffffffffffffffff1614610537576040517f08c379a000000000000000000000000000000000000000000000000000000000815260040161052e90611c4b565b60405180910390fd5b60016000836bffffffffffffffffffffffff19166bffffffffffffffffffffffff1916815260200190815260200160002060000160009054906101000a900460ff166105b8576040517f08c379a00000000000000000000000000000000000000000000000000000000081526004016105af90611bdf565b60405180910390fd5b600060016000846bffffffffffffffffffffffff19166bffffffffffffffffffffffff1916815260200190815260200160002060030154905060006002600060016000876bffffffffffffffffffffffff19166bffffffffffffffffffffffff1916815260200190815260200160002060020160009054906101000a900473ffffffffffffffffffffffffffffffffffffffff1673ffffffffffffffffffffffffffffffffffffffff1673ffffffffffffffffffffffffffffffffffffffff1681526020019081526020016000209050600082111561072e5780600182805490506106a39190611a56565b815481106106b4576106b36119f8565b5b9060005260206000200160009054906101000a90046c01000000000000000000000000028183815481106106eb576106ea6119f8565b5b9060005260206000200160006101000a81548173ffffffffffffffffffffffffffffffffffffffff02191690836c01000000000000000000000000900402179055505b8080548061073f5761073e611c6b565b5b6001900381819060005260206000200160006101000a81549073ffffffffffffffffffffffffffffffffffffffff02191690559055600260008473ffffffffffffffffffffffffffffffffffffffff1673ffffffffffffffffffffffffffffffffffffffff168152602001908152602001600020849080600181540180825580915050600190039060005260206000200160009091909190916101000a81548173ffffffffffffffffffffffffffffffffffffffff02191690836c0100000000000000000000000090040217905550600a600260008573ffffffffffffffffffffffffffffffffffffffff1673ffffffffffffffffffffffffffffffffffffffff1681526020019081526020016000208054905010610893576040517f08c379a000000000000000000000000000000000000000000000000000000000815260040161088a90611d0c565b60405180910390fd5b8260016000866bffffffffffffffffffffffff19166bffffffffffffffffffffffff1916815260200190815260200160002060020160006101000a81548173ffffffffffffffffffffffffffffffffffffffff021916908373ffffffffffffffffffffffffffffffffffffffff1602179055506001600260008573ffffffffffffffffffffffffffffffffffffffff1673ffffffffffffffffffffffffffffffffffffffff168152602001908152602001600020805490506109559190611a56565b60016000866bffffffffffffffffffffffff19166bffffffffffffffffffffffff19168152602001908152602001600020600301819055507f71d16f7ba31ce6cfa8c222e2866481dc2febef566b0f57f48e2b8682066b327284846040516109be929190611d3b565b60405180910390a150505050565b6000600260003373ffffffffffffffffffffffffffffffffffffffff1673ffffffffffffffffffffffffffffffffffffffff168152602001908152602001600020805480602002602001604051908101604052809291908181526020018280548015610a7f57602002820191906000526020600020905b8160009054906101000a90046c01000000000000000000000000026bffffffffffffffffffffffff191681526020019060010190808311610a43575b505050505090506000805b8251811015610bc15760006c0100000000000000000000000002838281518110610ab757610ab66119f8565b5b60200260200101516bffffffffffffffffffffffff19161115610bae576000429050600060016000868581518110610af257610af16119f8565b5b60200260200101516bffffffffffffffffffffffff19166bffffffffffffffffffffffff1916815260200190815260200160002060010154905060006003548284610b3d9190611a56565b610b479190611a8a565b90508085610b559190611ae4565b94504260016000888781518110610b6f57610b6e6119f8565b5b60200260200101516bffffffffffffffffffffffff19166bffffffffffffffffffffffff19168152602001908152602001600020600101819055505050505b8080610bb990611b3a565b915050610a8a565b506000600560009054906101000a900473ffffffffffffffffffffffffffffffffffffffff1673ffffffffffffffffffffffffffffffffffffffff1663a9059cbb33846040518363ffffffff167c0100000000000000000000000000000000000000000000000000000000028152600401610c3d929190611d64565b6020604051808303816000875af1158015610c5c573d6000803e3d6000fd5b505050506040513d601f19601f82011682018060405250810190610c809190611dc5565b905080610cc2576040517f08c379a0000000000000000000000000000000000000000000000000000000008152600401610cb990611e3e565b60405180910390fd5b7f772dc32fd4634e04156fbc2ca2a50501b296e61485b59f63e473b52cbae86b5d33604051610cf19190611944565b60405180910390a1505050565b6000600454905090565b610d10611720565b73ffffffffffffffffffffffffffffffffffffffff16610d2e610e87565b73ffffffffffffffffffffffffffffffffffffffff1614610d84576040517f08c379a0000000000000000000000000000000000000000000000000000000008152600401610d7b90611c4b565b60405180910390fd5b610d8e6000611728565b565b610d98611720565b73ffffffffffffffffffffffffffffffffffffffff16610db6610e87565b73ffffffffffffffffffffffffffffffffffffffff1614610e0c576040517f08c379a0000000000000000000000000000000000000000000000000000000008152600401610e0390611c4b565b60405180910390fd5b80600560006101000a81548173ffffffffffffffffffffffffffffffffffffffff021916908373ffffffffffffffffffffffffffffffffffffffff1602179055507fe8e4ad0e9f08f579138b79a3fb5610b7692b583670bd2f6a4c9e0850ea363eff81604051610e7c9190611944565b60405180910390a150565b60008060009054906101000a900473ffffffffffffffffffffffffffffffffffffffff16905090565b610eb8611720565b73ffffffffffffffffffffffffffffffffffffffff16610ed6610e87565b73ffffffffffffffffffffffffffffffffffffffff1614610f2c576040517f08c379a0000000000000000000000000000000000000000000000000000000008152600401610f2390611c4b565b60405180910390fd5b806003819055507fff5fcdf4478baae05e1d5657353963f8ff1507d9c63f91488e9b8532d02ab18681604051610f629190611895565b60405180910390a150565b610f75611720565b73ffffffffffffffffffffffffffffffffffffffff16610f93610e87565b73ffffffffffffffffffffffffffffffffffffffff1614610fe9576040517f08c379a0000000000000000000000000000000000000000000000000000000008152600401610fe090611c4b565b60405180910390fd5b60016000836bffffffffffffffffffffffff19166bffffffffffffffffffffffff1916815260200190815260200160002060000160009054906101000a900460ff161561106b576040517f08c379a000000000000000000000000000000000000000000000000000000000815260040161106290611eaa565b60405180910390fd5b6000429050600260008373ffffffffffffffffffffffffffffffffffffffff1673ffffffffffffffffffffffffffffffffffffffff168152602001908152602001600020839080600181540180825580915050600190039060005260206000200160009091909190916101000a81548173ffffffffffffffffffffffffffffffffffffffff02191690836c0100000000000000000000000090040217905550600a600260008473ffffffffffffffffffffffffffffffffffffffff1673ffffffffffffffffffffffffffffffffffffffff168152602001908152602001600020805490501061118f576040517f08c379a000000000000000000000000000000000000000000000000000000000815260040161118690611d0c565b60405180910390fd5b60405180608001604052806001151581526020018281526020018373ffffffffffffffffffffffffffffffffffffffff1681526020016001600260008673ffffffffffffffffffffffffffffffffffffffff1673ffffffffffffffffffffffffffffffffffffffff168152602001908152602001600020805490506112149190611a56565b81525060016000856bffffffffffffffffffffffff19166bffffffffffffffffffffffff1916815260200190815260200160002060008201518160000160006101000a81548160ff0219169083151502179055506020820151816001015560408201518160020160006101000a81548173ffffffffffffffffffffffffffffffffffffffff021916908373ffffffffffffffffffffffffffffffffffffffff16021790555060608201518160030155905050600460008154809291906112d990611b3a565b91905055507f71069449479f1404d8f741920102be94e753b09e8c6b5fd2d2412c66ea0fa15c838360405161130f929190611d3b565b60405180910390a1505050565b611324611720565b73ffffffffffffffffffffffffffffffffffffffff16611342610e87565b73ffffffffffffffffffffffffffffffffffffffff1614611398576040517f08c379a000000000000000000000000000000000000000000000000000000000815260040161138f90611c4b565b60405180910390fd5b60016000826bffffffffffffffffffffffff19166bffffffffffffffffffffffff1916815260200190815260200160002060000160009054906101000a900460ff16611419576040517f08c379a000000000000000000000000000000000000000000000000000000000815260040161141090611bdf565b60405180910390fd5b600060016000836bffffffffffffffffffffffff19166bffffffffffffffffffffffff1916815260200190815260200160002060030154905060006002600060016000866bffffffffffffffffffffffff19166bffffffffffffffffffffffff1916815260200190815260200160002060020160009054906101000a900473ffffffffffffffffffffffffffffffffffffffff1673ffffffffffffffffffffffffffffffffffffffff1673ffffffffffffffffffffffffffffffffffffffff1681526020019081526020016000209050600082111561158f5780600182805490506115049190611a56565b81548110611515576115146119f8565b5b9060005260206000200160009054906101000a90046c010000000000000000000000000281838154811061154c5761154b6119f8565b5b9060005260206000200160006101000a81548173ffffffffffffffffffffffffffffffffffffffff02191690836c01000000000000000000000000900402179055505b808054806115a05761159f611c6b565b5b6001900381819060005260206000200160006101000a81549073ffffffffffffffffffffffffffffffffffffffff02191690559055600460008154809291906115e890611eca565b91905055507f95bebc47f6b4a2ddd1a0731a6e2f8fa1165f1d4906892bc4b4f6833e1996c5e68360405161161c9190611ef3565b60405180910390a1505050565b611631611720565b73ffffffffffffffffffffffffffffffffffffffff1661164f610e87565b73ffffffffffffffffffffffffffffffffffffffff16146116a5576040517f08c379a000000000000000000000000000000000000000000000000000000000815260040161169c90611c4b565b60405180910390fd5b600073ffffffffffffffffffffffffffffffffffffffff168173ffffffffffffffffffffffffffffffffffffffff1603611714576040517f08c379a000000000000000000000000000000000000000000000000000000000815260040161170b90611f80565b60405180910390fd5b61171d81611728565b50565b600033905090565b60008060009054906101000a900473ffffffffffffffffffffffffffffffffffffffff169050816000806101000a81548173ffffffffffffffffffffffffffffffffffffffff021916908373ffffffffffffffffffffffffffffffffffffffff1602179055508173ffffffffffffffffffffffffffffffffffffffff168173ffffffffffffffffffffffffffffffffffffffff167f8be0079c531659141344cd1fd0a4f28419497f9722a3daafe3b4186f6b6457e060405160405180910390a35050565b600080fd5b600073ffffffffffffffffffffffffffffffffffffffff82169050919050565b600061181c826117f1565b9050919050565b61182c81611811565b811461183757600080fd5b50565b60008135905061184981611823565b92915050565b600060208284031215611865576118646117ec565b5b60006118738482850161183a565b91505092915050565b6000819050919050565b61188f8161187c565b82525050565b60006020820190506118aa6000830184611886565b92915050565b60007fffffffffffffffffffffffffffffffffffffffff00000000000000000000000082169050919050565b6118e5816118b0565b81146118f057600080fd5b50565b600081359050611902816118dc565b92915050565b60006020828403121561191e5761191d6117ec565b5b600061192c848285016118f3565b91505092915050565b61193e81611811565b82525050565b60006020820190506119596000830184611935565b92915050565b60008060408385031215611976576119756117ec565b5b6000611984858286016118f3565b92505060206119958582860161183a565b9150509250929050565b6119a88161187c565b81146119b357600080fd5b50565b6000813590506119c58161199f565b92915050565b6000602082840312156119e1576119e06117ec565b5b60006119ef848285016119b6565b91505092915050565b7f4e487b7100000000000000000000000000000000000000000000000000000000600052603260045260246000fd5b7f4e487b7100000000000000000000000000000000000000000000000000000000600052601160045260246000fd5b6000611a618261187c565b9150611a6c8361187c565b925082821015611a7f57611a7e611a27565b5b828203905092915050565b6000611a958261187c565b9150611aa08361187c565b9250817fffffffffffffffffffffffffffffffffffffffffffffffffffffffffffffffff0483118215151615611ad957611ad8611a27565b5b828202905092915050565b6000611aef8261187c565b9150611afa8361187c565b9250827fffffffffffffffffffffffffffffffffffffffffffffffffffffffffffffffff03821115611b2f57611b2e611a27565b5b828201905092915050565b6000611b458261187c565b91507fffffffffffffffffffffffffffffffffffffffffffffffffffffffffffffffff8203611b7757611b76611a27565b5b600182019050919050565b600082825260208201905092915050565b7f4944206e6f7420696e206c697374000000000000000000000000000000000000600082015250565b6000611bc9600e83611b82565b9150611bd482611b93565b602082019050919050565b60006020820190508181036000830152611bf881611bbc565b9050919050565b7f4f776e61626c653a2063616c6c6572206973206e6f7420746865206f776e6572600082015250565b6000611c35602083611b82565b9150611c4082611bff565b602082019050919050565b60006020820190508181036000830152611c6481611c28565b9050919050565b7f4e487b7100000000000000000000000000000000000000000000000000000000600052603160045260246000fd5b7f457468657265756d206164647265737320616c7265616479206d616e6167657360008201527f2031302049447300000000000000000000000000000000000000000000000000602082015250565b6000611cf6602783611b82565b9150611d0182611c9a565b604082019050919050565b60006020820190508181036000830152611d2581611ce9565b9050919050565b611d35816118b0565b82525050565b6000604082019050611d506000830185611d2c565b611d5d6020830184611935565b9392505050565b6000604082019050611d796000830185611935565b611d866020830184611886565b9392505050565b60008115159050919050565b611da281611d8d565b8114611dad57600080fd5b50565b600081519050611dbf81611d99565b92915050565b600060208284031215611ddb57611dda6117ec565b5b6000611de984828501611db0565b91505092915050565b7f52657761726420746f6b656e207472616e73666572206661696c656400000000600082015250565b6000611e28601c83611b82565b9150611e3382611df2565b602082019050919050565b60006020820190508181036000830152611e5781611e1b565b9050919050565b7f556e6971756520494420616c7265616479207468657265000000000000000000600082015250565b6000611e94601783611b82565b9150611e9f82611e5e565b602082019050919050565b60006020820190508181036000830152611ec381611e87565b9050919050565b6000611ed58261187c565b915060008203611ee857611ee7611a27565b5b600182039050919050565b6000602082019050611f086000830184611d2c565b92915050565b7f4f776e61626c653a206e6577206f776e657220697320746865207a65726f206160008201527f6464726573730000000000000000000000000000000000000000000000000000602082015250565b6000611f6a602683611b82565b9150611f7582611f0e565b604082019050919050565b60006020820190508181036000830152611f9981611f5d565b905091905056fea264697066735822122092cd485a5297d16c79dccddc8725e63335b48a462487b28b2710aa65e3ea383d64736f6c634300080e0033",
  "immutableReferences": {},
  "source": "// SPDX-License-Identifier: MIT\r\npragma solidity ^0.8.4;\r\nimport \"@openzeppelin/contracts/token/ERC20/IERC20.sol\";\r\nimport \"./IdModificationListener.sol\";\r\n\r\n// todo: events\r\n// todo: doc solidity\r\n// todo: change owner (in deploy) so that main contract can register\r\n\r\n\r\n\r\n\r\n\r\n/// @title IdFundedRewarder Contract\r\n/// @author Tibo\r\n/// @notice This rewards registered couples (id,EthereumAddress) regularly\r\ncontract IdFundedRewarder is IdModificationListener\r\n{\r\n    struct RewardInfo\r\n    {\r\n        bool isInList;\r\n        uint timestamp;\r\n        address ethereumAddress;\r\n        uint indexInArray;\r\n    }\r\n\r\n    \r\n     mapping (bytes20 => RewardInfo) private rewardInfos;\r\n     mapping (address => bytes20[]) private addressToKeys;\r\n     \r\n     uint private nbTokenPerSec = 1;// in wei per sec\r\n     uint nbRegisteredAddresses = 0;\r\n    \r\n    // Reward Token\r\n    IERC20 private rewToken;\r\n\r\n\r\n    // Events\r\n    event rewardTokenChanged(\r\n        address RewTokenAddress\r\n    );\r\n\r\n    event rewardRateChanged(\r\n        uint NewRate\r\n    );\r\n\r\n    event idRegistered(\r\n        bytes20 ID,\r\n        address ethereumAddress\r\n    );\r\n\r\n    event idRemoved(\r\n        bytes20 ID\r\n    );\r\n\r\n    event addressUpdated(\r\n        bytes20 ID,\r\n        address ethereumAddress\r\n    );\r\n\r\n    event addressClaimed(\r\n        address ethereumAddress\r\n    );\r\n\r\n    /**\r\n     *   @notice Set the Reward ERC20 token\r\n     *   \r\n     *   @param RewTokenAddress Address of the reward ERC20\r\n     *\r\n     */\r\n    function setRewardToken(address RewTokenAddress) public onlyOwner\r\n    {\r\n        rewToken = IERC20(RewTokenAddress);\r\n        emit rewardTokenChanged(RewTokenAddress);\r\n    }\r\n\r\n    /**\r\n     *   @notice Set the Reward rate (nb wei per second)\r\n     *   \r\n     *   @param TokensPerSec Nb of wei per second\r\n     *\r\n     */\r\n    function setRewardRate(uint TokensPerSec) public onlyOwner\r\n    {\r\n        nbTokenPerSec = TokensPerSec;\r\n        emit rewardRateChanged(TokensPerSec);\r\n    }\r\n  \r\n    /**\r\n     *   @notice Register an ID with the associated ethereum address\r\n     *   \r\n     *   @param key Unique Id \r\n     *   @param newAddress Ethereum address that will be allowed to claim rewards\r\n     *\r\n     */\r\n    function RegisterAddress(bytes20 key,address newAddress) public onlyOwner\r\n    {\r\n        require (!rewardInfos[key].isInList,\"Unique ID already there\");\r\n        uint current = block.timestamp;\r\n         \r\n        addressToKeys[newAddress].push(key);\r\n        // an address can manage no more than 10 ids\r\n        require(addressToKeys[newAddress].length < 10,\"Ethereum address already manages 10 IDs\");\r\n        rewardInfos[key] = RewardInfo(true,current,newAddress,addressToKeys[newAddress].length-1);\r\n        nbRegisteredAddresses++;\r\n        emit idRegistered(key,newAddress);\r\n    }\r\n\r\n    /**\r\n     *   @notice Removes an ID\r\n     *   \r\n     *   @param key Unique Id \r\n     *\r\n     */\r\n    function RemoveAddress(bytes20 key) public onlyOwner\r\n    {\r\n        require (rewardInfos[key].isInList,\"ID not in list\");\r\n        uint indexInArray = rewardInfos[key].indexInArray;\r\n        // remove in array\r\n        bytes20[] storage arrayOfKeys = addressToKeys[rewardInfos[key].ethereumAddress];\r\n        if (indexInArray > 0)\r\n            arrayOfKeys[indexInArray] = arrayOfKeys[arrayOfKeys.length - 1];\r\n\r\n        arrayOfKeys.pop();\r\n        nbRegisteredAddresses--;\r\n        emit idRemoved(key);\r\n    }\r\n\r\n    /**\r\n     *   @notice Updates the ethereum address that can claim rewards for an ID\r\n     *   \r\n     *   @param key Unique Id \r\n     *   @param newAddress Ethereum address that will be allowed to claim rewards\r\n     *\r\n     */\r\n    function UpdateAddress(bytes20 key,address newAddress) public onlyOwner\r\n    {\r\n        require (rewardInfos[key].isInList,\"ID not in list\");   \r\n        uint indexInArray = rewardInfos[key].indexInArray;\r\n        // remove this key from the keys associated to this adress\r\n       bytes20[] storage arrayOfKeys = addressToKeys[rewardInfos[key].ethereumAddress];\r\n       if (indexInArray > 0)\r\n           arrayOfKeys[indexInArray] = arrayOfKeys[arrayOfKeys.length - 1];\r\n\r\n       arrayOfKeys.pop();\r\n\r\n        // add the key to the new adress\r\n        addressToKeys[newAddress].push(key);\r\n        require(addressToKeys[newAddress].length < 10,\"Ethereum address already manages 10 IDs\");\r\n       \r\n        rewardInfos[key].ethereumAddress = newAddress;\r\n        rewardInfos[key].indexInArray = addressToKeys[newAddress].length - 1;\r\n\r\n        emit addressUpdated(key,newAddress);\r\n    }\r\n\r\n    /**\r\n     *   @notice Returns the number of registered ID\r\n     *   \r\n     *   @return number of IDS that generates rewards\r\n     *   \r\n     *\r\n     */\r\n    function GetNbRegisteredAdresses() public view returns (uint)\r\n    {\r\n        return nbRegisteredAddresses;\r\n    }\r\n\r\n    /**\r\n     *   @notice Returns the ethereum address that can claim rewards for a given key\r\n     *   \r\n     *   @return The ethereum address\r\n     *   \r\n     *\r\n     */\r\n    function GetAddressFromKey(bytes20 key) public view returns (address)\r\n    {\r\n        require (rewardInfos[key].isInList,\"ID not in list\");   \r\n        return rewardInfos[key].ethereumAddress;\r\n    }\r\n\r\n\r\n\r\n\r\n    /**\r\n     *   @notice Returns the nb of tokens claimable for a given ethereum address\r\n     *  \r\n     *   @param ethAddress Ethereum address\r\n     *\r\n     *   @return Number of wei claimable\r\n     *   \r\n     *\r\n     */\r\n    function EstimateRewardForAddress(address ethAddress) public view returns (uint)\r\n    {\r\n        bytes20[] memory keys = addressToKeys[ethAddress];\r\n        uint nbTokens = 0;\r\n        for (uint i =0; i < keys.length;i++)\r\n        {\r\n           if (keys[i] > 0)\r\n           {\r\n               uint current = block.timestamp;\r\n               uint prev = rewardInfos[keys[i]].timestamp;\r\n               uint nbTokensKey = (current - prev) * nbTokenPerSec;\r\n               nbTokens += nbTokensKey;\r\n           }\r\n        }\r\n        return nbTokens;\r\n    }\r\n\r\n\r\n\r\n    /**\r\n     *   @notice Claim rewards\r\n     *  \r\n     *   \r\n     *\r\n     */\r\n    function Claim() public\r\n    {\r\n        bytes20[] memory keys = addressToKeys[msg.sender];\r\n        uint nbTokens = 0;\r\n        for (uint i =0; i < keys.length;i++)\r\n        {\r\n           if (keys[i] > 0)\r\n           {\r\n               uint current = block.timestamp;\r\n               uint prev = rewardInfos[keys[i]].timestamp;\r\n               uint nbTokensKey = (current - prev) * nbTokenPerSec;\r\n               nbTokens += nbTokensKey;\r\n               rewardInfos[keys[i]].timestamp = block.timestamp;\r\n           }\r\n        }\r\n        bool res = rewToken.transfer(msg.sender, nbTokens);\r\n        require(res,\"Reward token transfer failed\");\r\n        emit addressClaimed(msg.sender);\r\n       \r\n    }\r\n\r\n}\r\n",
  "sourcePath": "E:\\dev\\soliditytuts\\alyra\\protoProjCertif\\gitRep\\contracts\\IdFundedRewarder.sol",
  "compiler": {
    "name": "solc",
    "version": "0.8.14+commit.80d49f37.Emscripten.clang"
  },
  "schemaVersion": "3.4.3",
  "updatedAt": "2022-05-18T20:11:57.097Z",
  "networkType": "ethereum",
  "devdoc": {
    "author": "Tibo",
    "kind": "dev",
    "methods": {
      "EstimateRewardForAddress(address)": {
        "params": {
          "ethAddress": "Ethereum address"
        },
        "returns": {
          "_0": "Number of wei claimable   "
        }
      },
      "GetAddressFromKey(bytes20)": {
        "returns": {
          "_0": "The ethereum address   "
        }
      },
      "GetNbRegisteredAdresses()": {
        "returns": {
          "_0": "number of IDS that generates rewards   "
        }
      },
      "RegisterAddress(bytes20,address)": {
        "params": {
          "key": "Unique Id ",
          "newAddress": "Ethereum address that will be allowed to claim rewards"
        }
      },
      "RemoveAddress(bytes20)": {
        "params": {
          "key": "Unique Id "
        }
      },
      "UpdateAddress(bytes20,address)": {
        "params": {
          "key": "Unique Id ",
          "newAddress": "Ethereum address that will be allowed to claim rewards"
        }
      },
      "owner()": {
        "details": "Returns the address of the current owner."
      },
      "renounceOwnership()": {
        "details": "Leaves the contract without owner. It will not be possible to call `onlyOwner` functions anymore. Can only be called by the current owner. NOTE: Renouncing ownership will leave the contract without an owner, thereby removing any functionality that is only available to the owner."
      },
      "setRewardRate(uint256)": {
        "params": {
          "TokensPerSec": "Nb of wei per second"
        }
      },
      "setRewardToken(address)": {
        "params": {
          "RewTokenAddress": "Address of the reward ERC20"
        }
      },
      "transferOwnership(address)": {
        "details": "Transfers ownership of the contract to a new account (`newOwner`). Can only be called by the current owner."
      }
    },
    "title": "IdFundedRewarder Contract",
    "version": 1
  },
  "userdoc": {
    "kind": "user",
    "methods": {
      "Claim()": {
        "notice": "Claim rewards     "
      },
      "EstimateRewardForAddress(address)": {
        "notice": "Returns the nb of tokens claimable for a given ethereum address  "
      },
      "GetAddressFromKey(bytes20)": {
        "notice": "Returns the ethereum address that can claim rewards for a given key   "
      },
      "GetNbRegisteredAdresses()": {
        "notice": "Returns the number of registered ID   "
      },
      "RegisterAddress(bytes20,address)": {
        "notice": "Register an ID with the associated ethereum address   "
      },
      "RemoveAddress(bytes20)": {
        "notice": "Removes an ID   "
      },
      "UpdateAddress(bytes20,address)": {
        "notice": "Updates the ethereum address that can claim rewards for an ID   "
      },
      "setRewardRate(uint256)": {
        "notice": "Set the Reward rate (nb wei per second)   "
      },
      "setRewardToken(address)": {
        "notice": "Set the Reward ERC20 token   "
      }
    },
    "notice": "This rewards registered couples (id,EthereumAddress) regularly",
    "version": 1
  }
}