{
  "contractName": "IdFundedRewarder",
  "abi": [
    {
      "anonymous": false,
      "inputs": [
        {
          "indexed": true,
          "internalType": "address",
          "name": "previousOwner",
          "type": "address"
        },
        {
          "indexed": true,
          "internalType": "address",
          "name": "newOwner",
          "type": "address"
        }
      ],
      "name": "OwnershipTransferred",
      "type": "event"
    },
    {
      "inputs": [],
      "name": "owner",
      "outputs": [
        {
          "internalType": "address",
          "name": "",
          "type": "address"
        }
      ],
      "stateMutability": "view",
      "type": "function",
      "constant": true
    },
    {
      "inputs": [],
      "name": "renounceOwnership",
      "outputs": [],
      "stateMutability": "nonpayable",
      "type": "function"
    },
    {
      "inputs": [
        {
          "internalType": "address",
          "name": "newOwner",
          "type": "address"
        }
      ],
      "name": "transferOwnership",
      "outputs": [],
      "stateMutability": "nonpayable",
      "type": "function"
    },
    {
      "inputs": [
        {
          "internalType": "address",
          "name": "RewTokenAddress",
          "type": "address"
        }
      ],
      "name": "setRewardToken",
      "outputs": [],
      "stateMutability": "nonpayable",
      "type": "function"
    },
    {
      "inputs": [
        {
          "internalType": "uint256",
          "name": "TokensPerSec",
          "type": "uint256"
        }
      ],
      "name": "setRewardRate",
      "outputs": [],
      "stateMutability": "nonpayable",
      "type": "function"
    },
    {
      "inputs": [
        {
          "internalType": "uint256",
          "name": "key",
          "type": "uint256"
        },
        {
          "internalType": "address",
          "name": "newAddress",
          "type": "address"
        }
      ],
      "name": "RegisterAddress",
      "outputs": [],
      "stateMutability": "nonpayable",
      "type": "function"
    },
    {
      "inputs": [
        {
          "internalType": "uint256",
          "name": "key",
          "type": "uint256"
        }
      ],
      "name": "RemoveAddress",
      "outputs": [],
      "stateMutability": "nonpayable",
      "type": "function"
    },
    {
      "inputs": [
        {
          "internalType": "uint256",
          "name": "key",
          "type": "uint256"
        },
        {
          "internalType": "address",
          "name": "newAddress",
          "type": "address"
        }
      ],
      "name": "UpdateAddress",
      "outputs": [],
      "stateMutability": "nonpayable",
      "type": "function"
    },
    {
      "inputs": [],
      "name": "GetNbRegisteredAdresses",
      "outputs": [
        {
          "internalType": "uint256",
          "name": "",
          "type": "uint256"
        }
      ],
      "stateMutability": "view",
      "type": "function",
      "constant": true
    },
    {
      "inputs": [
        {
          "internalType": "uint256",
          "name": "key",
          "type": "uint256"
        }
      ],
      "name": "GetAddressFromKey",
      "outputs": [
        {
          "internalType": "address",
          "name": "",
          "type": "address"
        }
      ],
      "stateMutability": "view",
      "type": "function",
      "constant": true
    },
    {
      "inputs": [
        {
          "internalType": "uint256",
          "name": "key",
          "type": "uint256"
        }
      ],
      "name": "EstimateReward",
      "outputs": [
        {
          "internalType": "uint256",
          "name": "",
          "type": "uint256"
        }
      ],
      "stateMutability": "view",
      "type": "function",
      "constant": true
    },
    {
      "inputs": [
        {
          "internalType": "address",
          "name": "ethAddress",
          "type": "address"
        }
      ],
      "name": "EstimateRewardForAddress",
      "outputs": [
        {
          "internalType": "uint256",
          "name": "",
          "type": "uint256"
        }
      ],
      "stateMutability": "view",
      "type": "function",
      "constant": true
    },
    {
      "inputs": [
        {
          "internalType": "address",
          "name": "ethAddress",
          "type": "address"
        }
      ],
      "name": "IsRegisteredAdress",
      "outputs": [
        {
          "internalType": "bool",
          "name": "",
          "type": "bool"
        }
      ],
      "stateMutability": "view",
      "type": "function",
      "constant": true
    },
    {
      "inputs": [],
      "name": "Claim",
      "outputs": [],
      "stateMutability": "nonpayable",
      "type": "function"
    }
  ],
  "bytecode": "0x6080604052655af3107a4000600355600060045534801561001f57600080fd5b5061004e61003a610053640100000000026401000000009004565b61005b640100000000026401000000009004565b61011f565b600033905090565b60008060009054906101000a900473ffffffffffffffffffffffffffffffffffffffff169050816000806101000a81548173ffffffffffffffffffffffffffffffffffffffff021916908373ffffffffffffffffffffffffffffffffffffffff1602179055508173ffffffffffffffffffffffffffffffffffffffff168173ffffffffffffffffffffffffffffffffffffffff167f8be0079c531659141344cd1fd0a4f28419497f9722a3daafe3b4186f6b6457e060405160405180910390a35050565b611aaa8061012e6000396000f3fe608060405234801561001057600080fd5b5060043610610107576000357c010000000000000000000000000000000000000000000000000000000090048063849eadb8116100a95780639e447fc6116100835780639e447fc614610240578063b7ea493d1461025c578063f2fde38b14610278578063fa96437e1461029457610107565b8063849eadb8146101d65780638aee8127146102065780638da5cb5b1461022257610107565b80635971f604116100e55780635971f604146101625780635d987e7e146101925780635dbedf9e146101ae578063715018a6146101cc57610107565b8063090616f01461010c5780633158952e1461013c578063572c8aa514610146575b600080fd5b610126600480360381019061012191906115a7565b6102c4565b60405161013391906115ed565b60405180910390f35b61014461040e565b005b610160600480360381019061015b9190611634565b610651565b005b61017c60048036038101906101779190611634565b6108ff565b6040516101899190611670565b60405180910390f35b6101ac60048036038101906101a7919061168b565b61096c565b005b6101b6610d76565b6040516101c391906115ed565b60405180910390f35b6101d4610d80565b005b6101f060048036038101906101eb91906115a7565b610e08565b6040516101fd91906116e6565b60405180910390f35b610220600480360381019061021b91906115a7565b610ef4565b005b61022a610fb4565b6040516102379190611670565b60405180910390f35b61025a60048036038101906102559190611634565b610fdd565b005b6102766004803603810190610271919061168b565b611063565b005b610292600480360381019061028d91906115a7565b61130a565b005b6102ae60048036038101906102a99190611634565b611401565b6040516102bb91906115ed565b60405180910390f35b600080600260008473ffffffffffffffffffffffffffffffffffffffff1673ffffffffffffffffffffffffffffffffffffffff16815260200190815260200160002080548060200260200160405190810160405280929190818152602001828054801561035057602002820191906000526020600020905b81548152602001906001019080831161033c575b505050505090506000805b825181101561040357600083828151811061037957610378611701565b5b602002602001015111156103f05760004290506000600160008685815181106103a5576103a4611701565b5b60200260200101518152602001908152602001600020600101549050600060035482846103d2919061175f565b6103dc9190611793565b905080856103ea91906117ed565b94505050505b80806103fb90611843565b91505061035b565b508092505050919050565b6000600260003373ffffffffffffffffffffffffffffffffffffffff1673ffffffffffffffffffffffffffffffffffffffff16815260200190815260200160002080548060200260200160405190810160405280929190818152602001828054801561049957602002820191906000526020600020905b815481526020019060010190808311610485575b505050505090506000805b82518110156105815760008382815181106104c2576104c1611701565b5b6020026020010151111561056e5760004290506000600160008685815181106104ee576104ed611701565b5b602002602001015181526020019081526020016000206001015490506000600354828461051b919061175f565b6105259190611793565b9050808561053391906117ed565b9450426001600088878151811061054d5761054c611701565b5b60200260200101518152602001908152602001600020600101819055505050505b808061057990611843565b9150506104a4565b506000600560009054906101000a900473ffffffffffffffffffffffffffffffffffffffff1673ffffffffffffffffffffffffffffffffffffffff1663a9059cbb33846040518363ffffffff167c01000000000000000000000000000000000000000000000000000000000281526004016105fd92919061188b565b6020604051808303816000875af115801561061c573d6000803e3d6000fd5b505050506040513d601f19601f8201168201806040525081019061064091906118e0565b90508061064c57600080fd5b505050565b610659611478565b73ffffffffffffffffffffffffffffffffffffffff16610677610fb4565b73ffffffffffffffffffffffffffffffffffffffff16146106cd576040517f08c379a00000000000000000000000000000000000000000000000000000000081526004016106c49061196a565b60405180910390fd5b6001600082815260200190815260200160002060000160009054906101000a900460ff166106fa57600080fd5b600060016000838152602001908152602001600020600301549050600260006001600085815260200190815260200160002060020160009054906101000a900473ffffffffffffffffffffffffffffffffffffffff1673ffffffffffffffffffffffffffffffffffffffff1673ffffffffffffffffffffffffffffffffffffffff168152602001908152602001600020600182610797919061175f565b815481106107a8576107a7611701565b5b9060005260206000200154600260006001600086815260200190815260200160002060020160009054906101000a900473ffffffffffffffffffffffffffffffffffffffff1673ffffffffffffffffffffffffffffffffffffffff1673ffffffffffffffffffffffffffffffffffffffff168152602001908152602001600020828154811061083a57610839611701565b5b9060005260206000200181905550600260006001600085815260200190815260200160002060020160009054906101000a900473ffffffffffffffffffffffffffffffffffffffff1673ffffffffffffffffffffffffffffffffffffffff1673ffffffffffffffffffffffffffffffffffffffff1681526020019081526020016000208054806108cd576108cc61198a565b5b60019003818190600052602060002001600090559055600460008154809291906108f6906119b9565b91905055505050565b60006001600083815260200190815260200160002060000160009054906101000a900460ff1661092e57600080fd5b6001600083815260200190815260200160002060020160009054906101000a900473ffffffffffffffffffffffffffffffffffffffff169050919050565b610974611478565b73ffffffffffffffffffffffffffffffffffffffff16610992610fb4565b73ffffffffffffffffffffffffffffffffffffffff16146109e8576040517f08c379a00000000000000000000000000000000000000000000000000000000081526004016109df9061196a565b60405180910390fd5b6001600083815260200190815260200160002060000160009054906101000a900460ff16610a1557600080fd5b600060016000848152602001908152602001600020600301549050600260006001600086815260200190815260200160002060020160009054906101000a900473ffffffffffffffffffffffffffffffffffffffff1673ffffffffffffffffffffffffffffffffffffffff1673ffffffffffffffffffffffffffffffffffffffff168152602001908152602001600020600182610ab2919061175f565b81548110610ac357610ac2611701565b5b9060005260206000200154600260006001600087815260200190815260200160002060020160009054906101000a900473ffffffffffffffffffffffffffffffffffffffff1673ffffffffffffffffffffffffffffffffffffffff1673ffffffffffffffffffffffffffffffffffffffff1681526020019081526020016000208281548110610b5557610b54611701565b5b9060005260206000200181905550600260006001600086815260200190815260200160002060020160009054906101000a900473ffffffffffffffffffffffffffffffffffffffff1673ffffffffffffffffffffffffffffffffffffffff1673ffffffffffffffffffffffffffffffffffffffff168152602001908152602001600020805480610be857610be761198a565b5b60019003818190600052602060002001600090559055600260008373ffffffffffffffffffffffffffffffffffffffff1673ffffffffffffffffffffffffffffffffffffffff168152602001908152602001600020839080600181540180825580915050600190039060005260206000200160009091909190915055600a600260008473ffffffffffffffffffffffffffffffffffffffff1673ffffffffffffffffffffffffffffffffffffffff1681526020019081526020016000208054905010610cb357600080fd5b816001600085815260200190815260200160002060020160006101000a81548173ffffffffffffffffffffffffffffffffffffffff021916908373ffffffffffffffffffffffffffffffffffffffff1602179055506001600260008473ffffffffffffffffffffffffffffffffffffffff1673ffffffffffffffffffffffffffffffffffffffff16815260200190815260200160002080549050610d57919061175f565b6001600085815260200190815260200160002060030181905550505050565b6000600454905090565b610d88611478565b73ffffffffffffffffffffffffffffffffffffffff16610da6610fb4565b73ffffffffffffffffffffffffffffffffffffffff1614610dfc576040517f08c379a0000000000000000000000000000000000000000000000000000000008152600401610df39061196a565b60405180910390fd5b610e066000611480565b565b600080600260008473ffffffffffffffffffffffffffffffffffffffff1673ffffffffffffffffffffffffffffffffffffffff168152602001908152602001600020805480602002602001604051908101604052809291908181526020018280548015610e9457602002820191906000526020600020905b815481526020019060010190808311610e80575b5050505050905060005b8151811015610ee8576000828281518110610ebc57610ebb611701565b5b60200260200101511115610ed557600192505050610eef565b8080610ee090611843565b915050610e9e565b5060009150505b919050565b610efc611478565b73ffffffffffffffffffffffffffffffffffffffff16610f1a610fb4565b73ffffffffffffffffffffffffffffffffffffffff1614610f70576040517f08c379a0000000000000000000000000000000000000000000000000000000008152600401610f679061196a565b60405180910390fd5b80600560006101000a81548173ffffffffffffffffffffffffffffffffffffffff021916908373ffffffffffffffffffffffffffffffffffffffff16021790555050565b60008060009054906101000a900473ffffffffffffffffffffffffffffffffffffffff16905090565b610fe5611478565b73ffffffffffffffffffffffffffffffffffffffff16611003610fb4565b73ffffffffffffffffffffffffffffffffffffffff1614611059576040517f08c379a00000000000000000000000000000000000000000000000000000000081526004016110509061196a565b60405180910390fd5b8060038190555050565b61106b611478565b73ffffffffffffffffffffffffffffffffffffffff16611089610fb4565b73ffffffffffffffffffffffffffffffffffffffff16146110df576040517f08c379a00000000000000000000000000000000000000000000000000000000081526004016110d69061196a565b60405180910390fd5b600082116110ec57600080fd5b6001600083815260200190815260200160002060000160009054906101000a900460ff161561111a57600080fd5b6000429050600260008373ffffffffffffffffffffffffffffffffffffffff1673ffffffffffffffffffffffffffffffffffffffff168152602001908152602001600020839080600181540180825580915050600190039060005260206000200160009091909190915055600a600260008473ffffffffffffffffffffffffffffffffffffffff1673ffffffffffffffffffffffffffffffffffffffff16815260200190815260200160002080549050106111d457600080fd5b60405180608001604052806001151581526020018281526020018373ffffffffffffffffffffffffffffffffffffffff1681526020016001600260008673ffffffffffffffffffffffffffffffffffffffff1673ffffffffffffffffffffffffffffffffffffffff16815260200190815260200160002080549050611259919061175f565b8152506001600085815260200190815260200160002060008201518160000160006101000a81548160ff0219169083151502179055506020820151816001015560408201518160020160006101000a81548173ffffffffffffffffffffffffffffffffffffffff021916908373ffffffffffffffffffffffffffffffffffffffff160217905550606082015181600301559050506004600081548092919061130090611843565b9190505550505050565b611312611478565b73ffffffffffffffffffffffffffffffffffffffff16611330610fb4565b73ffffffffffffffffffffffffffffffffffffffff1614611386576040517f08c379a000000000000000000000000000000000000000000000000000000000815260040161137d9061196a565b60405180910390fd5b600073ffffffffffffffffffffffffffffffffffffffff168173ffffffffffffffffffffffffffffffffffffffff16036113f5576040517f08c379a00000000000000000000000000000000000000000000000000000000081526004016113ec90611a54565b60405180910390fd5b6113fe81611480565b50565b60006001600083815260200190815260200160002060000160009054906101000a900460ff1661143057600080fd5b600042905060006001600085815260200190815260200160002060010154905060006003548284611461919061175f565b61146b9190611793565b9050809350505050919050565b600033905090565b60008060009054906101000a900473ffffffffffffffffffffffffffffffffffffffff169050816000806101000a81548173ffffffffffffffffffffffffffffffffffffffff021916908373ffffffffffffffffffffffffffffffffffffffff1602179055508173ffffffffffffffffffffffffffffffffffffffff168173ffffffffffffffffffffffffffffffffffffffff167f8be0079c531659141344cd1fd0a4f28419497f9722a3daafe3b4186f6b6457e060405160405180910390a35050565b600080fd5b600073ffffffffffffffffffffffffffffffffffffffff82169050919050565b600061157482611549565b9050919050565b61158481611569565b811461158f57600080fd5b50565b6000813590506115a18161157b565b92915050565b6000602082840312156115bd576115bc611544565b5b60006115cb84828501611592565b91505092915050565b6000819050919050565b6115e7816115d4565b82525050565b600060208201905061160260008301846115de565b92915050565b611611816115d4565b811461161c57600080fd5b50565b60008135905061162e81611608565b92915050565b60006020828403121561164a57611649611544565b5b60006116588482850161161f565b91505092915050565b61166a81611569565b82525050565b60006020820190506116856000830184611661565b92915050565b600080604083850312156116a2576116a1611544565b5b60006116b08582860161161f565b92505060206116c185828601611592565b9150509250929050565b60008115159050919050565b6116e0816116cb565b82525050565b60006020820190506116fb60008301846116d7565b92915050565b7f4e487b7100000000000000000000000000000000000000000000000000000000600052603260045260246000fd5b7f4e487b7100000000000000000000000000000000000000000000000000000000600052601160045260246000fd5b600061176a826115d4565b9150611775836115d4565b92508282101561178857611787611730565b5b828203905092915050565b600061179e826115d4565b91506117a9836115d4565b9250817fffffffffffffffffffffffffffffffffffffffffffffffffffffffffffffffff04831182151516156117e2576117e1611730565b5b828202905092915050565b60006117f8826115d4565b9150611803836115d4565b9250827fffffffffffffffffffffffffffffffffffffffffffffffffffffffffffffffff0382111561183857611837611730565b5b828201905092915050565b600061184e826115d4565b91507fffffffffffffffffffffffffffffffffffffffffffffffffffffffffffffffff82036118805761187f611730565b5b600182019050919050565b60006040820190506118a06000830185611661565b6118ad60208301846115de565b9392505050565b6118bd816116cb565b81146118c857600080fd5b50565b6000815190506118da816118b4565b92915050565b6000602082840312156118f6576118f5611544565b5b6000611904848285016118cb565b91505092915050565b600082825260208201905092915050565b7f4f776e61626c653a2063616c6c6572206973206e6f7420746865206f776e6572600082015250565b600061195460208361190d565b915061195f8261191e565b602082019050919050565b6000602082019050818103600083015261198381611947565b9050919050565b7f4e487b7100000000000000000000000000000000000000000000000000000000600052603160045260246000fd5b60006119c4826115d4565b9150600082036119d7576119d6611730565b5b600182039050919050565b7f4f776e61626c653a206e6577206f776e657220697320746865207a65726f206160008201527f6464726573730000000000000000000000000000000000000000000000000000602082015250565b6000611a3e60268361190d565b9150611a49826119e2565b604082019050919050565b60006020820190508181036000830152611a6d81611a31565b905091905056fea2646970667358221220adb98343ef16ccfa40969e038e010d046fbfdc8d2df9676ade015a655c927dd764736f6c634300080d0033",
  "immutableReferences": {},
  "source": "// SPDX-License-Identifier: MIT\r\npragma solidity ^0.8.4;\r\n\r\nimport \"./IdModificationListener.sol\";\r\n\r\nimport \"./RewardToken.sol\";\r\nimport \"@openzeppelin/contracts/token/ERC20/ERC20.sol\";\r\n\r\ncontract IdFundedRewarder is IdModificationListener\r\n{\r\n\r\n    // todo: events\r\n    // todo: doc solidity\r\n    // todo: change owner (in deploy) so that main contract can register\r\n    struct RewardInfo\r\n    {\r\n        bool isInList;\r\n        uint timestamp;\r\n        address ethereumAddress;\r\n        uint indexInArray;\r\n    }\r\n\r\n     // Key == 0 => unused !!!\r\n     mapping (uint => RewardInfo) private rewardInfos;\r\n\r\n\r\n     mapping (address => uint[]) private addressToKeys;\r\n     uint private nbTokenPerSec = 100000000000000;// in wei\r\n     uint nbRegisteredAddresses = 0;\r\n    \r\n\r\n\r\n\r\n    ERC20 private rewToken;\r\n\r\n\r\n\r\n    function setRewardToken(address RewTokenAddress) public onlyOwner\r\n    {\r\n        rewToken = ERC20(RewTokenAddress);\r\n    }\r\n\r\n    function setRewardRate(uint TokensPerSec) public onlyOwner\r\n    {\r\n        nbTokenPerSec = TokensPerSec;\r\n    }\r\n  \r\n    // ADD KEY\r\n     function RegisterAddress(uint key,address newAddress) public onlyOwner\r\n     {\r\n         // key == 0 means invalid\r\n         require (key > 0);\r\n         require (!rewardInfos[key].isInList);\r\n         uint current = block.timestamp;\r\n         \r\n         addressToKeys[newAddress].push(key);\r\n         // an address can manage no more than 10 ids\r\n         require(addressToKeys[newAddress].length < 10);\r\n         rewardInfos[key] = RewardInfo(true,current,newAddress,addressToKeys[newAddress].length-1);\r\n         nbRegisteredAddresses++;\r\n     }\r\n    // REMOVE KEY\r\n     function RemoveAddress(uint key) public onlyOwner\r\n     {\r\n         require (rewardInfos[key].isInList);\r\n         uint indexInArray = rewardInfos[key].indexInArray;\r\n         // remove in array\r\n         addressToKeys[rewardInfos[key].ethereumAddress][indexInArray] = addressToKeys[rewardInfos[key].ethereumAddress][indexInArray - 1];\r\n         addressToKeys[rewardInfos[key].ethereumAddress].pop();\r\n       \r\n         nbRegisteredAddresses--;\r\n     }\r\n\r\n     function UpdateAddress(uint key,address newAddress) public onlyOwner\r\n     {\r\n         require (rewardInfos[key].isInList);   \r\n         uint indexInArray = rewardInfos[key].indexInArray;\r\n         // remove this key from the keys associated to this adress\r\n         addressToKeys[rewardInfos[key].ethereumAddress][indexInArray] = addressToKeys[rewardInfos[key].ethereumAddress][indexInArray - 1];\r\n         addressToKeys[rewardInfos[key].ethereumAddress].pop();\r\n\r\n         // add the key to the new adress\r\n         addressToKeys[newAddress].push(key);\r\n         require(addressToKeys[newAddress].length < 10);\r\n        \r\n         rewardInfos[key].ethereumAddress = newAddress;\r\n         rewardInfos[key].indexInArray = addressToKeys[newAddress].length - 1;\r\n     }\r\n\r\n     function GetNbRegisteredAdresses() public view returns (uint)\r\n     {\r\n         return nbRegisteredAddresses;\r\n     }\r\n\r\n     function GetAddressFromKey(uint key) public view returns (address)\r\n     {\r\n         require (rewardInfos[key].isInList);   \r\n         return rewardInfos[key].ethereumAddress;\r\n     }\r\n\r\n    //  function GetKeyFromAddress(address ethAddress) public view returns (uint)\r\n    //  {\r\n    //      return addressToKey[ethAddress];\r\n    //  }\r\n\r\n     function EstimateReward(uint key) public view returns (uint)\r\n     {\r\n         require (rewardInfos[key].isInList);   \r\n         uint current = block.timestamp;\r\n         uint prev = rewardInfos[key].timestamp;\r\n\r\n         uint nbTokens = (current - prev) * nbTokenPerSec;\r\n         return nbTokens;\r\n     }\r\n\r\n     function EstimateRewardForAddress(address ethAddress) public view returns (uint)\r\n     {\r\n         uint[] memory keys = addressToKeys[ethAddress];\r\n         uint nbTokens = 0;\r\n         for (uint i =0; i < keys.length;i++)\r\n         {\r\n            if (keys[i] > 0)\r\n            {\r\n                uint current = block.timestamp;\r\n                uint prev = rewardInfos[keys[i]].timestamp;\r\n                uint nbTokensKey = (current - prev) * nbTokenPerSec;\r\n                nbTokens += nbTokensKey;\r\n\r\n            }\r\n         }\r\n         return nbTokens;\r\n     }\r\n\r\n     function IsRegisteredAdress(address ethAddress) public view returns (bool)\r\n     {\r\n         uint[] memory keys = addressToKeys[ethAddress];\r\n       \r\n         for (uint i =0; i < keys.length;i++)\r\n         {\r\n            if (keys[i] > 0)\r\n            {\r\n               return true;\r\n            }\r\n         }\r\n         return false;\r\n\r\n        //  uint key = addressToKey[ethAddress];\r\n        //  if (key > 0)\r\n        //  {\r\n        //      return true;\r\n        //  }\r\n        //  else\r\n        //  {\r\n        //      return false;\r\n        //  }\r\n     }\r\n\r\n     function Claim() public\r\n     {\r\n         uint[] memory keys = addressToKeys[msg.sender];\r\n         uint nbTokens = 0;\r\n         for (uint i =0; i < keys.length;i++)\r\n         {\r\n            if (keys[i] > 0)\r\n            {\r\n                uint current = block.timestamp;\r\n                uint prev = rewardInfos[keys[i]].timestamp;\r\n                uint nbTokensKey = (current - prev) * nbTokenPerSec;\r\n                nbTokens += nbTokensKey;\r\n                rewardInfos[keys[i]].timestamp = block.timestamp;\r\n\r\n            }\r\n         }\r\n        bool res = rewToken.transfer(msg.sender, nbTokens);\r\n        require(res);\r\n        \r\n     }\r\n\r\n     // *************************************** Debug ************************************************\r\n    //  function GetKey() public view returns (uint)\r\n    //  {\r\n    //     uint key = addressToKey[msg.sender]; \r\n    //     return key;\r\n    //  }\r\n}\r\n",
  "sourcePath": "E:\\dev\\alyra\\numeric_identity\\contracts\\IdFundedRewarder.sol",
  "compiler": {
    "name": "solc",
    "version": "0.8.13+commit.abaa5c0e.Emscripten.clang"
  },
  "schemaVersion": "3.4.3",
  "updatedAt": "2022-05-11T15:41:48.091Z",
  "networkType": "ethereum",
  "devdoc": {
    "kind": "dev",
    "methods": {
      "owner()": {
        "details": "Returns the address of the current owner."
      },
      "renounceOwnership()": {
        "details": "Leaves the contract without owner. It will not be possible to call `onlyOwner` functions anymore. Can only be called by the current owner. NOTE: Renouncing ownership will leave the contract without an owner, thereby removing any functionality that is only available to the owner."
      },
      "transferOwnership(address)": {
        "details": "Transfers ownership of the contract to a new account (`newOwner`). Can only be called by the current owner."
      }
    },
    "version": 1
  },
  "userdoc": {
    "kind": "user",
    "methods": {},
    "version": 1
  }
}