{
  "contractName": "IdRewarder",
  "abi": [
    {
      "anonymous": false,
      "inputs": [
        {
          "indexed": true,
          "internalType": "address",
          "name": "previousOwner",
          "type": "address"
        },
        {
          "indexed": true,
          "internalType": "address",
          "name": "newOwner",
          "type": "address"
        }
      ],
      "name": "OwnershipTransferred",
      "type": "event"
    },
    {
      "inputs": [],
      "name": "owner",
      "outputs": [
        {
          "internalType": "address",
          "name": "",
          "type": "address"
        }
      ],
      "stateMutability": "view",
      "type": "function",
      "constant": true
    },
    {
      "inputs": [],
      "name": "renounceOwnership",
      "outputs": [],
      "stateMutability": "nonpayable",
      "type": "function"
    },
    {
      "inputs": [
        {
          "internalType": "address",
          "name": "newOwner",
          "type": "address"
        }
      ],
      "name": "transferOwnership",
      "outputs": [],
      "stateMutability": "nonpayable",
      "type": "function"
    },
    {
      "inputs": [
        {
          "internalType": "address",
          "name": "RewTokenAddress",
          "type": "address"
        }
      ],
      "name": "setRewardToken",
      "outputs": [],
      "stateMutability": "nonpayable",
      "type": "function"
    },
    {
      "inputs": [
        {
          "internalType": "uint256",
          "name": "key",
          "type": "uint256"
        },
        {
          "internalType": "address",
          "name": "newAddress",
          "type": "address"
        }
      ],
      "name": "RegisterAddress",
      "outputs": [],
      "stateMutability": "nonpayable",
      "type": "function"
    },
    {
      "inputs": [
        {
          "internalType": "uint256",
          "name": "key",
          "type": "uint256"
        }
      ],
      "name": "RemoveAddress",
      "outputs": [],
      "stateMutability": "nonpayable",
      "type": "function"
    },
    {
      "inputs": [
        {
          "internalType": "uint256",
          "name": "key",
          "type": "uint256"
        },
        {
          "internalType": "address",
          "name": "newAddress",
          "type": "address"
        }
      ],
      "name": "UpdateAddress",
      "outputs": [],
      "stateMutability": "nonpayable",
      "type": "function"
    },
    {
      "inputs": [
        {
          "internalType": "uint256",
          "name": "key",
          "type": "uint256"
        }
      ],
      "name": "EstimateReward",
      "outputs": [
        {
          "internalType": "uint256",
          "name": "",
          "type": "uint256"
        }
      ],
      "stateMutability": "view",
      "type": "function",
      "constant": true
    },
    {
      "inputs": [
        {
          "internalType": "address",
          "name": "ethAddress",
          "type": "address"
        }
      ],
      "name": "EstimateRewardForAddress",
      "outputs": [
        {
          "internalType": "uint256",
          "name": "",
          "type": "uint256"
        }
      ],
      "stateMutability": "view",
      "type": "function",
      "constant": true
    },
    {
      "inputs": [],
      "name": "Claim",
      "outputs": [],
      "stateMutability": "nonpayable",
      "type": "function"
    },
    {
      "inputs": [],
      "name": "GetKey",
      "outputs": [
        {
          "internalType": "uint256",
          "name": "",
          "type": "uint256"
        }
      ],
      "stateMutability": "view",
      "type": "function",
      "constant": true
    }
  ],
  "bytecode": "0x6080604052600160035534801561001557600080fd5b50610044610030610049640100000000026401000000009004565b610051640100000000026401000000009004565b610115565b600033905090565b60008060009054906101000a900473ffffffffffffffffffffffffffffffffffffffff169050816000806101000a81548173ffffffffffffffffffffffffffffffffffffffff021916908373ffffffffffffffffffffffffffffffffffffffff1602179055508173ffffffffffffffffffffffffffffffffffffffff168173ffffffffffffffffffffffffffffffffffffffff167f8be0079c531659141344cd1fd0a4f28419497f9722a3daafe3b4186f6b6457e060405160405180910390a35050565b6110b2806101246000396000f3fe608060405234801561001057600080fd5b50600436106100c6576000357c0100000000000000000000000000000000000000000000000000000000900480638aee81271161008e5780638aee8127146101475780638da5cb5b14610163578063964ff16514610181578063b7ea493d1461019f578063f2fde38b146101bb578063fa96437e146101d7576100c6565b8063090616f0146100cb5780633158952e146100fb578063572c8aa5146101055780635d987e7e14610121578063715018a61461013d575b600080fd5b6100e560048036038101906100e09190610d63565b610207565b6040516100f29190610da9565b60405180910390f35b6101036102a9565b005b61011f600480360381019061011a9190610df0565b6103de565b005b61013b60048036038101906101369190610e1d565b6105c3565b005b610145610784565b005b610161600480360381019061015c9190610d63565b61080c565b005b61016b6108cc565b6040516101789190610e6c565b60405180910390f35b6101896108f5565b6040516101969190610da9565b60405180910390f35b6101b960048036038101906101b49190610e1d565b610941565b005b6101d560048036038101906101d09190610d63565b610af4565b005b6101f160048036038101906101ec9190610df0565b610beb565b6040516101fe9190610da9565b60405180910390f35b600080600260008473ffffffffffffffffffffffffffffffffffffffff1673ffffffffffffffffffffffffffffffffffffffff168152602001908152602001600020549050600081111561029e576000429050600060016000848152602001908152602001600020600101549050600060035482846102869190610eb6565b6102909190610eea565b9050809450505050506102a4565b60009150505b919050565b6000600260003373ffffffffffffffffffffffffffffffffffffffff1673ffffffffffffffffffffffffffffffffffffffff168152602001908152602001600020549050600081116102fa57600080fd5b600061030582610beb565b90506000811161031457600080fd5b426001600084815260200190815260200160002060010181905550600460009054906101000a900473ffffffffffffffffffffffffffffffffffffffff1673ffffffffffffffffffffffffffffffffffffffff166340c10f1933836040518363ffffffff167c01000000000000000000000000000000000000000000000000000000000281526004016103a8929190610f44565b600060405180830381600087803b1580156103c257600080fd5b505af11580156103d6573d6000803e3d6000fd5b505050505050565b6103e6610c34565b73ffffffffffffffffffffffffffffffffffffffff166104046108cc565b73ffffffffffffffffffffffffffffffffffffffff161461045a576040517f08c379a000000000000000000000000000000000000000000000000000000000815260040161045190610fca565b60405180910390fd5b6001600082815260200190815260200160002060000160009054906101000a900460ff161561048857600080fd5b6000600260006001600085815260200190815260200160002060020160009054906101000a900473ffffffffffffffffffffffffffffffffffffffff1673ffffffffffffffffffffffffffffffffffffffff1673ffffffffffffffffffffffffffffffffffffffff16815260200190815260200160002081905550604051806060016040528060001515815260200160008152602001600073ffffffffffffffffffffffffffffffffffffffff168152506001600083815260200190815260200160002060008201518160000160006101000a81548160ff0219169083151502179055506020820151816001015560408201518160020160006101000a81548173ffffffffffffffffffffffffffffffffffffffff021916908373ffffffffffffffffffffffffffffffffffffffff16021790555090505050565b6105cb610c34565b73ffffffffffffffffffffffffffffffffffffffff166105e96108cc565b73ffffffffffffffffffffffffffffffffffffffff161461063f576040517f08c379a000000000000000000000000000000000000000000000000000000000815260040161063690610fca565b60405180910390fd5b6001600083815260200190815260200160002060000160009054906101000a900460ff1661066c57600080fd5b6000600260006001600086815260200190815260200160002060020160009054906101000a900473ffffffffffffffffffffffffffffffffffffffff1673ffffffffffffffffffffffffffffffffffffffff1673ffffffffffffffffffffffffffffffffffffffff16815260200190815260200160002081905550806001600084815260200190815260200160002060020160006101000a81548173ffffffffffffffffffffffffffffffffffffffff021916908373ffffffffffffffffffffffffffffffffffffffff16021790555081600260008373ffffffffffffffffffffffffffffffffffffffff1673ffffffffffffffffffffffffffffffffffffffff168152602001908152602001600020819055505050565b61078c610c34565b73ffffffffffffffffffffffffffffffffffffffff166107aa6108cc565b73ffffffffffffffffffffffffffffffffffffffff1614610800576040517f08c379a00000000000000000000000000000000000000000000000000000000081526004016107f790610fca565b60405180910390fd5b61080a6000610c3c565b565b610814610c34565b73ffffffffffffffffffffffffffffffffffffffff166108326108cc565b73ffffffffffffffffffffffffffffffffffffffff1614610888576040517f08c379a000000000000000000000000000000000000000000000000000000000815260040161087f90610fca565b60405180910390fd5b80600460006101000a81548173ffffffffffffffffffffffffffffffffffffffff021916908373ffffffffffffffffffffffffffffffffffffffff16021790555050565b60008060009054906101000a900473ffffffffffffffffffffffffffffffffffffffff16905090565b600080600260003373ffffffffffffffffffffffffffffffffffffffff1673ffffffffffffffffffffffffffffffffffffffff1681526020019081526020016000205490508091505090565b610949610c34565b73ffffffffffffffffffffffffffffffffffffffff166109676108cc565b73ffffffffffffffffffffffffffffffffffffffff16146109bd576040517f08c379a00000000000000000000000000000000000000000000000000000000081526004016109b490610fca565b60405180910390fd5b6001600083815260200190815260200160002060000160009054906101000a900460ff16156109eb57600080fd5b600042905060405180606001604052806001151581526020018281526020018373ffffffffffffffffffffffffffffffffffffffff168152506001600085815260200190815260200160002060008201518160000160006101000a81548160ff0219169083151502179055506020820151816001015560408201518160020160006101000a81548173ffffffffffffffffffffffffffffffffffffffff021916908373ffffffffffffffffffffffffffffffffffffffff16021790555090505082600260008473ffffffffffffffffffffffffffffffffffffffff1673ffffffffffffffffffffffffffffffffffffffff16815260200190815260200160002081905550505050565b610afc610c34565b73ffffffffffffffffffffffffffffffffffffffff16610b1a6108cc565b73ffffffffffffffffffffffffffffffffffffffff1614610b70576040517f08c379a0000000000000000000000000000000000000000000000000000000008152600401610b6790610fca565b60405180910390fd5b600073ffffffffffffffffffffffffffffffffffffffff168173ffffffffffffffffffffffffffffffffffffffff1603610bdf576040517f08c379a0000000000000000000000000000000000000000000000000000000008152600401610bd69061105c565b60405180910390fd5b610be881610c3c565b50565b60008042905060006001600085815260200190815260200160002060010154905060006003548284610c1d9190610eb6565b610c279190610eea565b9050809350505050919050565b600033905090565b60008060009054906101000a900473ffffffffffffffffffffffffffffffffffffffff169050816000806101000a81548173ffffffffffffffffffffffffffffffffffffffff021916908373ffffffffffffffffffffffffffffffffffffffff1602179055508173ffffffffffffffffffffffffffffffffffffffff168173ffffffffffffffffffffffffffffffffffffffff167f8be0079c531659141344cd1fd0a4f28419497f9722a3daafe3b4186f6b6457e060405160405180910390a35050565b600080fd5b600073ffffffffffffffffffffffffffffffffffffffff82169050919050565b6000610d3082610d05565b9050919050565b610d4081610d25565b8114610d4b57600080fd5b50565b600081359050610d5d81610d37565b92915050565b600060208284031215610d7957610d78610d00565b5b6000610d8784828501610d4e565b91505092915050565b6000819050919050565b610da381610d90565b82525050565b6000602082019050610dbe6000830184610d9a565b92915050565b610dcd81610d90565b8114610dd857600080fd5b50565b600081359050610dea81610dc4565b92915050565b600060208284031215610e0657610e05610d00565b5b6000610e1484828501610ddb565b91505092915050565b60008060408385031215610e3457610e33610d00565b5b6000610e4285828601610ddb565b9250506020610e5385828601610d4e565b9150509250929050565b610e6681610d25565b82525050565b6000602082019050610e816000830184610e5d565b92915050565b7f4e487b7100000000000000000000000000000000000000000000000000000000600052601160045260246000fd5b6000610ec182610d90565b9150610ecc83610d90565b925082821015610edf57610ede610e87565b5b828203905092915050565b6000610ef582610d90565b9150610f0083610d90565b9250817fffffffffffffffffffffffffffffffffffffffffffffffffffffffffffffffff0483118215151615610f3957610f38610e87565b5b828202905092915050565b6000604082019050610f596000830185610e5d565b610f666020830184610d9a565b9392505050565b600082825260208201905092915050565b7f4f776e61626c653a2063616c6c6572206973206e6f7420746865206f776e6572600082015250565b6000610fb4602083610f6d565b9150610fbf82610f7e565b602082019050919050565b60006020820190508181036000830152610fe381610fa7565b9050919050565b7f4f776e61626c653a206e6577206f776e657220697320746865207a65726f206160008201527f6464726573730000000000000000000000000000000000000000000000000000602082015250565b6000611046602683610f6d565b915061105182610fea565b604082019050919050565b6000602082019050818103600083015261107581611039565b905091905056fea2646970667358221220711451bbb30723619dec97a22f0d56346e8c976a77ed1d8d5dbc1d8d5c67a95f64736f6c634300080d0033",
  "immutableReferences": {},
  "source": "// SPDX-License-Identifier: MIT\r\npragma solidity ^0.8.4;\r\n\r\nimport \"./IdModificationListener.sol\";\r\n\r\nimport \"./RewardToken.sol\";\r\nimport \"@openzeppelin/contracts/token/ERC20/presets/ERC20PresetMinterPauser.sol\";\r\n\r\ncontract IdRewarder is IdModificationListener\r\n{\r\n    struct TokenBalance\r\n    {\r\n        //uint balance;\r\n        bool isInList;\r\n        uint timestamp;\r\n        address ethereumAddress;\r\n    }\r\n\r\n     // Key == 0 => unused !!!\r\n     mapping (uint => TokenBalance) private rewardsBalance;\r\n     mapping (address => uint) private addressToKey;\r\n     uint private nbTokenPerSec = 1;\r\n     ERC20PresetMinterPauser private rewToken;\r\n\r\n\r\n    function setRewardToken(address RewTokenAddress) public onlyOwner\r\n    {\r\n        rewToken = ERC20PresetMinterPauser(RewTokenAddress);\r\n    }\r\n  \r\n     function RegisterAddress(uint key,address newAddress) public onlyOwner\r\n     {\r\n         require (!rewardsBalance[key].isInList);\r\n         uint current = block.timestamp;\r\n         rewardsBalance[key] = TokenBalance(true,current,newAddress);\r\n         addressToKey[newAddress] = key;\r\n     }\r\n\r\n     function RemoveAddress(uint key) public onlyOwner\r\n     {\r\n         require (!rewardsBalance[key].isInList);\r\n         addressToKey[rewardsBalance[key].ethereumAddress] = 0;\r\n         rewardsBalance[key] = TokenBalance(false,0,address(0));\r\n     }\r\n\r\n     function UpdateAddress(uint key,address newAddress) public onlyOwner\r\n     {\r\n         require (rewardsBalance[key].isInList);   \r\n         addressToKey[rewardsBalance[key].ethereumAddress] = 0;   \r\n         rewardsBalance[key].ethereumAddress = newAddress;\r\n         addressToKey[newAddress] = key; \r\n     }\r\n\r\n     function EstimateReward(uint key) public view returns (uint)\r\n     {\r\n         uint current = block.timestamp;\r\n         uint prev = rewardsBalance[key].timestamp;\r\n\r\n         uint nbTokens = (current - prev) * nbTokenPerSec;\r\n         return nbTokens;\r\n     }\r\n\r\n     function EstimateRewardForAddress(address ethAddress) public view returns (uint)\r\n     {\r\n         uint key = addressToKey[ethAddress];\r\n         if (key > 0)\r\n         {\r\n            uint current = block.timestamp;\r\n            uint prev = rewardsBalance[key].timestamp;\r\n\r\n            uint nbTokens = (current - prev) * nbTokenPerSec;\r\n            return nbTokens;\r\n         }\r\n         else\r\n         {\r\n             return 0;\r\n         }\r\n     }\r\n\r\n     function Claim() public\r\n     {\r\n         uint key = addressToKey[msg.sender]; \r\n         require(key > 0);\r\n         uint nbTokens = EstimateReward(key);\r\n         require(nbTokens > 0);\r\n\r\n        rewardsBalance[key].timestamp = block.timestamp;\r\n        rewToken.mint(msg.sender, nbTokens);\r\n        \r\n     }\r\n\r\n     // Debug\r\n     function GetKey() public view returns (uint)\r\n     {\r\n        uint key = addressToKey[msg.sender]; \r\n        return key;\r\n     }\r\n}\r\n",
  "sourcePath": "C:\\wamp64\\www\\numeric_identity\\contracts\\IdRewarder.sol",
  "compiler": {
    "name": "solc",
    "version": "0.8.13+commit.abaa5c0e.Emscripten.clang"
  },
  "schemaVersion": "3.4.3",
  "updatedAt": "2022-05-15T21:55:29.147Z",
  "networkType": "ethereum",
  "devdoc": {
    "kind": "dev",
    "methods": {
      "owner()": {
        "details": "Returns the address of the current owner."
      },
      "renounceOwnership()": {
        "details": "Leaves the contract without owner. It will not be possible to call `onlyOwner` functions anymore. Can only be called by the current owner. NOTE: Renouncing ownership will leave the contract without an owner, thereby removing any functionality that is only available to the owner."
      },
      "transferOwnership(address)": {
        "details": "Transfers ownership of the contract to a new account (`newOwner`). Can only be called by the current owner."
      }
    },
    "version": 1
  },
  "userdoc": {
    "kind": "user",
    "methods": {},
    "version": 1
  }
}