{
  "contractName": "MyPropertyContract",
  "abi": [
    {
      "anonymous": false,
      "inputs": [
        {
          "indexed": true,
          "internalType": "address",
          "name": "previousOwner",
          "type": "address"
        },
        {
          "indexed": true,
          "internalType": "address",
          "name": "newOwner",
          "type": "address"
        }
      ],
      "name": "OwnershipTransferred",
      "type": "event"
    },
    {
      "inputs": [],
      "name": "owner",
      "outputs": [
        {
          "internalType": "address",
          "name": "",
          "type": "address"
        }
      ],
      "stateMutability": "view",
      "type": "function"
    },
    {
      "inputs": [],
      "name": "renounceOwnership",
      "outputs": [],
      "stateMutability": "nonpayable",
      "type": "function"
    },
    {
      "inputs": [
        {
          "internalType": "address",
          "name": "newOwner",
          "type": "address"
        }
      ],
      "name": "transferOwnership",
      "outputs": [],
      "stateMutability": "nonpayable",
      "type": "function"
    },
    {
      "inputs": [
        {
          "internalType": "string",
          "name": "name",
          "type": "string"
        },
        {
          "internalType": "address",
          "name": "ethAdress",
          "type": "address"
        }
      ],
      "name": "AddId",
      "outputs": [],
      "stateMutability": "nonpayable",
      "type": "function"
    },
    {
      "inputs": [
        {
          "internalType": "string",
          "name": "name",
          "type": "string"
        }
      ],
      "name": "SetDeadId",
      "outputs": [],
      "stateMutability": "nonpayable",
      "type": "function"
    },
    {
      "inputs": [
        {
          "internalType": "string",
          "name": "name",
          "type": "string"
        },
        {
          "internalType": "address",
          "name": "ethAdress",
          "type": "address"
        }
      ],
      "name": "UpdateId",
      "outputs": [],
      "stateMutability": "nonpayable",
      "type": "function"
    },
    {
      "inputs": [
        {
          "internalType": "address",
          "name": "contractAddress",
          "type": "address"
        }
      ],
      "name": "SetListener",
      "outputs": [],
      "stateMutability": "nonpayable",
      "type": "function"
    }
  ],
  "bytecode": "0x608060405234801561001057600080fd5b5061003f61002b610044640100000000026401000000009004565b61004c640100000000026401000000009004565b610110565b600033905090565b60008060009054906101000a900473ffffffffffffffffffffffffffffffffffffffff169050816000806101000a81548173ffffffffffffffffffffffffffffffffffffffff021916908373ffffffffffffffffffffffffffffffffffffffff1602179055508173ffffffffffffffffffffffffffffffffffffffff168173ffffffffffffffffffffffffffffffffffffffff167f8be0079c531659141344cd1fd0a4f28419497f9722a3daafe3b4186f6b6457e060405160405180910390a35050565b6109ff8061011f6000396000f3fe608060405234801561001057600080fd5b506004361061009a576000357c0100000000000000000000000000000000000000000000000000000000900480638da5cb5b116100785780638da5cb5b146100e15780638e00c685146100ff578063f19c81291461011b578063f2fde38b146101375761009a565b806352b4b1b61461009f5780636c7b8022146100bb578063715018a6146100d7575b600080fd5b6100b960048036038101906100b491906107be565b610153565b005b6100d560048036038101906100d0919061081a565b6101d3565b005b6100df610252565b005b6100e96102da565b6040516100f69190610872565b60405180910390f35b6101196004803603810190610114919061088d565b610303565b005b610135600480360381019061013091906107be565b6103c3565b005b610151600480360381019061014c919061088d565b610443565b005b61015b61053a565b73ffffffffffffffffffffffffffffffffffffffff166101796102da565b73ffffffffffffffffffffffffffffffffffffffff16146101cf576040517f08c379a00000000000000000000000000000000000000000000000000000000081526004016101c690610917565b60405180910390fd5b5050565b6101db61053a565b73ffffffffffffffffffffffffffffffffffffffff166101f96102da565b73ffffffffffffffffffffffffffffffffffffffff161461024f576040517f08c379a000000000000000000000000000000000000000000000000000000000815260040161024690610917565b60405180910390fd5b50565b61025a61053a565b73ffffffffffffffffffffffffffffffffffffffff166102786102da565b73ffffffffffffffffffffffffffffffffffffffff16146102ce576040517f08c379a00000000000000000000000000000000000000000000000000000000081526004016102c590610917565b60405180910390fd5b6102d86000610542565b565b60008060009054906101000a900473ffffffffffffffffffffffffffffffffffffffff16905090565b61030b61053a565b73ffffffffffffffffffffffffffffffffffffffff166103296102da565b73ffffffffffffffffffffffffffffffffffffffff161461037f576040517f08c379a000000000000000000000000000000000000000000000000000000000815260040161037690610917565b60405180910390fd5b80600160006101000a81548173ffffffffffffffffffffffffffffffffffffffff021916908373ffffffffffffffffffffffffffffffffffffffff16021790555050565b6103cb61053a565b73ffffffffffffffffffffffffffffffffffffffff166103e96102da565b73ffffffffffffffffffffffffffffffffffffffff161461043f576040517f08c379a000000000000000000000000000000000000000000000000000000000815260040161043690610917565b60405180910390fd5b5050565b61044b61053a565b73ffffffffffffffffffffffffffffffffffffffff166104696102da565b73ffffffffffffffffffffffffffffffffffffffff16146104bf576040517f08c379a00000000000000000000000000000000000000000000000000000000081526004016104b690610917565b60405180910390fd5b600073ffffffffffffffffffffffffffffffffffffffff168173ffffffffffffffffffffffffffffffffffffffff160361052e576040517f08c379a0000000000000000000000000000000000000000000000000000000008152600401610525906109a9565b60405180910390fd5b61053781610542565b50565b600033905090565b60008060009054906101000a900473ffffffffffffffffffffffffffffffffffffffff169050816000806101000a81548173ffffffffffffffffffffffffffffffffffffffff021916908373ffffffffffffffffffffffffffffffffffffffff1602179055508173ffffffffffffffffffffffffffffffffffffffff168173ffffffffffffffffffffffffffffffffffffffff167f8be0079c531659141344cd1fd0a4f28419497f9722a3daafe3b4186f6b6457e060405160405180910390a35050565b6000604051905090565b600080fd5b600080fd5b600080fd5b600080fd5b6000601f19601f8301169050919050565b7f4e487b7100000000000000000000000000000000000000000000000000000000600052604160045260246000fd5b61066d82610624565b810181811067ffffffffffffffff8211171561068c5761068b610635565b5b80604052505050565b600061069f610606565b90506106ab8282610664565b919050565b600067ffffffffffffffff8211156106cb576106ca610635565b5b6106d482610624565b9050602081019050919050565b82818337600083830152505050565b60006107036106fe846106b0565b610695565b90508281526020810184848401111561071f5761071e61061f565b5b61072a8482856106e1565b509392505050565b600082601f8301126107475761074661061a565b5b81356107578482602086016106f0565b91505092915050565b600073ffffffffffffffffffffffffffffffffffffffff82169050919050565b600061078b82610760565b9050919050565b61079b81610780565b81146107a657600080fd5b50565b6000813590506107b881610792565b92915050565b600080604083850312156107d5576107d4610610565b5b600083013567ffffffffffffffff8111156107f3576107f2610615565b5b6107ff85828601610732565b9250506020610810858286016107a9565b9150509250929050565b6000602082840312156108305761082f610610565b5b600082013567ffffffffffffffff81111561084e5761084d610615565b5b61085a84828501610732565b91505092915050565b61086c81610780565b82525050565b60006020820190506108876000830184610863565b92915050565b6000602082840312156108a3576108a2610610565b5b60006108b1848285016107a9565b91505092915050565b600082825260208201905092915050565b7f4f776e61626c653a2063616c6c6572206973206e6f7420746865206f776e6572600082015250565b60006109016020836108ba565b915061090c826108cb565b602082019050919050565b60006020820190508181036000830152610930816108f4565b9050919050565b7f4f776e61626c653a206e6577206f776e657220697320746865207a65726f206160008201527f6464726573730000000000000000000000000000000000000000000000000000602082015250565b60006109936026836108ba565b915061099e82610937565b604082019050919050565b600060208201905081810360008301526109c281610986565b905091905056fea264697066735822122006a1003be3199961dff1a270829064f192b02372b19bee0e8bf01f9a3629ad9664736f6c634300080e0033",
  "immutableReferences": {},
  "source": "// SPDX-License-Identifier: MIT\r\npragma solidity ^0.8.4;\r\n\r\nimport \"@openzeppelin/contracts/access/Ownable.sol\";\r\nimport \"./IdModificationListener.sol\";\r\n\r\n// rqs:\r\n// - struct person to be precised\r\n// - onlyOwner for now but should be multi sig (hospital, town hall)\r\n\r\n// TODO:\r\n// - events\r\n// - requires\r\n// - list of listeners, unbounded loop issue\r\ncontract MyPropertyContract is Ownable \r\n{\r\n\r\n\r\n    struct Person \r\n    {\r\n        address ethAddress;\r\n        string name;\r\n        // birthdate\r\n        // name\r\n        // parents\r\n        // physical adress\r\n        // id --> be careful to duplicates!\r\n        // etc...\r\n       \r\n    }\r\n\r\n\r\n    // struct ListenerIndex \r\n    // {\r\n    //     uint index;\r\n    //     bool isValid;\r\n       \r\n    // }\r\n    // IdModificationListener[] listeners;\r\n    // mapping(address => ListenerIndex) listenersIndex;\r\n\r\n    IdModificationListener listener; \r\n    function AddId(string memory name, address ethAdress) public onlyOwner\r\n    {\r\n        // call listeners\r\n\r\n    }\r\n\r\n    function SetDeadId(string memory name) public onlyOwner\r\n    {\r\n        // call listeners\r\n    }\r\n\r\n    function UpdateId(string memory name, address ethAdress) public onlyOwner\r\n    {\r\n        // call listeners\r\n    }\r\n\r\n    function SetListener(address contractAddress) public onlyOwner\r\n    {\r\n        listener = IdModificationListener(contractAddress);\r\n    }\r\n\r\n    // function AddListener(address listenerAdress) public onlyOwner\r\n    // {\r\n    //     IdModificationListener newListener = IdModificationListener(listenerAdress);\r\n    //     listeners.push(newListener);\r\n    //     listenersIndex[listenerAdress] = ListenerIndex(listeners.length - 1,true);\r\n\r\n    // }\r\n    // function removeListener(address listenerAdress) public onlyOwner\r\n    // {\r\n    //     uint index = listenersIndex[listenerAdress].index;\r\n    //     bool isValid = listenersIndex[listenerAdress].isValid;\r\n\r\n    //     require(isValid);\r\n\r\n    //     // put last here\r\n    //     listeners[index] = listeners[listeners.length - 1];\r\n    //     firstArray.pop();\r\n\r\n    //     address movedAddress = listeners[index;\r\n\r\n    //     // update mapping\r\n    //     listenersIndex[movedAddress].index = index;\r\n\r\n    // }\r\n\r\n\r\n}",
  "sourcePath": "C:\\wamp64\\www\\numeric_identity\\contracts\\IdNumericDebug.sol",
  "compiler": {
    "name": "solc",
    "version": "0.8.14+commit.80d49f37.Emscripten.clang"
  },
  "schemaVersion": "3.4.3",
  "updatedAt": "2022-05-18T13:01:46.207Z",
  "devdoc": {
    "kind": "dev",
    "methods": {
      "owner()": {
        "details": "Returns the address of the current owner."
      },
      "renounceOwnership()": {
        "details": "Leaves the contract without owner. It will not be possible to call `onlyOwner` functions anymore. Can only be called by the current owner. NOTE: Renouncing ownership will leave the contract without an owner, thereby removing any functionality that is only available to the owner."
      },
      "transferOwnership(address)": {
        "details": "Transfers ownership of the contract to a new account (`newOwner`). Can only be called by the current owner."
      }
    },
    "version": 1
  },
  "userdoc": {
    "kind": "user",
    "methods": {},
    "version": 1
  }
}