{
  "contractName": "Verifier",
  "abi": [
    {
      "inputs": [],
      "stateMutability": "nonpayable",
      "type": "constructor"
    },
    {
      "anonymous": false,
      "inputs": [
        {
          "indexed": false,
          "internalType": "address",
          "name": "_veriferAddress",
          "type": "address"
        },
        {
          "indexed": false,
          "internalType": "string",
          "name": "_country",
          "type": "string"
        },
        {
          "indexed": false,
          "internalType": "string",
          "name": "_city",
          "type": "string"
        },
        {
          "indexed": false,
          "internalType": "string",
          "name": "_streetAddress",
          "type": "string"
        },
        {
          "indexed": false,
          "internalType": "enum Verifier.TypeValidateur",
          "name": "_typeValidateur",
          "type": "uint8"
        }
      ],
      "name": "addVerifierEvent",
      "type": "event"
    },
    {
      "inputs": [
        {
          "internalType": "address",
          "name": "_veriferAddress",
          "type": "address"
        },
        {
          "internalType": "string",
          "name": "_country",
          "type": "string"
        },
        {
          "internalType": "string",
          "name": "_city",
          "type": "string"
        },
        {
          "internalType": "string",
          "name": "_streetAddress",
          "type": "string"
        },
        {
          "internalType": "enum Verifier.TypeValidateur",
          "name": "_typeValidateur",
          "type": "uint8"
        }
      ],
      "name": "addVerifier",
      "outputs": [],
      "stateMutability": "nonpayable",
      "type": "function"
    },
    {
      "inputs": [],
      "name": "getMapVerifier",
      "outputs": [
        {
          "components": [
            {
              "internalType": "address",
              "name": "veriferAddress",
              "type": "address"
            },
            {
              "internalType": "string",
              "name": "country",
              "type": "string"
            },
            {
              "internalType": "string",
              "name": "city",
              "type": "string"
            },
            {
              "internalType": "string",
              "name": "streetAddress",
              "type": "string"
            },
            {
              "internalType": "enum Verifier.TypeValidateur",
              "name": "typeValidateur",
              "type": "uint8"
            },
            {
              "internalType": "bool",
              "name": "active",
              "type": "bool"
            }
          ],
          "internalType": "struct Verifier.verifier",
          "name": "",
          "type": "tuple"
        }
      ],
      "stateMutability": "view",
      "type": "function",
      "constant": true
    }
  ],
  "bytecode": "0x60806040523480156200001157600080fd5b506040518060c001604052803373ffffffffffffffffffffffffffffffffffffffff1681526020016040518060400160405280600b81526020017f40736f6c6964794c616e6400000000000000000000000000000000000000000081525081526020016040518060400160405280600881526020017f4074727566666c6500000000000000000000000000000000000000000000000081525081526020016040518060400160405280600f81526020017f40727565206465206c61206a6f69650000000000000000000000000000000000815250815260200160016002811115620001015762000100620002fb565b5b8152602001600115158152506000803373ffffffffffffffffffffffffffffffffffffffff1673ffffffffffffffffffffffffffffffffffffffff16815260200190815260200160002060008201518160000160006101000a81548173ffffffffffffffffffffffffffffffffffffffff021916908373ffffffffffffffffffffffffffffffffffffffff1602179055506020820151816001019080519060200190620001b09291906200024b565b506040820151816002019080519060200190620001cf9291906200024b565b506060820151816003019080519060200190620001ee9291906200024b565b5060808201518160040160006101000a81548160ff021916908360028111156200021d576200021c620002fb565b5b021790555060a08201518160040160016101000a81548160ff0219169083151502179055509050506200038e565b828054620002599062000359565b90600052602060002090601f0160209004810192826200027d5760008555620002c9565b82601f106200029857805160ff1916838001178555620002c9565b82800160010185558215620002c9579182015b82811115620002c8578251825591602001919060010190620002ab565b5b509050620002d89190620002dc565b5090565b5b80821115620002f7576000816000905550600101620002dd565b5090565b7f4e487b7100000000000000000000000000000000000000000000000000000000600052602160045260246000fd5b7f4e487b7100000000000000000000000000000000000000000000000000000000600052602260045260246000fd5b600060028204905060018216806200037257607f821691505b6020821081036200038857620003876200032a565b5b50919050565b610f66806200039e6000396000f3fe608060405234801561001057600080fd5b5060043610610053576000357c01000000000000000000000000000000000000000000000000000000009004806317b7e0aa146100585780637521911d14610074575b600080fd5b610072600480360381019061006d91906109e5565b610092565b005b61007c61044d565b6040516100899190610c74565b60405180910390f35b600115156000803373ffffffffffffffffffffffffffffffffffffffff1673ffffffffffffffffffffffffffffffffffffffff16815260200190815260200160002060040160019054906101000a900460ff16151514610127576040517f08c379a000000000000000000000000000000000000000000000000000000000815260040161011e90610d19565b60405180910390fd5b6000600281111561013b5761013a610b4b565b5b81600281111561014e5761014d610b4b565b5b148061017e57506001600281111561016957610168610b4b565b5b81600281111561017c5761017b610b4b565b5b145b806101ac575060028081111561019757610196610b4b565b5b8160028111156101aa576101a9610b4b565b5b145b6101eb576040517f08c379a00000000000000000000000000000000000000000000000000000000081526004016101e290610d85565b60405180910390fd5b600015156000808773ffffffffffffffffffffffffffffffffffffffff1673ffffffffffffffffffffffffffffffffffffffff16815260200190815260200160002060040160019054906101000a900460ff16151514610280576040517f08c379a000000000000000000000000000000000000000000000000000000000815260040161027790610df1565b60405180910390fd5b6040518060c001604052808673ffffffffffffffffffffffffffffffffffffffff1681526020018581526020018481526020018381526020018260028111156102cc576102cb610b4b565b5b8152602001600115158152506000808773ffffffffffffffffffffffffffffffffffffffff1673ffffffffffffffffffffffffffffffffffffffff16815260200190815260200160002060008201518160000160006101000a81548173ffffffffffffffffffffffffffffffffffffffff021916908373ffffffffffffffffffffffffffffffffffffffff1602179055506020820151816001019080519060200190610379929190610705565b506040820151816002019080519060200190610396929190610705565b5060608201518160030190805190602001906103b3929190610705565b5060808201518160040160006101000a81548160ff021916908360028111156103df576103de610b4b565b5b021790555060a08201518160040160016101000a81548160ff0219169083151502179055509050507f82328b7a065afe580913d6ae3625eba484c11a9a8c90ebe90b98cc18d676b517858585858560405161043e959493929190610e68565b60405180910390a15050505050565b61045561078b565b6000803373ffffffffffffffffffffffffffffffffffffffff1673ffffffffffffffffffffffffffffffffffffffff1681526020019081526020016000206040518060c00160405290816000820160009054906101000a900473ffffffffffffffffffffffffffffffffffffffff1673ffffffffffffffffffffffffffffffffffffffff1673ffffffffffffffffffffffffffffffffffffffff16815260200160018201805461050490610eff565b80601f016020809104026020016040519081016040528092919081815260200182805461053090610eff565b801561057d5780601f106105525761010080835404028352916020019161057d565b820191906000526020600020905b81548152906001019060200180831161056057829003601f168201915b5050505050815260200160028201805461059690610eff565b80601f01602080910402602001604051908101604052809291908181526020018280546105c290610eff565b801561060f5780601f106105e45761010080835404028352916020019161060f565b820191906000526020600020905b8154815290600101906020018083116105f257829003601f168201915b5050505050815260200160038201805461062890610eff565b80601f016020809104026020016040519081016040528092919081815260200182805461065490610eff565b80156106a15780601f10610676576101008083540402835291602001916106a1565b820191906000526020600020905b81548152906001019060200180831161068457829003601f168201915b505050505081526020016004820160009054906101000a900460ff1660028111156106cf576106ce610b4b565b5b60028111156106e1576106e0610b4b565b5b81526020016004820160019054906101000a900460ff161515151581525050905090565b82805461071190610eff565b90600052602060002090601f016020900481019282610733576000855561077a565b82601f1061074c57805160ff191683800117855561077a565b8280016001018555821561077a579182015b8281111561077957825182559160200191906001019061075e565b5b50905061078791906107eb565b5090565b6040518060c00160405280600073ffffffffffffffffffffffffffffffffffffffff168152602001606081526020016060815260200160608152602001600060028111156107dc576107db610b4b565b5b81526020016000151581525090565b5b808211156108045760008160009055506001016107ec565b5090565b6000604051905090565b600080fd5b600080fd5b600073ffffffffffffffffffffffffffffffffffffffff82169050919050565b60006108478261081c565b9050919050565b6108578161083c565b811461086257600080fd5b50565b6000813590506108748161084e565b92915050565b600080fd5b600080fd5b6000601f19601f8301169050919050565b7f4e487b7100000000000000000000000000000000000000000000000000000000600052604160045260246000fd5b6108cd82610884565b810181811067ffffffffffffffff821117156108ec576108eb610895565b5b80604052505050565b60006108ff610808565b905061090b82826108c4565b919050565b600067ffffffffffffffff82111561092b5761092a610895565b5b61093482610884565b9050602081019050919050565b82818337600083830152505050565b600061096361095e84610910565b6108f5565b90508281526020810184848401111561097f5761097e61087f565b5b61098a848285610941565b509392505050565b600082601f8301126109a7576109a661087a565b5b81356109b7848260208601610950565b91505092915050565b600381106109cd57600080fd5b50565b6000813590506109df816109c0565b92915050565b600080600080600060a08688031215610a0157610a00610812565b5b6000610a0f88828901610865565b955050602086013567ffffffffffffffff811115610a3057610a2f610817565b5b610a3c88828901610992565b945050604086013567ffffffffffffffff811115610a5d57610a5c610817565b5b610a6988828901610992565b935050606086013567ffffffffffffffff811115610a8a57610a89610817565b5b610a9688828901610992565b9250506080610aa7888289016109d0565b9150509295509295909350565b610abd8161083c565b82525050565b600081519050919050565b600082825260208201905092915050565b60005b83811015610afd578082015181840152602081019050610ae2565b83811115610b0c576000848401525b50505050565b6000610b1d82610ac3565b610b278185610ace565b9350610b37818560208601610adf565b610b4081610884565b840191505092915050565b7f4e487b7100000000000000000000000000000000000000000000000000000000600052602160045260246000fd5b60038110610b8b57610b8a610b4b565b5b50565b6000819050610b9c82610b7a565b919050565b6000610bac82610b8e565b9050919050565b610bbc81610ba1565b82525050565b60008115159050919050565b610bd781610bc2565b82525050565b600060c083016000830151610bf56000860182610ab4565b5060208301518482036020860152610c0d8282610b12565b91505060408301518482036040860152610c278282610b12565b91505060608301518482036060860152610c418282610b12565b9150506080830151610c566080860182610bb3565b5060a0830151610c6960a0860182610bce565b508091505092915050565b60006020820190508181036000830152610c8e8184610bdd565b905092915050565b600082825260208201905092915050565b7f4f6e6c792076657269666965722063616e20657865637574652074686973206660008201527f756e6374696f6e00000000000000000000000000000000000000000000000000602082015250565b6000610d03602783610c96565b9150610d0e82610ca7565b604082019050919050565b60006020820190508181036000830152610d3281610cf6565b9050919050565b7f57726f6e672074797065206f662076616c696461746f72000000000000000000600082015250565b6000610d6f601783610c96565b9150610d7a82610d39565b602082019050919050565b60006020820190508181036000830152610d9e81610d62565b9050919050565b7f416c726561647920657869737400000000000000000000000000000000000000600082015250565b6000610ddb600d83610c96565b9150610de682610da5565b602082019050919050565b60006020820190508181036000830152610e0a81610dce565b9050919050565b610e1a8161083c565b82525050565b6000610e2b82610ac3565b610e358185610c96565b9350610e45818560208601610adf565b610e4e81610884565b840191505092915050565b610e6281610ba1565b82525050565b600060a082019050610e7d6000830188610e11565b8181036020830152610e8f8187610e20565b90508181036040830152610ea38186610e20565b90508181036060830152610eb78185610e20565b9050610ec66080830184610e59565b9695505050505050565b7f4e487b7100000000000000000000000000000000000000000000000000000000600052602260045260246000fd5b60006002820490506001821680610f1757607f821691505b602082108103610f2a57610f29610ed0565b5b5091905056fea26469706673582212209ca91c5d4d4b4dce6d26aafc3d0529199744be588e4035692dcf4bce9309f7d564736f6c634300080e0033",
  "immutableReferences": {},
  "source": "// SPDX-License-Identifier: MIT\r\npragma solidity 0.8.14;\r\n\r\n// @title Contract verifier for the identity of an human\r\n// @author Pierrick Hellequin\r\n// @notice This contract add/update verifier\r\n// @custom:certication This is an contrat create for the certification alyra\r\ncontract Verifier {\r\n    enum TypeValidateur {\r\n        hospital,\r\n        state,\r\n        townHall\r\n    }\r\n\r\n    struct verifier {\r\n        address veriferAddress;\r\n        string country;\r\n        string city;\r\n        string streetAddress;\r\n        TypeValidateur typeValidateur;\r\n        bool active;\r\n    }\r\n\r\n    mapping(address => verifier) private mapVerifier;\r\n\r\n    event addVerifierEvent(address _veriferAddress, string  _country, string  _city, string  _streetAddress, TypeValidateur  _typeValidateur);\r\n    /// @notice Create a MODIFIER to validate that only the verifier can execute some functions\r\n    modifier onlyVerifier() {\r\n        require(mapVerifier[msg.sender].active == true, \"Only verifier can execute this function\");\r\n        _;\r\n    }\r\n\r\n    /// @notice Create a MODIFIER to validate that only the verifier can execute some functions\r\n    modifier notVerifier() {\r\n        require(mapVerifier[msg.sender].active == false, \"Only not verifier can register informations.\");\r\n        _;\r\n    }\r\n\r\n    //@notice Add by default the deployer as verifier\r\n    constructor() {\r\n        mapVerifier[msg.sender] = verifier(\r\n            msg.sender,\r\n            \"@solidyLand\",\r\n            \"@truffle\",\r\n            \"@rue de la joie\",\r\n            TypeValidateur.state,\r\n            true\r\n        );\r\n    }\r\n\r\n    /// @notice Function to save the identity of the owner of the wallet (the parent)\r\n    /// @param  _veriferAddress : The address of the owner of this identity\r\n    /// @param _country : country of this identity\r\n    /// @param _city : city of this identity\r\n    /// @param _streetAddress : country of this identity\r\n    /// @param _typeValidateur type of validateur\r\n    function addVerifier(\r\n        address _veriferAddress,\r\n        string memory _country,\r\n        string memory _city,\r\n        string memory _streetAddress,\r\n        TypeValidateur  _typeValidateur\r\n    ) public onlyVerifier {\r\n        \r\n        require(_typeValidateur == TypeValidateur.hospital || _typeValidateur == TypeValidateur.state ||_typeValidateur == TypeValidateur.townHall, \"Wrong type of validator\");\r\n        require(mapVerifier[_veriferAddress].active == false, \"Already exist\");\r\n\r\n        mapVerifier[_veriferAddress] = verifier(\r\n            _veriferAddress,\r\n            _country,\r\n            _city,\r\n            _streetAddress,\r\n            _typeValidateur,\r\n            true\r\n        );\r\n\r\n        emit addVerifierEvent(_veriferAddress, _country, _city, _streetAddress,  _typeValidateur);\r\n    }\r\n\r\n    /// @notice Get my information of verifier\r\n    function getMapVerifier() public view returns(verifier memory){\r\n        return mapVerifier[msg.sender]; \r\n    } \r\n\r\n}\r\n",
  "sourcePath": "E:\\dev\\soliditytuts\\alyra\\protoProjCertif\\gitRep\\contracts\\Verifier.sol",
  "compiler": {
    "name": "solc",
    "version": "0.8.14+commit.80d49f37.Emscripten.clang"
  },
  "schemaVersion": "3.4.3",
  "updatedAt": "2022-05-23T17:50:23.901Z",
  "networkType": "ethereum",
  "devdoc": {
    "kind": "dev",
    "methods": {
      "addVerifier(address,string,string,string,uint8)": {
        "params": {
          "_city": ": city of this identity",
          "_country": ": country of this identity",
          "_streetAddress": ": country of this identity",
          "_typeValidateur": "type of validateur",
          "_veriferAddress": ": The address of the owner of this identity"
        }
      }
    },
    "version": 1
  },
  "userdoc": {
    "kind": "user",
    "methods": {
      "addVerifier(address,string,string,string,uint8)": {
        "notice": "Function to save the identity of the owner of the wallet (the parent)"
      },
      "getMapVerifier()": {
        "notice": "Get my information of verifier"
      }
    },
    "version": 1
  }
}