{
  "contractName": "Verifier",
  "abi": [
    {
      "inputs": [],
      "stateMutability": "nonpayable",
      "type": "constructor"
    },
    {
      "inputs": [
        {
          "internalType": "address",
          "name": "_veriferAddress",
          "type": "address"
        },
        {
          "internalType": "string",
          "name": "_country",
          "type": "string"
        },
        {
          "internalType": "string",
          "name": "_city",
          "type": "string"
        },
        {
          "internalType": "string",
          "name": "_streetAddress",
          "type": "string"
        },
        {
          "internalType": "enum Verifier.TypeValidateur",
          "name": "_typeValidateur",
          "type": "uint8"
        }
      ],
      "name": "addVerifier",
      "outputs": [],
      "stateMutability": "nonpayable",
      "type": "function"
    }
  ],
  "bytecode": "0x608060405234801561001057600080fd5b5060018060003373ffffffffffffffffffffffffffffffffffffffff1673ffffffffffffffffffffffffffffffffffffffff16815260200190815260200160002060006101000a81548160ff02191690831515021790555061087b806100776000396000f3fe608060405234801561001057600080fd5b5060043610610048576000357c01000000000000000000000000000000000000000000000000000000009004806317b7e0aa1461004d575b600080fd5b610067600480360381019061006291906105fe565b610069565b005b60018060003373ffffffffffffffffffffffffffffffffffffffff1673ffffffffffffffffffffffffffffffffffffffff16815260200190815260200160002060006101000a81548160ff02191690831515021790556100fe576040517f08c379a00000000000000000000000000000000000000000000000000000000081526004016100f59061072a565b60405180910390fd5b600060028111156101125761011161074a565b5b8160028111156101255761012461074a565b5b14806101555750600160028111156101405761013f61074a565b5b8160028111156101535761015261074a565b5b145b80610183575060028081111561016e5761016d61074a565b5b8160028111156101815761018061074a565b5b145b6101c2576040517f08c379a00000000000000000000000000000000000000000000000000000000081526004016101b9906107c5565b60405180910390fd5b6040518060a001604052808673ffffffffffffffffffffffffffffffffffffffff16815260200185815260200184815260200183815260200182600281111561020e5761020d61074a565b5b8152506000808773ffffffffffffffffffffffffffffffffffffffff1673ffffffffffffffffffffffffffffffffffffffff16815260200190815260200160002060008201518160000160006101000a81548173ffffffffffffffffffffffffffffffffffffffff021916908373ffffffffffffffffffffffffffffffffffffffff16021790555060208201518160010190805190602001906102b292919061037e565b5060408201518160020190805190602001906102cf92919061037e565b5060608201518160030190805190602001906102ec92919061037e565b5060808201518160040160006101000a81548160ff021916908360028111156103185761031761074a565b5b021790555090505060018060008773ffffffffffffffffffffffffffffffffffffffff1673ffffffffffffffffffffffffffffffffffffffff16815260200190815260200160002060006101000a81548160ff0219169083151502179055505050505050565b82805461038a90610814565b90600052602060002090601f0160209004810192826103ac57600085556103f3565b82601f106103c557805160ff19168380011785556103f3565b828001600101855582156103f3579182015b828111156103f25782518255916020019190600101906103d7565b5b5090506104009190610404565b5090565b5b8082111561041d576000816000905550600101610405565b5090565b6000604051905090565b600080fd5b600080fd5b600073ffffffffffffffffffffffffffffffffffffffff82169050919050565b600061046082610435565b9050919050565b61047081610455565b811461047b57600080fd5b50565b60008135905061048d81610467565b92915050565b600080fd5b600080fd5b6000601f19601f8301169050919050565b7f4e487b7100000000000000000000000000000000000000000000000000000000600052604160045260246000fd5b6104e68261049d565b810181811067ffffffffffffffff82111715610505576105046104ae565b5b80604052505050565b6000610518610421565b905061052482826104dd565b919050565b600067ffffffffffffffff821115610544576105436104ae565b5b61054d8261049d565b9050602081019050919050565b82818337600083830152505050565b600061057c61057784610529565b61050e565b90508281526020810184848401111561059857610597610498565b5b6105a384828561055a565b509392505050565b600082601f8301126105c0576105bf610493565b5b81356105d0848260208601610569565b91505092915050565b600381106105e657600080fd5b50565b6000813590506105f8816105d9565b92915050565b600080600080600060a0868803121561061a5761061961042b565b5b60006106288882890161047e565b955050602086013567ffffffffffffffff81111561064957610648610430565b5b610655888289016105ab565b945050604086013567ffffffffffffffff81111561067657610675610430565b5b610682888289016105ab565b935050606086013567ffffffffffffffff8111156106a3576106a2610430565b5b6106af888289016105ab565b92505060806106c0888289016105e9565b9150509295509295909350565b600082825260208201905092915050565b7f4e6f742061207665726966696572000000000000000000000000000000000000600082015250565b6000610714600e836106cd565b915061071f826106de565b602082019050919050565b6000602082019050818103600083015261074381610707565b9050919050565b7f4e487b7100000000000000000000000000000000000000000000000000000000600052602160045260246000fd5b7f4d61757661697320747970652076616c69646174657572000000000000000000600082015250565b60006107af6017836106cd565b91506107ba82610779565b602082019050919050565b600060208201905081810360008301526107de816107a2565b9050919050565b7f4e487b7100000000000000000000000000000000000000000000000000000000600052602260045260246000fd5b6000600282049050600182168061082c57607f821691505b60208210810361083f5761083e6107e5565b5b5091905056fea26469706673582212205a513a87beb9e0dc51499483bbec5a7cf6e6fc3a6f9258513d402bd4bd937db664736f6c634300080e0033",
  "immutableReferences": {},
  "source": "// SPDX-License-Identifier: MIT\r\npragma solidity 0.8.14;\r\n\r\n// @title Contract verifier for the identity of an human\r\n// @author Pierrick Hellequin\r\n// @notice This contract\r\n// @custom:certication This is an contrat create for the certification alyra\r\ncontract Verifier {\r\n    enum TypeValidateur {\r\n        hospital,\r\n        state,\r\n        townHall\r\n    }\r\n\r\n    struct verifier {\r\n        address veriferAddress;\r\n        string country;\r\n        string city;\r\n        string streetAddress;\r\n        TypeValidateur typeVlidateur;\r\n    }\r\n\r\n    mapping(address => verifier) private mapVerifier;\r\n    mapping(address => bool) private verifierByAddress;\r\n\r\n    modifier onlyVerifier() {\r\n        require(verifierByAddress[msg.sender] = true, \"Not a verifier\");\r\n        _;\r\n    }\r\n\r\n    constructor() {\r\n        verifierByAddress[msg.sender] = true;\r\n    }\r\n\r\n    /// @notice Function to save the identity of the owner of the wallet (the parent)\r\n    /// @param  _veriferAddress : The address of the owner of this identity\r\n    /// @param _country : country of this identity\r\n    /// @param _city : city of this identity\r\n    /// @param _streetAddress : country of this identity\r\n    /// @param _typeValidateur type of validateur\r\n    function addVerifier(\r\n        address _veriferAddress,\r\n        string memory _country,\r\n        string memory _city,\r\n        string memory _streetAddress,\r\n        TypeValidateur  _typeValidateur\r\n    ) public onlyVerifier {\r\n        require(_typeValidateur == TypeValidateur.hospital || _typeValidateur == TypeValidateur.state ||_typeValidateur == TypeValidateur.townHall, \"Mauvais type validateur\");\r\n\r\n        mapVerifier[_veriferAddress] = verifier(\r\n            _veriferAddress,\r\n            _country,\r\n            _city,\r\n            _streetAddress,\r\n            _typeValidateur\r\n        );\r\n\r\n        verifierByAddress[_veriferAddress] = true;\r\n    }\r\n\r\n}\r\n",
  "sourcePath": "E:\\dev\\soliditytuts\\alyra\\protoProjCertif\\gitRep\\contracts\\Verifier.sol",
  "compiler": {
    "name": "solc",
    "version": "0.8.14+commit.80d49f37.Emscripten.clang"
  },
  "schemaVersion": "3.4.3",
  "updatedAt": "2022-05-19T10:17:11.681Z",
  "devdoc": {
    "kind": "dev",
    "methods": {
      "addVerifier(address,string,string,string,uint8)": {
        "params": {
          "_city": ": city of this identity",
          "_country": ": country of this identity",
          "_streetAddress": ": country of this identity",
          "_typeValidateur": "type of validateur",
          "_veriferAddress": ": The address of the owner of this identity"
        }
      }
    },
    "version": 1
  },
  "userdoc": {
    "kind": "user",
    "methods": {
      "addVerifier(address,string,string,string,uint8)": {
        "notice": "Function to save the identity of the owner of the wallet (the parent)"
      }
    },
    "version": 1
  }
}